{
	"contracts/ReverseString.sol": {
		"ReverseString": {
			"abi": [
				{
					"inputs": [
						{
							"internalType": "string",
							"name": "reverseString",
							"type": "string"
						}
					],
					"name": "reverse",
					"outputs": [
						{
							"internalType": "string",
							"name": "",
							"type": "string"
						}
					],
					"stateMutability": "pure",
					"type": "function"
				}
			],
			"devdoc": {
				"kind": "dev",
				"methods": {},
				"version": 1
			},
			"evm": {
				"assembly": "    /* \"contracts/ReverseString.sol\":130:677  contract ReverseString {... */\n  mstore(0x40, 0x80)\n  callvalue\n  dup1\n  iszero\n  tag_1\n  jumpi\n  revert(0x00, 0x00)\ntag_1:\n  pop\n  dataSize(sub_0)\n  dup1\n  dataOffset(sub_0)\n  0x00\n  codecopy\n  0x00\n  return\nstop\n\nsub_0: assembly {\n        /* \"contracts/ReverseString.sol\":130:677  contract ReverseString {... */\n      mstore(0x40, 0x80)\n      callvalue\n      dup1\n      iszero\n      tag_1\n      jumpi\n      revert(0x00, 0x00)\n    tag_1:\n      pop\n      jumpi(tag_2, lt(calldatasize, 0x04))\n      shr(0xe0, calldataload(0x00))\n      dup1\n      0x064767aa\n      eq\n      tag_3\n      jumpi\n    tag_2:\n      revert(0x00, 0x00)\n        /* \"contracts/ReverseString.sol\":160:675  function reverse(string calldata reverseString) external pure returns(string memory ){... */\n    tag_3:\n      tag_4\n      0x04\n      dup1\n      calldatasize\n      sub\n      dup2\n      add\n      swap1\n      tag_5\n      swap2\n      swap1\n      tag_6\n      jump\t// in\n    tag_5:\n      tag_7\n      jump\t// in\n    tag_4:\n      mload(0x40)\n      tag_8\n      swap2\n      swap1\n      tag_9\n      jump\t// in\n    tag_8:\n      mload(0x40)\n      dup1\n      swap2\n      sub\n      swap1\n      return\n    tag_7:\n        /* \"contracts/ReverseString.sol\":230:243  string memory */\n      0x60\n        /* \"contracts/ReverseString.sol\":255:279  bytes memory outputbytes */\n      0x00\n        /* \"contracts/ReverseString.sol\":288:301  reverseString */\n      dup4\n      dup4\n        /* \"contracts/ReverseString.sol\":255:302  bytes memory outputbytes = bytes(reverseString) */\n      dup1\n      dup1\n      0x1f\n      add\n      0x20\n      dup1\n      swap2\n      div\n      mul\n      0x20\n      add\n      mload(0x40)\n      swap1\n      dup2\n      add\n      0x40\n      mstore\n      dup1\n      swap4\n      swap3\n      swap2\n      swap1\n      dup2\n      dup2\n      mstore\n      0x20\n      add\n      dup4\n      dup4\n      dup1\n      dup3\n      dup5\n      calldatacopy\n      0x00\n      dup2\n      dup5\n      add\n      mstore\n      not(0x1f)\n      0x1f\n      dup3\n      add\n      and\n      swap1\n      pop\n      dup1\n      dup4\n      add\n      swap3\n      pop\n      pop\n      pop\n      pop\n      pop\n      pop\n      pop\n      swap1\n      pop\n        /* \"contracts/ReverseString.sol\":312:323  bytes1  tmp */\n      0x00\n        /* \"contracts/ReverseString.sol\":333:344  uint length */\n      0x00\n        /* \"contracts/ReverseString.sol\":347:358  outputbytes */\n      dup3\n        /* \"contracts/ReverseString.sol\":347:365  outputbytes.length */\n      mload\n        /* \"contracts/ReverseString.sol\":333:365  uint length = outputbytes.length */\n      swap1\n      pop\n        /* \"contracts/ReverseString.sol\":380:386  uint i */\n      0x00\n        /* \"contracts/ReverseString.sol\":387:388  0 */\n      0x00\n        /* \"contracts/ReverseString.sol\":380:388  uint i=0 */\n      swap1\n      pop\n        /* \"contracts/ReverseString.sol\":375:594  for (uint i=0; i <= length/2; i++){... */\n    tag_11:\n        /* \"contracts/ReverseString.sol\":402:403  2 */\n      0x02\n        /* \"contracts/ReverseString.sol\":395:401  length */\n      dup3\n        /* \"contracts/ReverseString.sol\":395:403  length/2 */\n      tag_14\n      swap2\n      swap1\n      tag_15\n      jump\t// in\n    tag_14:\n        /* \"contracts/ReverseString.sol\":390:391  i */\n      dup2\n        /* \"contracts/ReverseString.sol\":390:403  i <= length/2 */\n      gt\n        /* \"contracts/ReverseString.sol\":375:594  for (uint i=0; i <= length/2; i++){... */\n      tag_12\n      jumpi\n        /* \"contracts/ReverseString.sol\":438:439  1 */\n      0x01\n        /* \"contracts/ReverseString.sol\":436:437  i */\n      dup2\n        /* \"contracts/ReverseString.sol\":429:435  length */\n      dup4\n        /* \"contracts/ReverseString.sol\":429:437  length-i */\n      tag_16\n      swap2\n      swap1\n      tag_17\n      jump\t// in\n    tag_16:\n        /* \"contracts/ReverseString.sol\":429:439  length-i-1 */\n      tag_18\n      swap2\n      swap1\n      tag_17\n      jump\t// in\n    tag_18:\n        /* \"contracts/ReverseString.sol\":427:428  i */\n      dup2\n        /* \"contracts/ReverseString.sol\":427:439  i<length-i-1 */\n      lt\n        /* \"contracts/ReverseString.sol\":423:584  if (i<length-i-1){... */\n      iszero\n      tag_19\n      jumpi\n        /* \"contracts/ReverseString.sol\":460:471  outputbytes */\n      dup4\n        /* \"contracts/ReverseString.sol\":472:473  i */\n      dup2\n        /* \"contracts/ReverseString.sol\":460:474  outputbytes[i] */\n      dup2\n      mload\n      dup2\n      lt\n      tag_20\n      jumpi\n      tag_21\n      tag_22\n      jump\t// in\n    tag_21:\n    tag_20:\n      0x20\n      add\n      add\n      mload\n      0xf8\n      shr\n      0xf8\n      shl\n        /* \"contracts/ReverseString.sol\":454:474  tmp = outputbytes[i] */\n      swap3\n      pop\n        /* \"contracts/ReverseString.sol\":503:514  outputbytes */\n      dup4\n        /* \"contracts/ReverseString.sol\":524:525  1 */\n      0x01\n        /* \"contracts/ReverseString.sol\":522:523  i */\n      dup3\n        /* \"contracts/ReverseString.sol\":515:521  length */\n      dup5\n        /* \"contracts/ReverseString.sol\":515:523  length-i */\n      tag_23\n      swap2\n      swap1\n      tag_17\n      jump\t// in\n    tag_23:\n        /* \"contracts/ReverseString.sol\":515:525  length-i-1 */\n      tag_24\n      swap2\n      swap1\n      tag_17\n      jump\t// in\n    tag_24:\n        /* \"contracts/ReverseString.sol\":503:526  outputbytes[length-i-1] */\n      dup2\n      mload\n      dup2\n      lt\n      tag_25\n      jumpi\n      tag_26\n      tag_22\n      jump\t// in\n    tag_26:\n    tag_25:\n      0x20\n      add\n      add\n      mload\n      0xf8\n      shr\n      0xf8\n      shl\n        /* \"contracts/ReverseString.sol\":488:499  outputbytes */\n      dup5\n        /* \"contracts/ReverseString.sol\":500:501  i */\n      dup3\n        /* \"contracts/ReverseString.sol\":488:502  outputbytes[i] */\n      dup2\n      mload\n      dup2\n      lt\n      tag_27\n      jumpi\n      tag_28\n      tag_22\n      jump\t// in\n    tag_28:\n    tag_27:\n      0x20\n      add\n      add\n        /* \"contracts/ReverseString.sol\":488:526  outputbytes[i]=outputbytes[length-i-1] */\n      swap1\n      not(0xffffffffffffffffffffffffffffffffffffffffffffffffffffffffffffff)\n      and\n      swap1\n      dup2\n      0x00\n      byte\n      swap1\n      mstore8\n      pop\n        /* \"contracts/ReverseString.sol\":566:569  tmp */\n      dup3\n        /* \"contracts/ReverseString.sol\":540:551  outputbytes */\n      dup5\n        /* \"contracts/ReverseString.sol\":561:562  1 */\n      0x01\n        /* \"contracts/ReverseString.sol\":559:560  i */\n      dup4\n        /* \"contracts/ReverseString.sol\":552:558  length */\n      dup6\n        /* \"contracts/ReverseString.sol\":552:560  length-i */\n      tag_29\n      swap2\n      swap1\n      tag_17\n      jump\t// in\n    tag_29:\n        /* \"contracts/ReverseString.sol\":552:562  length-i-1 */\n      tag_30\n      swap2\n      swap1\n      tag_17\n      jump\t// in\n    tag_30:\n        /* \"contracts/ReverseString.sol\":540:563  outputbytes[length-i-1] */\n      dup2\n      mload\n      dup2\n      lt\n      tag_31\n      jumpi\n      tag_32\n      tag_22\n      jump\t// in\n    tag_32:\n    tag_31:\n      0x20\n      add\n      add\n        /* \"contracts/ReverseString.sol\":540:569  outputbytes[length-i-1] = tmp */\n      swap1\n      not(0xffffffffffffffffffffffffffffffffffffffffffffffffffffffffffffff)\n      and\n      swap1\n      dup2\n      0x00\n      byte\n      swap1\n      mstore8\n      pop\n        /* \"contracts/ReverseString.sol\":423:584  if (i<length-i-1){... */\n    tag_19:\n        /* \"contracts/ReverseString.sol\":405:408  i++ */\n      dup1\n      dup1\n      tag_33\n      swap1\n      tag_34\n      jump\t// in\n    tag_33:\n      swap2\n      pop\n      pop\n        /* \"contracts/ReverseString.sol\":375:594  for (uint i=0; i <= length/2; i++){... */\n      jump(tag_11)\n    tag_12:\n      pop\n        /* \"contracts/ReverseString.sol\":603:623  string memory result */\n      0x00\n        /* \"contracts/ReverseString.sol\":633:644  outputbytes */\n      dup4\n        /* \"contracts/ReverseString.sol\":603:645  string memory result = string(outputbytes) */\n      swap1\n      pop\n        /* \"contracts/ReverseString.sol\":662:668  result */\n      dup1\n        /* \"contracts/ReverseString.sol\":655:668  return result */\n      swap5\n      pop\n      pop\n      pop\n      pop\n      pop\n        /* \"contracts/ReverseString.sol\":160:675  function reverse(string calldata reverseString) external pure returns(string memory ){... */\n      swap3\n      swap2\n      pop\n      pop\n      jump\t// out\n        /* \"#utility.yul\":88:205   */\n    tag_36:\n        /* \"#utility.yul\":197:198   */\n      0x00\n        /* \"#utility.yul\":194:195   */\n      0x00\n        /* \"#utility.yul\":187:199   */\n      revert\n        /* \"#utility.yul\":211:328   */\n    tag_37:\n        /* \"#utility.yul\":320:321   */\n      0x00\n        /* \"#utility.yul\":317:318   */\n      0x00\n        /* \"#utility.yul\":310:322   */\n      revert\n        /* \"#utility.yul\":334:451   */\n    tag_38:\n        /* \"#utility.yul\":443:444   */\n      0x00\n        /* \"#utility.yul\":440:441   */\n      0x00\n        /* \"#utility.yul\":433:445   */\n      revert\n        /* \"#utility.yul\":457:574   */\n    tag_39:\n        /* \"#utility.yul\":566:567   */\n      0x00\n        /* \"#utility.yul\":563:564   */\n      0x00\n        /* \"#utility.yul\":556:568   */\n      revert\n        /* \"#utility.yul\":580:697   */\n    tag_40:\n        /* \"#utility.yul\":689:690   */\n      0x00\n        /* \"#utility.yul\":686:687   */\n      0x00\n        /* \"#utility.yul\":679:691   */\n      revert\n        /* \"#utility.yul\":717:1270   */\n    tag_41:\n        /* \"#utility.yul\":775:783   */\n      0x00\n        /* \"#utility.yul\":785:791   */\n      0x00\n        /* \"#utility.yul\":835:838   */\n      dup4\n        /* \"#utility.yul\":828:832   */\n      0x1f\n        /* \"#utility.yul\":820:826   */\n      dup5\n        /* \"#utility.yul\":816:833   */\n      add\n        /* \"#utility.yul\":812:839   */\n      slt\n        /* \"#utility.yul\":802:924   */\n      tag_58\n      jumpi\n        /* \"#utility.yul\":843:922   */\n      tag_59\n      tag_38\n      jump\t// in\n    tag_59:\n        /* \"#utility.yul\":802:924   */\n    tag_58:\n        /* \"#utility.yul\":956:962   */\n      dup3\n        /* \"#utility.yul\":943:963   */\n      calldataload\n        /* \"#utility.yul\":933:963   */\n      swap1\n      pop\n        /* \"#utility.yul\":986:1004   */\n      0xffffffffffffffff\n        /* \"#utility.yul\":978:984   */\n      dup2\n        /* \"#utility.yul\":975:1005   */\n      gt\n        /* \"#utility.yul\":972:1089   */\n      iszero\n      tag_60\n      jumpi\n        /* \"#utility.yul\":1008:1087   */\n      tag_61\n      tag_39\n      jump\t// in\n    tag_61:\n        /* \"#utility.yul\":972:1089   */\n    tag_60:\n        /* \"#utility.yul\":1122:1126   */\n      0x20\n        /* \"#utility.yul\":1114:1120   */\n      dup4\n        /* \"#utility.yul\":1110:1127   */\n      add\n        /* \"#utility.yul\":1098:1127   */\n      swap2\n      pop\n        /* \"#utility.yul\":1176:1179   */\n      dup4\n        /* \"#utility.yul\":1168:1172   */\n      0x01\n        /* \"#utility.yul\":1160:1166   */\n      dup3\n        /* \"#utility.yul\":1156:1173   */\n      mul\n        /* \"#utility.yul\":1146:1154   */\n      dup4\n        /* \"#utility.yul\":1142:1174   */\n      add\n        /* \"#utility.yul\":1139:1180   */\n      gt\n        /* \"#utility.yul\":1136:1264   */\n      iszero\n      tag_62\n      jumpi\n        /* \"#utility.yul\":1183:1262   */\n      tag_63\n      tag_40\n      jump\t// in\n    tag_63:\n        /* \"#utility.yul\":1136:1264   */\n    tag_62:\n        /* \"#utility.yul\":717:1270   */\n      swap3\n      pop\n      swap3\n      swap1\n      pop\n      jump\t// out\n        /* \"#utility.yul\":1276:1805   */\n    tag_6:\n        /* \"#utility.yul\":1347:1353   */\n      0x00\n        /* \"#utility.yul\":1355:1361   */\n      0x00\n        /* \"#utility.yul\":1404:1406   */\n      0x20\n        /* \"#utility.yul\":1392:1401   */\n      dup4\n        /* \"#utility.yul\":1383:1390   */\n      dup6\n        /* \"#utility.yul\":1379:1402   */\n      sub\n        /* \"#utility.yul\":1375:1407   */\n      slt\n        /* \"#utility.yul\":1372:1491   */\n      iszero\n      tag_65\n      jumpi\n        /* \"#utility.yul\":1410:1489   */\n      tag_66\n      tag_36\n      jump\t// in\n    tag_66:\n        /* \"#utility.yul\":1372:1491   */\n    tag_65:\n        /* \"#utility.yul\":1558:1559   */\n      0x00\n        /* \"#utility.yul\":1547:1556   */\n      dup4\n        /* \"#utility.yul\":1543:1560   */\n      add\n        /* \"#utility.yul\":1530:1561   */\n      calldataload\n        /* \"#utility.yul\":1588:1606   */\n      0xffffffffffffffff\n        /* \"#utility.yul\":1580:1586   */\n      dup2\n        /* \"#utility.yul\":1577:1607   */\n      gt\n        /* \"#utility.yul\":1574:1691   */\n      iszero\n      tag_67\n      jumpi\n        /* \"#utility.yul\":1610:1689   */\n      tag_68\n      tag_37\n      jump\t// in\n    tag_68:\n        /* \"#utility.yul\":1574:1691   */\n    tag_67:\n        /* \"#utility.yul\":1723:1788   */\n      tag_69\n        /* \"#utility.yul\":1780:1787   */\n      dup6\n        /* \"#utility.yul\":1771:1777   */\n      dup3\n        /* \"#utility.yul\":1760:1769   */\n      dup7\n        /* \"#utility.yul\":1756:1778   */\n      add\n        /* \"#utility.yul\":1723:1788   */\n      tag_41\n      jump\t// in\n    tag_69:\n        /* \"#utility.yul\":1705:1788   */\n      swap3\n      pop\n      swap3\n      pop\n        /* \"#utility.yul\":1501:1798   */\n      pop\n        /* \"#utility.yul\":1276:1805   */\n      swap3\n      pop\n      swap3\n      swap1\n      pop\n      jump\t// out\n        /* \"#utility.yul\":1811:1910   */\n    tag_42:\n        /* \"#utility.yul\":1863:1869   */\n      0x00\n        /* \"#utility.yul\":1897:1902   */\n      dup2\n        /* \"#utility.yul\":1891:1903   */\n      mload\n        /* \"#utility.yul\":1881:1903   */\n      swap1\n      pop\n        /* \"#utility.yul\":1811:1910   */\n      swap2\n      swap1\n      pop\n      jump\t// out\n        /* \"#utility.yul\":1916:2085   */\n    tag_43:\n        /* \"#utility.yul\":2000:2011   */\n      0x00\n        /* \"#utility.yul\":2034:2040   */\n      dup3\n        /* \"#utility.yul\":2029:2032   */\n      dup3\n        /* \"#utility.yul\":2022:2041   */\n      mstore\n        /* \"#utility.yul\":2074:2078   */\n      0x20\n        /* \"#utility.yul\":2069:2072   */\n      dup3\n        /* \"#utility.yul\":2065:2079   */\n      add\n        /* \"#utility.yul\":2050:2079   */\n      swap1\n      pop\n        /* \"#utility.yul\":1916:2085   */\n      swap3\n      swap2\n      pop\n      pop\n      jump\t// out\n        /* \"#utility.yul\":2091:2230   */\n    tag_44:\n        /* \"#utility.yul\":2180:2186   */\n      dup3\n        /* \"#utility.yul\":2175:2178   */\n      dup2\n        /* \"#utility.yul\":2170:2173   */\n      dup4\n        /* \"#utility.yul\":2164:2187   */\n      mcopy\n        /* \"#utility.yul\":2221:2222   */\n      0x00\n        /* \"#utility.yul\":2212:2218   */\n      dup4\n        /* \"#utility.yul\":2207:2210   */\n      dup4\n        /* \"#utility.yul\":2203:2219   */\n      add\n        /* \"#utility.yul\":2196:2223   */\n      mstore\n        /* \"#utility.yul\":2091:2230   */\n      pop\n      pop\n      pop\n      jump\t// out\n        /* \"#utility.yul\":2236:2338   */\n    tag_45:\n        /* \"#utility.yul\":2277:2283   */\n      0x00\n        /* \"#utility.yul\":2328:2330   */\n      0x1f\n        /* \"#utility.yul\":2324:2331   */\n      not\n        /* \"#utility.yul\":2319:2321   */\n      0x1f\n        /* \"#utility.yul\":2312:2317   */\n      dup4\n        /* \"#utility.yul\":2308:2322   */\n      add\n        /* \"#utility.yul\":2304:2332   */\n      and\n        /* \"#utility.yul\":2294:2332   */\n      swap1\n      pop\n        /* \"#utility.yul\":2236:2338   */\n      swap2\n      swap1\n      pop\n      jump\t// out\n        /* \"#utility.yul\":2344:2721   */\n    tag_46:\n        /* \"#utility.yul\":2432:2435   */\n      0x00\n        /* \"#utility.yul\":2460:2499   */\n      tag_75\n        /* \"#utility.yul\":2493:2498   */\n      dup3\n        /* \"#utility.yul\":2460:2499   */\n      tag_42\n      jump\t// in\n    tag_75:\n        /* \"#utility.yul\":2515:2586   */\n      tag_76\n        /* \"#utility.yul\":2579:2585   */\n      dup2\n        /* \"#utility.yul\":2574:2577   */\n      dup6\n        /* \"#utility.yul\":2515:2586   */\n      tag_43\n      jump\t// in\n    tag_76:\n        /* \"#utility.yul\":2508:2586   */\n      swap4\n      pop\n        /* \"#utility.yul\":2595:2660   */\n      tag_77\n        /* \"#utility.yul\":2653:2659   */\n      dup2\n        /* \"#utility.yul\":2648:2651   */\n      dup6\n        /* \"#utility.yul\":2641:2645   */\n      0x20\n        /* \"#utility.yul\":2634:2639   */\n      dup7\n        /* \"#utility.yul\":2630:2646   */\n      add\n        /* \"#utility.yul\":2595:2660   */\n      tag_44\n      jump\t// in\n    tag_77:\n        /* \"#utility.yul\":2685:2714   */\n      tag_78\n        /* \"#utility.yul\":2707:2713   */\n      dup2\n        /* \"#utility.yul\":2685:2714   */\n      tag_45\n      jump\t// in\n    tag_78:\n        /* \"#utility.yul\":2680:2683   */\n      dup5\n        /* \"#utility.yul\":2676:2715   */\n      add\n        /* \"#utility.yul\":2669:2715   */\n      swap2\n      pop\n        /* \"#utility.yul\":2436:2721   */\n      pop\n        /* \"#utility.yul\":2344:2721   */\n      swap3\n      swap2\n      pop\n      pop\n      jump\t// out\n        /* \"#utility.yul\":2727:3040   */\n    tag_9:\n        /* \"#utility.yul\":2840:2844   */\n      0x00\n        /* \"#utility.yul\":2878:2880   */\n      0x20\n        /* \"#utility.yul\":2867:2876   */\n      dup3\n        /* \"#utility.yul\":2863:2881   */\n      add\n        /* \"#utility.yul\":2855:2881   */\n      swap1\n      pop\n        /* \"#utility.yul\":2927:2936   */\n      dup2\n        /* \"#utility.yul\":2921:2925   */\n      dup2\n        /* \"#utility.yul\":2917:2937   */\n      sub\n        /* \"#utility.yul\":2913:2914   */\n      0x00\n        /* \"#utility.yul\":2902:2911   */\n      dup4\n        /* \"#utility.yul\":2898:2915   */\n      add\n        /* \"#utility.yul\":2891:2938   */\n      mstore\n        /* \"#utility.yul\":2955:3033   */\n      tag_80\n        /* \"#utility.yul\":3028:3032   */\n      dup2\n        /* \"#utility.yul\":3019:3025   */\n      dup5\n        /* \"#utility.yul\":2955:3033   */\n      tag_46\n      jump\t// in\n    tag_80:\n        /* \"#utility.yul\":2947:3033   */\n      swap1\n      pop\n        /* \"#utility.yul\":2727:3040   */\n      swap3\n      swap2\n      pop\n      pop\n      jump\t// out\n        /* \"#utility.yul\":3046:3123   */\n    tag_47:\n        /* \"#utility.yul\":3083:3090   */\n      0x00\n        /* \"#utility.yul\":3112:3117   */\n      dup2\n        /* \"#utility.yul\":3101:3117   */\n      swap1\n      pop\n        /* \"#utility.yul\":3046:3123   */\n      swap2\n      swap1\n      pop\n      jump\t// out\n        /* \"#utility.yul\":3129:3309   */\n    tag_48:\n        /* \"#utility.yul\":3177:3254   */\n      0x4e487b7100000000000000000000000000000000000000000000000000000000\n        /* \"#utility.yul\":3174:3175   */\n      0x00\n        /* \"#utility.yul\":3167:3255   */\n      mstore\n        /* \"#utility.yul\":3274:3278   */\n      0x12\n        /* \"#utility.yul\":3271:3272   */\n      0x04\n        /* \"#utility.yul\":3264:3279   */\n      mstore\n        /* \"#utility.yul\":3298:3302   */\n      0x24\n        /* \"#utility.yul\":3295:3296   */\n      0x00\n        /* \"#utility.yul\":3288:3303   */\n      revert\n        /* \"#utility.yul\":3315:3495   */\n    tag_49:\n        /* \"#utility.yul\":3363:3440   */\n      0x4e487b7100000000000000000000000000000000000000000000000000000000\n        /* \"#utility.yul\":3360:3361   */\n      0x00\n        /* \"#utility.yul\":3353:3441   */\n      mstore\n        /* \"#utility.yul\":3460:3464   */\n      0x11\n        /* \"#utility.yul\":3457:3458   */\n      0x04\n        /* \"#utility.yul\":3450:3465   */\n      mstore\n        /* \"#utility.yul\":3484:3488   */\n      0x24\n        /* \"#utility.yul\":3481:3482   */\n      0x00\n        /* \"#utility.yul\":3474:3489   */\n      revert\n        /* \"#utility.yul\":3501:3686   */\n    tag_15:\n        /* \"#utility.yul\":3541:3542   */\n      0x00\n        /* \"#utility.yul\":3558:3578   */\n      tag_85\n        /* \"#utility.yul\":3576:3577   */\n      dup3\n        /* \"#utility.yul\":3558:3578   */\n      tag_47\n      jump\t// in\n    tag_85:\n        /* \"#utility.yul\":3553:3578   */\n      swap2\n      pop\n        /* \"#utility.yul\":3592:3612   */\n      tag_86\n        /* \"#utility.yul\":3610:3611   */\n      dup4\n        /* \"#utility.yul\":3592:3612   */\n      tag_47\n      jump\t// in\n    tag_86:\n        /* \"#utility.yul\":3587:3612   */\n      swap3\n      pop\n        /* \"#utility.yul\":3631:3632   */\n      dup3\n        /* \"#utility.yul\":3621:3656   */\n      tag_87\n      jumpi\n        /* \"#utility.yul\":3636:3654   */\n      tag_88\n      tag_48\n      jump\t// in\n    tag_88:\n        /* \"#utility.yul\":3621:3656   */\n    tag_87:\n        /* \"#utility.yul\":3678:3679   */\n      dup3\n        /* \"#utility.yul\":3675:3676   */\n      dup3\n        /* \"#utility.yul\":3671:3680   */\n      div\n        /* \"#utility.yul\":3666:3680   */\n      swap1\n      pop\n        /* \"#utility.yul\":3501:3686   */\n      swap3\n      swap2\n      pop\n      pop\n      jump\t// out\n        /* \"#utility.yul\":3692:3886   */\n    tag_17:\n        /* \"#utility.yul\":3732:3736   */\n      0x00\n        /* \"#utility.yul\":3752:3772   */\n      tag_90\n        /* \"#utility.yul\":3770:3771   */\n      dup3\n        /* \"#utility.yul\":3752:3772   */\n      tag_47\n      jump\t// in\n    tag_90:\n        /* \"#utility.yul\":3747:3772   */\n      swap2\n      pop\n        /* \"#utility.yul\":3786:3806   */\n      tag_91\n        /* \"#utility.yul\":3804:3805   */\n      dup4\n        /* \"#utility.yul\":3786:3806   */\n      tag_47\n      jump\t// in\n    tag_91:\n        /* \"#utility.yul\":3781:3806   */\n      swap3\n      pop\n        /* \"#utility.yul\":3830:3831   */\n      dup3\n        /* \"#utility.yul\":3827:3828   */\n      dup3\n        /* \"#utility.yul\":3823:3832   */\n      sub\n        /* \"#utility.yul\":3815:3832   */\n      swap1\n      pop\n        /* \"#utility.yul\":3854:3855   */\n      dup2\n        /* \"#utility.yul\":3848:3852   */\n      dup2\n        /* \"#utility.yul\":3845:3856   */\n      gt\n        /* \"#utility.yul\":3842:3879   */\n      iszero\n      tag_92\n      jumpi\n        /* \"#utility.yul\":3859:3877   */\n      tag_93\n      tag_49\n      jump\t// in\n    tag_93:\n        /* \"#utility.yul\":3842:3879   */\n    tag_92:\n        /* \"#utility.yul\":3692:3886   */\n      swap3\n      swap2\n      pop\n      pop\n      jump\t// out\n        /* \"#utility.yul\":3892:4072   */\n    tag_22:\n        /* \"#utility.yul\":3940:4017   */\n      0x4e487b7100000000000000000000000000000000000000000000000000000000\n        /* \"#utility.yul\":3937:3938   */\n      0x00\n        /* \"#utility.yul\":3930:4018   */\n      mstore\n        /* \"#utility.yul\":4037:4041   */\n      0x32\n        /* \"#utility.yul\":4034:4035   */\n      0x04\n        /* \"#utility.yul\":4027:4042   */\n      mstore\n        /* \"#utility.yul\":4061:4065   */\n      0x24\n        /* \"#utility.yul\":4058:4059   */\n      0x00\n        /* \"#utility.yul\":4051:4066   */\n      revert\n        /* \"#utility.yul\":4078:4311   */\n    tag_34:\n        /* \"#utility.yul\":4117:4120   */\n      0x00\n        /* \"#utility.yul\":4140:4164   */\n      tag_96\n        /* \"#utility.yul\":4158:4163   */\n      dup3\n        /* \"#utility.yul\":4140:4164   */\n      tag_47\n      jump\t// in\n    tag_96:\n        /* \"#utility.yul\":4131:4164   */\n      swap2\n      pop\n        /* \"#utility.yul\":4186:4252   */\n      0xffffffffffffffffffffffffffffffffffffffffffffffffffffffffffffffff\n        /* \"#utility.yul\":4179:4184   */\n      dup3\n        /* \"#utility.yul\":4176:4253   */\n      sub\n        /* \"#utility.yul\":4173:4276   */\n      tag_97\n      jumpi\n        /* \"#utility.yul\":4256:4274   */\n      tag_98\n      tag_49\n      jump\t// in\n    tag_98:\n        /* \"#utility.yul\":4173:4276   */\n    tag_97:\n        /* \"#utility.yul\":4303:4304   */\n      0x01\n        /* \"#utility.yul\":4296:4301   */\n      dup3\n        /* \"#utility.yul\":4292:4305   */\n      add\n        /* \"#utility.yul\":4285:4305   */\n      swap1\n      pop\n        /* \"#utility.yul\":4078:4311   */\n      swap2\n      swap1\n      pop\n      jump\t// out\n\n    auxdata: 0xa2646970667358221220aa2d94c39aa303931f4a66a81ab6dec7a36db78efb8c595f01038faeadfe895464736f6c634300081e0033\n}\n",
				"bytecode": {
					"linkReferences": {},
					"object": "6080604052348015600e575f5ffd5b506104ac8061001c5f395ff3fe608060405234801561000f575f5ffd5b5060043610610029575f3560e01c8063064767aa1461002d575b5f5ffd5b61004760048036038101906100429190610261565b61005d565b604051610054919061031c565b60405180910390f35b60605f83838080601f0160208091040260200160405190810160405280939291908181526020018383808284375f81840152601f19601f8201169050808301925050505050505090505f5f825190505f5f90505b6002826100be919061039f565b81116101e657600181836100d291906103cf565b6100dc91906103cf565b8110156101d3578381815181106100f6576100f5610402565b5b602001015160f81c60f81b9250836001828461011291906103cf565b61011c91906103cf565b8151811061012d5761012c610402565b5b602001015160f81c60f81b84828151811061014b5761014a610402565b5b60200101907effffffffffffffffffffffffffffffffffffffffffffffffffffffffffffff191690815f1a90535082846001838561018991906103cf565b61019391906103cf565b815181106101a4576101a3610402565b5b60200101907effffffffffffffffffffffffffffffffffffffffffffffffffffffffffffff191690815f1a9053505b80806101de9061042f565b9150506100b1565b505f8390508094505050505092915050565b5f5ffd5b5f5ffd5b5f5ffd5b5f5ffd5b5f5ffd5b5f5f83601f84011261022157610220610200565b5b8235905067ffffffffffffffff81111561023e5761023d610204565b5b60208301915083600182028301111561025a57610259610208565b5b9250929050565b5f5f60208385031215610277576102766101f8565b5b5f83013567ffffffffffffffff811115610294576102936101fc565b5b6102a08582860161020c565b92509250509250929050565b5f81519050919050565b5f82825260208201905092915050565b8281835e5f83830152505050565b5f601f19601f8301169050919050565b5f6102ee826102ac565b6102f881856102b6565b93506103088185602086016102c6565b610311816102d4565b840191505092915050565b5f6020820190508181035f83015261033481846102e4565b905092915050565b5f819050919050565b7f4e487b71000000000000000000000000000000000000000000000000000000005f52601260045260245ffd5b7f4e487b71000000000000000000000000000000000000000000000000000000005f52601160045260245ffd5b5f6103a98261033c565b91506103b48361033c565b9250826103c4576103c3610345565b5b828204905092915050565b5f6103d98261033c565b91506103e48361033c565b92508282039050818111156103fc576103fb610372565b5b92915050565b7f4e487b71000000000000000000000000000000000000000000000000000000005f52603260045260245ffd5b5f6104398261033c565b91507fffffffffffffffffffffffffffffffffffffffffffffffffffffffffffffffff820361046b5761046a610372565b5b60018201905091905056fea2646970667358221220aa2d94c39aa303931f4a66a81ab6dec7a36db78efb8c595f01038faeadfe895464736f6c634300081e0033",
					"opcodes": "PUSH1 0x80 PUSH1 0x40 MSTORE CALLVALUE DUP1 ISZERO PUSH1 0xE JUMPI PUSH0 PUSH0 REVERT JUMPDEST POP PUSH2 0x4AC DUP1 PUSH2 0x1C PUSH0 CODECOPY PUSH0 RETURN INVALID PUSH1 0x80 PUSH1 0x40 MSTORE CALLVALUE DUP1 ISZERO PUSH2 0xF JUMPI PUSH0 PUSH0 REVERT JUMPDEST POP PUSH1 0x4 CALLDATASIZE LT PUSH2 0x29 JUMPI PUSH0 CALLDATALOAD PUSH1 0xE0 SHR DUP1 PUSH4 0x64767AA EQ PUSH2 0x2D JUMPI JUMPDEST PUSH0 PUSH0 REVERT JUMPDEST PUSH2 0x47 PUSH1 0x4 DUP1 CALLDATASIZE SUB DUP2 ADD SWAP1 PUSH2 0x42 SWAP2 SWAP1 PUSH2 0x261 JUMP JUMPDEST PUSH2 0x5D JUMP JUMPDEST PUSH1 0x40 MLOAD PUSH2 0x54 SWAP2 SWAP1 PUSH2 0x31C JUMP JUMPDEST PUSH1 0x40 MLOAD DUP1 SWAP2 SUB SWAP1 RETURN JUMPDEST PUSH1 0x60 PUSH0 DUP4 DUP4 DUP1 DUP1 PUSH1 0x1F ADD PUSH1 0x20 DUP1 SWAP2 DIV MUL PUSH1 0x20 ADD PUSH1 0x40 MLOAD SWAP1 DUP2 ADD PUSH1 0x40 MSTORE DUP1 SWAP4 SWAP3 SWAP2 SWAP1 DUP2 DUP2 MSTORE PUSH1 0x20 ADD DUP4 DUP4 DUP1 DUP3 DUP5 CALLDATACOPY PUSH0 DUP2 DUP5 ADD MSTORE PUSH1 0x1F NOT PUSH1 0x1F DUP3 ADD AND SWAP1 POP DUP1 DUP4 ADD SWAP3 POP POP POP POP POP POP POP SWAP1 POP PUSH0 PUSH0 DUP3 MLOAD SWAP1 POP PUSH0 PUSH0 SWAP1 POP JUMPDEST PUSH1 0x2 DUP3 PUSH2 0xBE SWAP2 SWAP1 PUSH2 0x39F JUMP JUMPDEST DUP2 GT PUSH2 0x1E6 JUMPI PUSH1 0x1 DUP2 DUP4 PUSH2 0xD2 SWAP2 SWAP1 PUSH2 0x3CF JUMP JUMPDEST PUSH2 0xDC SWAP2 SWAP1 PUSH2 0x3CF JUMP JUMPDEST DUP2 LT ISZERO PUSH2 0x1D3 JUMPI DUP4 DUP2 DUP2 MLOAD DUP2 LT PUSH2 0xF6 JUMPI PUSH2 0xF5 PUSH2 0x402 JUMP JUMPDEST JUMPDEST PUSH1 0x20 ADD ADD MLOAD PUSH1 0xF8 SHR PUSH1 0xF8 SHL SWAP3 POP DUP4 PUSH1 0x1 DUP3 DUP5 PUSH2 0x112 SWAP2 SWAP1 PUSH2 0x3CF JUMP JUMPDEST PUSH2 0x11C SWAP2 SWAP1 PUSH2 0x3CF JUMP JUMPDEST DUP2 MLOAD DUP2 LT PUSH2 0x12D JUMPI PUSH2 0x12C PUSH2 0x402 JUMP JUMPDEST JUMPDEST PUSH1 0x20 ADD ADD MLOAD PUSH1 0xF8 SHR PUSH1 0xF8 SHL DUP5 DUP3 DUP2 MLOAD DUP2 LT PUSH2 0x14B JUMPI PUSH2 0x14A PUSH2 0x402 JUMP JUMPDEST JUMPDEST PUSH1 0x20 ADD ADD SWAP1 PUSH31 0xFFFFFFFFFFFFFFFFFFFFFFFFFFFFFFFFFFFFFFFFFFFFFFFFFFFFFFFFFFFFFF NOT AND SWAP1 DUP2 PUSH0 BYTE SWAP1 MSTORE8 POP DUP3 DUP5 PUSH1 0x1 DUP4 DUP6 PUSH2 0x189 SWAP2 SWAP1 PUSH2 0x3CF JUMP JUMPDEST PUSH2 0x193 SWAP2 SWAP1 PUSH2 0x3CF JUMP JUMPDEST DUP2 MLOAD DUP2 LT PUSH2 0x1A4 JUMPI PUSH2 0x1A3 PUSH2 0x402 JUMP JUMPDEST JUMPDEST PUSH1 0x20 ADD ADD SWAP1 PUSH31 0xFFFFFFFFFFFFFFFFFFFFFFFFFFFFFFFFFFFFFFFFFFFFFFFFFFFFFFFFFFFFFF NOT AND SWAP1 DUP2 PUSH0 BYTE SWAP1 MSTORE8 POP JUMPDEST DUP1 DUP1 PUSH2 0x1DE SWAP1 PUSH2 0x42F JUMP JUMPDEST SWAP2 POP POP PUSH2 0xB1 JUMP JUMPDEST POP PUSH0 DUP4 SWAP1 POP DUP1 SWAP5 POP POP POP POP POP SWAP3 SWAP2 POP POP JUMP JUMPDEST PUSH0 PUSH0 REVERT JUMPDEST PUSH0 PUSH0 REVERT JUMPDEST PUSH0 PUSH0 REVERT JUMPDEST PUSH0 PUSH0 REVERT JUMPDEST PUSH0 PUSH0 REVERT JUMPDEST PUSH0 PUSH0 DUP4 PUSH1 0x1F DUP5 ADD SLT PUSH2 0x221 JUMPI PUSH2 0x220 PUSH2 0x200 JUMP JUMPDEST JUMPDEST DUP3 CALLDATALOAD SWAP1 POP PUSH8 0xFFFFFFFFFFFFFFFF DUP2 GT ISZERO PUSH2 0x23E JUMPI PUSH2 0x23D PUSH2 0x204 JUMP JUMPDEST JUMPDEST PUSH1 0x20 DUP4 ADD SWAP2 POP DUP4 PUSH1 0x1 DUP3 MUL DUP4 ADD GT ISZERO PUSH2 0x25A JUMPI PUSH2 0x259 PUSH2 0x208 JUMP JUMPDEST JUMPDEST SWAP3 POP SWAP3 SWAP1 POP JUMP JUMPDEST PUSH0 PUSH0 PUSH1 0x20 DUP4 DUP6 SUB SLT ISZERO PUSH2 0x277 JUMPI PUSH2 0x276 PUSH2 0x1F8 JUMP JUMPDEST JUMPDEST PUSH0 DUP4 ADD CALLDATALOAD PUSH8 0xFFFFFFFFFFFFFFFF DUP2 GT ISZERO PUSH2 0x294 JUMPI PUSH2 0x293 PUSH2 0x1FC JUMP JUMPDEST JUMPDEST PUSH2 0x2A0 DUP6 DUP3 DUP7 ADD PUSH2 0x20C JUMP JUMPDEST SWAP3 POP SWAP3 POP POP SWAP3 POP SWAP3 SWAP1 POP JUMP JUMPDEST PUSH0 DUP2 MLOAD SWAP1 POP SWAP2 SWAP1 POP JUMP JUMPDEST PUSH0 DUP3 DUP3 MSTORE PUSH1 0x20 DUP3 ADD SWAP1 POP SWAP3 SWAP2 POP POP JUMP JUMPDEST DUP3 DUP2 DUP4 MCOPY PUSH0 DUP4 DUP4 ADD MSTORE POP POP POP JUMP JUMPDEST PUSH0 PUSH1 0x1F NOT PUSH1 0x1F DUP4 ADD AND SWAP1 POP SWAP2 SWAP1 POP JUMP JUMPDEST PUSH0 PUSH2 0x2EE DUP3 PUSH2 0x2AC JUMP JUMPDEST PUSH2 0x2F8 DUP2 DUP6 PUSH2 0x2B6 JUMP JUMPDEST SWAP4 POP PUSH2 0x308 DUP2 DUP6 PUSH1 0x20 DUP7 ADD PUSH2 0x2C6 JUMP JUMPDEST PUSH2 0x311 DUP2 PUSH2 0x2D4 JUMP JUMPDEST DUP5 ADD SWAP2 POP POP SWAP3 SWAP2 POP POP JUMP JUMPDEST PUSH0 PUSH1 0x20 DUP3 ADD SWAP1 POP DUP2 DUP2 SUB PUSH0 DUP4 ADD MSTORE PUSH2 0x334 DUP2 DUP5 PUSH2 0x2E4 JUMP JUMPDEST SWAP1 POP SWAP3 SWAP2 POP POP JUMP JUMPDEST PUSH0 DUP2 SWAP1 POP SWAP2 SWAP1 POP JUMP JUMPDEST PUSH32 0x4E487B7100000000000000000000000000000000000000000000000000000000 PUSH0 MSTORE PUSH1 0x12 PUSH1 0x4 MSTORE PUSH1 0x24 PUSH0 REVERT JUMPDEST PUSH32 0x4E487B7100000000000000000000000000000000000000000000000000000000 PUSH0 MSTORE PUSH1 0x11 PUSH1 0x4 MSTORE PUSH1 0x24 PUSH0 REVERT JUMPDEST PUSH0 PUSH2 0x3A9 DUP3 PUSH2 0x33C JUMP JUMPDEST SWAP2 POP PUSH2 0x3B4 DUP4 PUSH2 0x33C JUMP JUMPDEST SWAP3 POP DUP3 PUSH2 0x3C4 JUMPI PUSH2 0x3C3 PUSH2 0x345 JUMP JUMPDEST JUMPDEST DUP3 DUP3 DIV SWAP1 POP SWAP3 SWAP2 POP POP JUMP JUMPDEST PUSH0 PUSH2 0x3D9 DUP3 PUSH2 0x33C JUMP JUMPDEST SWAP2 POP PUSH2 0x3E4 DUP4 PUSH2 0x33C JUMP JUMPDEST SWAP3 POP DUP3 DUP3 SUB SWAP1 POP DUP2 DUP2 GT ISZERO PUSH2 0x3FC JUMPI PUSH2 0x3FB PUSH2 0x372 JUMP JUMPDEST JUMPDEST SWAP3 SWAP2 POP POP JUMP JUMPDEST PUSH32 0x4E487B7100000000000000000000000000000000000000000000000000000000 PUSH0 MSTORE PUSH1 0x32 PUSH1 0x4 MSTORE PUSH1 0x24 PUSH0 REVERT JUMPDEST PUSH0 PUSH2 0x439 DUP3 PUSH2 0x33C JUMP JUMPDEST SWAP2 POP PUSH32 0xFFFFFFFFFFFFFFFFFFFFFFFFFFFFFFFFFFFFFFFFFFFFFFFFFFFFFFFFFFFFFFFF DUP3 SUB PUSH2 0x46B JUMPI PUSH2 0x46A PUSH2 0x372 JUMP JUMPDEST JUMPDEST PUSH1 0x1 DUP3 ADD SWAP1 POP SWAP2 SWAP1 POP JUMP INVALID LOG2 PUSH5 0x6970667358 0x22 SLT KECCAK256 0xAA 0x2D SWAP5 0xC3 SWAP11 LOG3 SUB SWAP4 0x1F BLOBBASEFEE PUSH7 0xA81AB6DEC7A36D 0xB7 DUP15 EXTSTATICCALL DUP13 MSIZE PUSH0 ADD SUB DUP16 0xAE 0xAD INVALID DUP10 SLOAD PUSH5 0x736F6C6343 STOP ADDMOD 0x1E STOP CALLER "
				},
				"gasEstimates": {
					"creation": {
						"codeDepositCost": "239200",
						"executionCost": "279",
						"totalCost": "239479"
					},
					"external": {
						"reverse(string)": "infinite"
					}
				},
				"methodIdentifiers": {
					"reverse(string)": "064767aa"
				}
			},
			"storageLayout": {
				"storage": [],
				"types": null
			},
			"userdoc": {
				"kind": "user",
				"methods": {},
				"version": 1
			}
		}
	}
}