{
	"contracts/demos/flashloan/uniswapv2.sol": {
		"UniswapV2Flashloan": {
			"abi": [
				{
					"inputs": [],
					"stateMutability": "nonpayable",
					"type": "constructor"
				},
				{
					"inputs": [
						{
							"internalType": "uint256",
							"name": "wethAmount",
							"type": "uint256"
						}
					],
					"name": "flashloan",
					"outputs": [],
					"stateMutability": "nonpayable",
					"type": "function"
				},
				{
					"inputs": [
						{
							"internalType": "address",
							"name": "sender",
							"type": "address"
						},
						{
							"internalType": "uint256",
							"name": "amount0",
							"type": "uint256"
						},
						{
							"internalType": "uint256",
							"name": "amount1",
							"type": "uint256"
						},
						{
							"internalType": "bytes",
							"name": "data",
							"type": "bytes"
						}
					],
					"name": "uniswapV2Call",
					"outputs": [],
					"stateMutability": "nonpayable",
					"type": "function"
				}
			],
			"devdoc": {
				"kind": "dev",
				"methods": {},
				"version": 1
			},
			"evm": {
				"assembly": "    /* \"contracts/demos/flashloan/uniswapv2.sol\":275:2211  contract UniswapV2Flashloan is IUniswapV2Callee {... */\n  mstore(0x40, 0xa0)\n    /* \"contracts/demos/flashloan/uniswapv2.sol\":775:855  constructor() {... */\n  callvalue\n  dup1\n  iszero\n  tag_1\n  jumpi\n  revert(0x00, 0x00)\ntag_1:\n  pop\n    /* \"contracts/demos/flashloan/uniswapv2.sol\":383:425  0x5C69bEe701ef814a2B6a3EDD4B1652CB9cc5aA6f */\n  0x5c69bee701ef814a2b6a3edd4b1652cb9cc5aa6f\n    /* \"contracts/demos/flashloan/uniswapv2.sol\":821:836  factory.getPair */\n  0xffffffffffffffffffffffffffffffffffffffff\n  and\n  0xe6a43905\n    /* \"contracts/demos/flashloan/uniswapv2.sol\":463:505  0x6B175474E89094C44Da98b954EedeAC495271d0F */\n  0x6b175474e89094c44da98b954eedeac495271d0f\n    /* \"contracts/demos/flashloan/uniswapv2.sol\":543:585  0xC02aaA39b223FE8D0A0e5C4F27eAD9083C756Cc2 */\n  0xc02aaa39b223fe8d0a0e5c4f27ead9083c756cc2\n    /* \"contracts/demos/flashloan/uniswapv2.sol\":821:847  factory.getPair(DAI, WETH) */\n  mload(0x40)\n  dup4\n  0xffffffff\n  and\n  0xe0\n  shl\n  dup2\n  mstore\n  0x04\n  add\n  tag_4\n  swap3\n  swap2\n  swap1\n  tag_5\n  jump\t// in\ntag_4:\n  0x20\n  mload(0x40)\n  dup1\n  dup4\n  sub\n  dup2\n  dup7\n  gas\n  staticcall\n  iszero\n  dup1\n  iszero\n  tag_7\n  jumpi\n  returndatacopy(0x00, 0x00, returndatasize)\n  revert(0x00, returndatasize)\ntag_7:\n  pop\n  pop\n  pop\n  pop\n  mload(0x40)\n  returndatasize\n  not(0x1f)\n  0x1f\n  dup3\n  add\n  and\n  dup3\n  add\n  dup1\n  0x40\n  mstore\n  pop\n  dup2\n  add\n  swap1\n  tag_8\n  swap2\n  swap1\n  tag_9\n  jump\t// in\ntag_8:\n    /* \"contracts/demos/flashloan/uniswapv2.sol\":799:848  pair = IUniswapV2Pair(factory.getPair(DAI, WETH)) */\n  0xffffffffffffffffffffffffffffffffffffffff\n  and\n  0x80\n  dup2\n  0xffffffffffffffffffffffffffffffffffffffff\n  and\n  dup2\n  mstore\n  pop\n  pop\n    /* \"contracts/demos/flashloan/uniswapv2.sol\":275:2211  contract UniswapV2Flashloan is IUniswapV2Callee {... */\n  jump(tag_10)\n    /* \"#utility.yul\":7:133   */\ntag_11:\n    /* \"#utility.yul\":44:51   */\n  0x00\n    /* \"#utility.yul\":84:126   */\n  0xffffffffffffffffffffffffffffffffffffffff\n    /* \"#utility.yul\":77:82   */\n  dup3\n    /* \"#utility.yul\":73:127   */\n  and\n    /* \"#utility.yul\":62:127   */\n  swap1\n  pop\n    /* \"#utility.yul\":7:133   */\n  swap2\n  swap1\n  pop\n  jump\t// out\n    /* \"#utility.yul\":139:235   */\ntag_12:\n    /* \"#utility.yul\":176:183   */\n  0x00\n    /* \"#utility.yul\":205:229   */\n  tag_22\n    /* \"#utility.yul\":223:228   */\n  dup3\n    /* \"#utility.yul\":205:229   */\n  tag_11\n  jump\t// in\ntag_22:\n    /* \"#utility.yul\":194:229   */\n  swap1\n  pop\n    /* \"#utility.yul\":139:235   */\n  swap2\n  swap1\n  pop\n  jump\t// out\n    /* \"#utility.yul\":241:359   */\ntag_13:\n    /* \"#utility.yul\":328:352   */\n  tag_24\n    /* \"#utility.yul\":346:351   */\n  dup2\n    /* \"#utility.yul\":328:352   */\n  tag_12\n  jump\t// in\ntag_24:\n    /* \"#utility.yul\":323:326   */\n  dup3\n    /* \"#utility.yul\":316:353   */\n  mstore\n    /* \"#utility.yul\":241:359   */\n  pop\n  pop\n  jump\t// out\n    /* \"#utility.yul\":365:697   */\ntag_5:\n    /* \"#utility.yul\":486:490   */\n  0x00\n    /* \"#utility.yul\":524:526   */\n  0x40\n    /* \"#utility.yul\":513:522   */\n  dup3\n    /* \"#utility.yul\":509:527   */\n  add\n    /* \"#utility.yul\":501:527   */\n  swap1\n  pop\n    /* \"#utility.yul\":537:608   */\n  tag_26\n    /* \"#utility.yul\":605:606   */\n  0x00\n    /* \"#utility.yul\":594:603   */\n  dup4\n    /* \"#utility.yul\":590:607   */\n  add\n    /* \"#utility.yul\":581:587   */\n  dup6\n    /* \"#utility.yul\":537:608   */\n  tag_13\n  jump\t// in\ntag_26:\n    /* \"#utility.yul\":618:690   */\n  tag_27\n    /* \"#utility.yul\":686:688   */\n  0x20\n    /* \"#utility.yul\":675:684   */\n  dup4\n    /* \"#utility.yul\":671:689   */\n  add\n    /* \"#utility.yul\":662:668   */\n  dup5\n    /* \"#utility.yul\":618:690   */\n  tag_13\n  jump\t// in\ntag_27:\n    /* \"#utility.yul\":365:697   */\n  swap4\n  swap3\n  pop\n  pop\n  pop\n  jump\t// out\n    /* \"#utility.yul\":784:901   */\ntag_15:\n    /* \"#utility.yul\":893:894   */\n  0x00\n    /* \"#utility.yul\":890:891   */\n  0x00\n    /* \"#utility.yul\":883:895   */\n  revert\n    /* \"#utility.yul\":1030:1152   */\ntag_17:\n    /* \"#utility.yul\":1103:1127   */\n  tag_32\n    /* \"#utility.yul\":1121:1126   */\n  dup2\n    /* \"#utility.yul\":1103:1127   */\n  tag_12\n  jump\t// in\ntag_32:\n    /* \"#utility.yul\":1096:1101   */\n  dup2\n    /* \"#utility.yul\":1093:1128   */\n  eq\n    /* \"#utility.yul\":1083:1146   */\n  tag_33\n  jumpi\n    /* \"#utility.yul\":1142:1143   */\n  0x00\n    /* \"#utility.yul\":1139:1140   */\n  0x00\n    /* \"#utility.yul\":1132:1144   */\n  revert\n    /* \"#utility.yul\":1083:1146   */\ntag_33:\n    /* \"#utility.yul\":1030:1152   */\n  pop\n  jump\t// out\n    /* \"#utility.yul\":1158:1301   */\ntag_18:\n    /* \"#utility.yul\":1215:1220   */\n  0x00\n    /* \"#utility.yul\":1246:1252   */\n  dup2\n    /* \"#utility.yul\":1240:1253   */\n  mload\n    /* \"#utility.yul\":1231:1253   */\n  swap1\n  pop\n    /* \"#utility.yul\":1262:1295   */\n  tag_35\n    /* \"#utility.yul\":1289:1294   */\n  dup2\n    /* \"#utility.yul\":1262:1295   */\n  tag_17\n  jump\t// in\ntag_35:\n    /* \"#utility.yul\":1158:1301   */\n  swap3\n  swap2\n  pop\n  pop\n  jump\t// out\n    /* \"#utility.yul\":1307:1658   */\ntag_9:\n    /* \"#utility.yul\":1377:1383   */\n  0x00\n    /* \"#utility.yul\":1426:1428   */\n  0x20\n    /* \"#utility.yul\":1414:1423   */\n  dup3\n    /* \"#utility.yul\":1405:1412   */\n  dup5\n    /* \"#utility.yul\":1401:1424   */\n  sub\n    /* \"#utility.yul\":1397:1429   */\n  slt\n    /* \"#utility.yul\":1394:1513   */\n  iszero\n  tag_37\n  jumpi\n    /* \"#utility.yul\":1432:1511   */\n  tag_38\n  tag_15\n  jump\t// in\ntag_38:\n    /* \"#utility.yul\":1394:1513   */\ntag_37:\n    /* \"#utility.yul\":1552:1553   */\n  0x00\n    /* \"#utility.yul\":1577:1641   */\n  tag_39\n    /* \"#utility.yul\":1633:1640   */\n  dup5\n    /* \"#utility.yul\":1624:1630   */\n  dup3\n    /* \"#utility.yul\":1613:1622   */\n  dup6\n    /* \"#utility.yul\":1609:1631   */\n  add\n    /* \"#utility.yul\":1577:1641   */\n  tag_18\n  jump\t// in\ntag_39:\n    /* \"#utility.yul\":1567:1641   */\n  swap2\n  pop\n    /* \"#utility.yul\":1523:1651   */\n  pop\n    /* \"#utility.yul\":1307:1658   */\n  swap3\n  swap2\n  pop\n  pop\n  jump\t// out\n    /* \"contracts/demos/flashloan/uniswapv2.sol\":275:2211  contract UniswapV2Flashloan is IUniswapV2Callee {... */\ntag_10:\n  mload(0x80)\n  codecopy(0x00, dataOffset(sub_0), dataSize(sub_0))\n  0x00\n  assignImmutable(\"0x3ac7ca38fd21a491cc5fb19169926fdbe6b54822181a3fae6f9aebec8e42713d\")\n  return(0x00, dataSize(sub_0))\nstop\n\nsub_0: assembly {\n        /* \"contracts/demos/flashloan/uniswapv2.sol\":275:2211  contract UniswapV2Flashloan is IUniswapV2Callee {... */\n      mstore(0x40, 0x80)\n      callvalue\n      dup1\n      iszero\n      tag_1\n      jumpi\n      revert(0x00, 0x00)\n    tag_1:\n      pop\n      jumpi(tag_2, lt(calldatasize, 0x04))\n      shr(0xe0, calldataload(0x00))\n      dup1\n      0x10d1e85c\n      eq\n      tag_3\n      jumpi\n      dup1\n      0x65b6c4f0\n      eq\n      tag_4\n      jumpi\n    tag_2:\n      revert(0x00, 0x00)\n        /* \"contracts/demos/flashloan/uniswapv2.sol\":1255:2209  function uniswapV2Call(... */\n    tag_3:\n      tag_5\n      0x04\n      dup1\n      calldatasize\n      sub\n      dup2\n      add\n      swap1\n      tag_6\n      swap2\n      swap1\n      tag_7\n      jump\t// in\n    tag_6:\n      tag_8\n      jump\t// in\n    tag_5:\n      stop\n        /* \"contracts/demos/flashloan/uniswapv2.sol\":884:1181  function flashloan(uint wethAmount) external {... */\n    tag_4:\n      tag_9\n      0x04\n      dup1\n      calldatasize\n      sub\n      dup2\n      add\n      swap1\n      tag_10\n      swap2\n      swap1\n      tag_11\n      jump\t// in\n    tag_10:\n      tag_12\n      jump\t// in\n    tag_9:\n      stop\n        /* \"contracts/demos/flashloan/uniswapv2.sol\":1255:2209  function uniswapV2Call(... */\n    tag_8:\n        /* \"contracts/demos/flashloan/uniswapv2.sol\":1451:1465  address token0 */\n      0x00\n        /* \"contracts/demos/flashloan/uniswapv2.sol\":1483:1493  msg.sender */\n      caller\n        /* \"contracts/demos/flashloan/uniswapv2.sol\":1468:1501  IUniswapV2Pair(msg.sender).token0 */\n      0xffffffffffffffffffffffffffffffffffffffff\n      and\n      0x0dfe1681\n        /* \"contracts/demos/flashloan/uniswapv2.sol\":1468:1503  IUniswapV2Pair(msg.sender).token0() */\n      mload(0x40)\n      dup2\n      0xffffffff\n      and\n      0xe0\n      shl\n      dup2\n      mstore\n      0x04\n      add\n      0x20\n      mload(0x40)\n      dup1\n      dup4\n      sub\n      dup2\n      dup7\n      gas\n      staticcall\n      iszero\n      dup1\n      iszero\n      tag_15\n      jumpi\n      returndatacopy(0x00, 0x00, returndatasize)\n      revert(0x00, returndatasize)\n    tag_15:\n      pop\n      pop\n      pop\n      pop\n      mload(0x40)\n      returndatasize\n      not(0x1f)\n      0x1f\n      dup3\n      add\n      and\n      dup3\n      add\n      dup1\n      0x40\n      mstore\n      pop\n      dup2\n      add\n      swap1\n      tag_16\n      swap2\n      swap1\n      tag_17\n      jump\t// in\n    tag_16:\n        /* \"contracts/demos/flashloan/uniswapv2.sol\":1451:1503  address token0 = IUniswapV2Pair(msg.sender).token0() */\n      swap1\n      pop\n        /* \"contracts/demos/flashloan/uniswapv2.sol\":1535:1549  address token1 */\n      0x00\n        /* \"contracts/demos/flashloan/uniswapv2.sol\":1567:1577  msg.sender */\n      caller\n        /* \"contracts/demos/flashloan/uniswapv2.sol\":1552:1585  IUniswapV2Pair(msg.sender).token1 */\n      0xffffffffffffffffffffffffffffffffffffffff\n      and\n      0xd21220a7\n        /* \"contracts/demos/flashloan/uniswapv2.sol\":1552:1587  IUniswapV2Pair(msg.sender).token1() */\n      mload(0x40)\n      dup2\n      0xffffffff\n      and\n      0xe0\n      shl\n      dup2\n      mstore\n      0x04\n      add\n      0x20\n      mload(0x40)\n      dup1\n      dup4\n      sub\n      dup2\n      dup7\n      gas\n      staticcall\n      iszero\n      dup1\n      iszero\n      tag_19\n      jumpi\n      returndatacopy(0x00, 0x00, returndatasize)\n      revert(0x00, returndatasize)\n    tag_19:\n      pop\n      pop\n      pop\n      pop\n      mload(0x40)\n      returndatasize\n      not(0x1f)\n      0x1f\n      dup3\n      add\n      and\n      dup3\n      add\n      dup1\n      0x40\n      mstore\n      pop\n      dup2\n      add\n      swap1\n      tag_20\n      swap2\n      swap1\n      tag_17\n      jump\t// in\n    tag_20:\n        /* \"contracts/demos/flashloan/uniswapv2.sol\":1535:1587  address token1 = IUniswapV2Pair(msg.sender).token1() */\n      swap1\n      pop\n        /* \"contracts/demos/flashloan/uniswapv2.sol\":383:425  0x5C69bEe701ef814a2B6a3EDD4B1652CB9cc5aA6f */\n      0x5c69bee701ef814a2b6a3edd4b1652cb9cc5aa6f\n        /* \"contracts/demos/flashloan/uniswapv2.sol\":1640:1655  factory.getPair */\n      0xffffffffffffffffffffffffffffffffffffffff\n      and\n      0xe6a43905\n        /* \"contracts/demos/flashloan/uniswapv2.sol\":1656:1662  token0 */\n      dup4\n        /* \"contracts/demos/flashloan/uniswapv2.sol\":1664:1670  token1 */\n      dup4\n        /* \"contracts/demos/flashloan/uniswapv2.sol\":1640:1671  factory.getPair(token0, token1) */\n      mload(0x40)\n      dup4\n      0xffffffff\n      and\n      0xe0\n      shl\n      dup2\n      mstore\n      0x04\n      add\n      tag_21\n      swap3\n      swap2\n      swap1\n      tag_22\n      jump\t// in\n    tag_21:\n      0x20\n      mload(0x40)\n      dup1\n      dup4\n      sub\n      dup2\n      dup7\n      gas\n      staticcall\n      iszero\n      dup1\n      iszero\n      tag_24\n      jumpi\n      returndatacopy(0x00, 0x00, returndatasize)\n      revert(0x00, returndatasize)\n    tag_24:\n      pop\n      pop\n      pop\n      pop\n      mload(0x40)\n      returndatasize\n      not(0x1f)\n      0x1f\n      dup3\n      add\n      and\n      dup3\n      add\n      dup1\n      0x40\n      mstore\n      pop\n      dup2\n      add\n      swap1\n      tag_25\n      swap2\n      swap1\n      tag_17\n      jump\t// in\n    tag_25:\n        /* \"contracts/demos/flashloan/uniswapv2.sol\":1626:1671  msg.sender == factory.getPair(token0, token1) */\n      0xffffffffffffffffffffffffffffffffffffffff\n      and\n        /* \"contracts/demos/flashloan/uniswapv2.sol\":1626:1636  msg.sender */\n      caller\n        /* \"contracts/demos/flashloan/uniswapv2.sol\":1626:1671  msg.sender == factory.getPair(token0, token1) */\n      0xffffffffffffffffffffffffffffffffffffffff\n      and\n      eq\n        /* \"contracts/demos/flashloan/uniswapv2.sol\":1619:1672  assert(msg.sender == factory.getPair(token0, token1)) */\n      tag_26\n      jumpi\n      tag_27\n      tag_28\n      jump\t// in\n    tag_27:\n    tag_26:\n        /* \"contracts/demos/flashloan/uniswapv2.sol\":1749:1768  address tokenBorrow */\n      0x00\n        /* \"contracts/demos/flashloan/uniswapv2.sol\":1770:1788  uint256 wethAmount */\n      0x00\n        /* \"contracts/demos/flashloan/uniswapv2.sol\":1803:1807  data */\n      dup6\n      dup6\n        /* \"contracts/demos/flashloan/uniswapv2.sol\":1792:1828  abi.decode(data, (address, uint256)) */\n      dup2\n      add\n      swap1\n      tag_29\n      swap2\n      swap1\n      tag_30\n      jump\t// in\n    tag_29:\n        /* \"contracts/demos/flashloan/uniswapv2.sol\":1748:1828  (address tokenBorrow, uint256 wethAmount) = abi.decode(data, (address, uint256)) */\n      swap2\n      pop\n      swap2\n      pop\n        /* \"contracts/demos/flashloan/uniswapv2.sol\":543:585  0xC02aaA39b223FE8D0A0e5C4F27eAD9083C756Cc2 */\n      0xc02aaa39b223fe8d0a0e5c4f27ead9083c756cc2\n        /* \"contracts/demos/flashloan/uniswapv2.sol\":1890:1909  tokenBorrow == WETH */\n      0xffffffffffffffffffffffffffffffffffffffff\n      and\n        /* \"contracts/demos/flashloan/uniswapv2.sol\":1890:1901  tokenBorrow */\n      dup3\n        /* \"contracts/demos/flashloan/uniswapv2.sol\":1890:1909  tokenBorrow == WETH */\n      0xffffffffffffffffffffffffffffffffffffffff\n      and\n      eq\n        /* \"contracts/demos/flashloan/uniswapv2.sol\":1882:1934  require(tokenBorrow == WETH, \"token borrow != WETH\") */\n      tag_31\n      jumpi\n      mload(0x40)\n      0x08c379a000000000000000000000000000000000000000000000000000000000\n      dup2\n      mstore\n      0x04\n      add\n      tag_32\n      swap1\n      tag_33\n      jump\t// in\n    tag_32:\n      mload(0x40)\n      dup1\n      swap2\n      sub\n      swap1\n      revert\n    tag_31:\n        /* \"contracts/demos/flashloan/uniswapv2.sol\":2043:2051  uint fee */\n      0x00\n        /* \"contracts/demos/flashloan/uniswapv2.sol\":2076:2077  1 */\n      0x01\n        /* \"contracts/demos/flashloan/uniswapv2.sol\":2070:2073  997 */\n      0x03e5\n        /* \"contracts/demos/flashloan/uniswapv2.sol\":2065:2066  3 */\n      0x03\n        /* \"contracts/demos/flashloan/uniswapv2.sol\":2055:2062  amount1 */\n      dup11\n        /* \"contracts/demos/flashloan/uniswapv2.sol\":2055:2066  amount1 * 3 */\n      tag_34\n      swap2\n      swap1\n      tag_35\n      jump\t// in\n    tag_34:\n        /* \"contracts/demos/flashloan/uniswapv2.sol\":2054:2073  (amount1 * 3) / 997 */\n      tag_36\n      swap2\n      swap1\n      tag_37\n      jump\t// in\n    tag_36:\n        /* \"contracts/demos/flashloan/uniswapv2.sol\":2054:2077  (amount1 * 3) / 997 + 1 */\n      tag_38\n      swap2\n      swap1\n      tag_39\n      jump\t// in\n    tag_38:\n        /* \"contracts/demos/flashloan/uniswapv2.sol\":2043:2077  uint fee = (amount1 * 3) / 997 + 1 */\n      swap1\n      pop\n        /* \"contracts/demos/flashloan/uniswapv2.sol\":2087:2105  uint amountToRepay */\n      0x00\n        /* \"contracts/demos/flashloan/uniswapv2.sol\":2118:2121  fee */\n      dup2\n        /* \"contracts/demos/flashloan/uniswapv2.sol\":2108:2115  amount1 */\n      dup10\n        /* \"contracts/demos/flashloan/uniswapv2.sol\":2108:2121  amount1 + fee */\n      tag_40\n      swap2\n      swap1\n      tag_39\n      jump\t// in\n    tag_40:\n        /* \"contracts/demos/flashloan/uniswapv2.sol\":2087:2121  uint amountToRepay = amount1 + fee */\n      swap1\n      pop\n        /* \"contracts/demos/flashloan/uniswapv2.sol\":543:585  0xC02aaA39b223FE8D0A0e5C4F27eAD9083C756Cc2 */\n      0xc02aaa39b223fe8d0a0e5c4f27ead9083c756cc2\n        /* \"contracts/demos/flashloan/uniswapv2.sol\":2159:2172  weth.transfer */\n      0xffffffffffffffffffffffffffffffffffffffff\n      and\n      0xa9059cbb\n        /* \"contracts/demos/flashloan/uniswapv2.sol\":2181:2185  pair */\n      immutable(\"0x3ac7ca38fd21a491cc5fb19169926fdbe6b54822181a3fae6f9aebec8e42713d\")\n        /* \"contracts/demos/flashloan/uniswapv2.sol\":2188:2201  amountToRepay */\n      dup4\n        /* \"contracts/demos/flashloan/uniswapv2.sol\":2159:2202  weth.transfer(address(pair), amountToRepay) */\n      mload(0x40)\n      dup4\n      0xffffffff\n      and\n      0xe0\n      shl\n      dup2\n      mstore\n      0x04\n      add\n      tag_41\n      swap3\n      swap2\n      swap1\n      tag_42\n      jump\t// in\n    tag_41:\n      0x20\n      mload(0x40)\n      dup1\n      dup4\n      sub\n      dup2\n      0x00\n      dup8\n      gas\n      call\n      iszero\n      dup1\n      iszero\n      tag_44\n      jumpi\n      returndatacopy(0x00, 0x00, returndatasize)\n      revert(0x00, returndatasize)\n    tag_44:\n      pop\n      pop\n      pop\n      pop\n      mload(0x40)\n      returndatasize\n      not(0x1f)\n      0x1f\n      dup3\n      add\n      and\n      dup3\n      add\n      dup1\n      0x40\n      mstore\n      pop\n      dup2\n      add\n      swap1\n      tag_45\n      swap2\n      swap1\n      tag_46\n      jump\t// in\n    tag_45:\n      pop\n        /* \"contracts/demos/flashloan/uniswapv2.sol\":1390:2209  {... */\n      pop\n      pop\n      pop\n      pop\n      pop\n      pop\n        /* \"contracts/demos/flashloan/uniswapv2.sol\":1255:2209  function uniswapV2Call(... */\n      pop\n      pop\n      pop\n      pop\n      pop\n      jump\t// out\n        /* \"contracts/demos/flashloan/uniswapv2.sol\":884:1181  function flashloan(uint wethAmount) external {... */\n    tag_12:\n        /* \"contracts/demos/flashloan/uniswapv2.sol\":1005:1022  bytes memory data */\n      0x00\n        /* \"contracts/demos/flashloan/uniswapv2.sol\":543:585  0xC02aaA39b223FE8D0A0e5C4F27eAD9083C756Cc2 */\n      0xc02aaa39b223fe8d0a0e5c4f27ead9083c756cc2\n        /* \"contracts/demos/flashloan/uniswapv2.sol\":1042:1052  wethAmount */\n      dup3\n        /* \"contracts/demos/flashloan/uniswapv2.sol\":1025:1053  abi.encode(WETH, wethAmount) */\n      add(0x20, mload(0x40))\n      tag_48\n      swap3\n      swap2\n      swap1\n      tag_42\n      jump\t// in\n    tag_48:\n      mload(0x40)\n      0x20\n      dup2\n      dup4\n      sub\n      sub\n      dup2\n      mstore\n      swap1\n      0x40\n      mstore\n        /* \"contracts/demos/flashloan/uniswapv2.sol\":1005:1053  bytes memory data = abi.encode(WETH, wethAmount) */\n      swap1\n      pop\n        /* \"contracts/demos/flashloan/uniswapv2.sol\":1129:1133  pair */\n      immutable(\"0x3ac7ca38fd21a491cc5fb19169926fdbe6b54822181a3fae6f9aebec8e42713d\")\n        /* \"contracts/demos/flashloan/uniswapv2.sol\":1129:1138  pair.swap */\n      0xffffffffffffffffffffffffffffffffffffffff\n      and\n      0x022c0d9f\n        /* \"contracts/demos/flashloan/uniswapv2.sol\":1139:1140  0 */\n      0x00\n        /* \"contracts/demos/flashloan/uniswapv2.sol\":1142:1152  wethAmount */\n      dup5\n        /* \"contracts/demos/flashloan/uniswapv2.sol\":1162:1166  this */\n      address\n        /* \"contracts/demos/flashloan/uniswapv2.sol\":1169:1173  data */\n      dup6\n        /* \"contracts/demos/flashloan/uniswapv2.sol\":1129:1174  pair.swap(0, wethAmount, address(this), data) */\n      mload(0x40)\n      dup6\n      0xffffffff\n      and\n      0xe0\n      shl\n      dup2\n      mstore\n      0x04\n      add\n      tag_49\n      swap5\n      swap4\n      swap3\n      swap2\n      swap1\n      tag_50\n      jump\t// in\n    tag_49:\n      0x00\n      mload(0x40)\n      dup1\n      dup4\n      sub\n      dup2\n      0x00\n      dup8\n      dup1\n      extcodesize\n      iszero\n      dup1\n      iszero\n      tag_51\n      jumpi\n      revert(0x00, 0x00)\n    tag_51:\n      pop\n      gas\n      call\n      iszero\n      dup1\n      iszero\n      tag_53\n      jumpi\n      returndatacopy(0x00, 0x00, returndatasize)\n      revert(0x00, returndatasize)\n    tag_53:\n      pop\n      pop\n      pop\n      pop\n        /* \"contracts/demos/flashloan/uniswapv2.sol\":929:1181  {... */\n      pop\n        /* \"contracts/demos/flashloan/uniswapv2.sol\":884:1181  function flashloan(uint wethAmount) external {... */\n      pop\n      jump\t// out\n        /* \"#utility.yul\":88:205   */\n    tag_55:\n        /* \"#utility.yul\":197:198   */\n      0x00\n        /* \"#utility.yul\":194:195   */\n      0x00\n        /* \"#utility.yul\":187:199   */\n      revert\n        /* \"#utility.yul\":211:328   */\n    tag_56:\n        /* \"#utility.yul\":320:321   */\n      0x00\n        /* \"#utility.yul\":317:318   */\n      0x00\n        /* \"#utility.yul\":310:322   */\n      revert\n        /* \"#utility.yul\":334:460   */\n    tag_57:\n        /* \"#utility.yul\":371:378   */\n      0x00\n        /* \"#utility.yul\":411:453   */\n      0xffffffffffffffffffffffffffffffffffffffff\n        /* \"#utility.yul\":404:409   */\n      dup3\n        /* \"#utility.yul\":400:454   */\n      and\n        /* \"#utility.yul\":389:454   */\n      swap1\n      pop\n        /* \"#utility.yul\":334:460   */\n      swap2\n      swap1\n      pop\n      jump\t// out\n        /* \"#utility.yul\":466:562   */\n    tag_58:\n        /* \"#utility.yul\":503:510   */\n      0x00\n        /* \"#utility.yul\":532:556   */\n      tag_97\n        /* \"#utility.yul\":550:555   */\n      dup3\n        /* \"#utility.yul\":532:556   */\n      tag_57\n      jump\t// in\n    tag_97:\n        /* \"#utility.yul\":521:556   */\n      swap1\n      pop\n        /* \"#utility.yul\":466:562   */\n      swap2\n      swap1\n      pop\n      jump\t// out\n        /* \"#utility.yul\":568:690   */\n    tag_59:\n        /* \"#utility.yul\":641:665   */\n      tag_99\n        /* \"#utility.yul\":659:664   */\n      dup2\n        /* \"#utility.yul\":641:665   */\n      tag_58\n      jump\t// in\n    tag_99:\n        /* \"#utility.yul\":634:639   */\n      dup2\n        /* \"#utility.yul\":631:666   */\n      eq\n        /* \"#utility.yul\":621:684   */\n      tag_100\n      jumpi\n        /* \"#utility.yul\":680:681   */\n      0x00\n        /* \"#utility.yul\":677:678   */\n      0x00\n        /* \"#utility.yul\":670:682   */\n      revert\n        /* \"#utility.yul\":621:684   */\n    tag_100:\n        /* \"#utility.yul\":568:690   */\n      pop\n      jump\t// out\n        /* \"#utility.yul\":696:835   */\n    tag_60:\n        /* \"#utility.yul\":742:747   */\n      0x00\n        /* \"#utility.yul\":780:786   */\n      dup2\n        /* \"#utility.yul\":767:787   */\n      calldataload\n        /* \"#utility.yul\":758:787   */\n      swap1\n      pop\n        /* \"#utility.yul\":796:829   */\n      tag_102\n        /* \"#utility.yul\":823:828   */\n      dup2\n        /* \"#utility.yul\":796:829   */\n      tag_59\n      jump\t// in\n    tag_102:\n        /* \"#utility.yul\":696:835   */\n      swap3\n      swap2\n      pop\n      pop\n      jump\t// out\n        /* \"#utility.yul\":841:918   */\n    tag_61:\n        /* \"#utility.yul\":878:885   */\n      0x00\n        /* \"#utility.yul\":907:912   */\n      dup2\n        /* \"#utility.yul\":896:912   */\n      swap1\n      pop\n        /* \"#utility.yul\":841:918   */\n      swap2\n      swap1\n      pop\n      jump\t// out\n        /* \"#utility.yul\":924:1046   */\n    tag_62:\n        /* \"#utility.yul\":997:1021   */\n      tag_105\n        /* \"#utility.yul\":1015:1020   */\n      dup2\n        /* \"#utility.yul\":997:1021   */\n      tag_61\n      jump\t// in\n    tag_105:\n        /* \"#utility.yul\":990:995   */\n      dup2\n        /* \"#utility.yul\":987:1022   */\n      eq\n        /* \"#utility.yul\":977:1040   */\n      tag_106\n      jumpi\n        /* \"#utility.yul\":1036:1037   */\n      0x00\n        /* \"#utility.yul\":1033:1034   */\n      0x00\n        /* \"#utility.yul\":1026:1038   */\n      revert\n        /* \"#utility.yul\":977:1040   */\n    tag_106:\n        /* \"#utility.yul\":924:1046   */\n      pop\n      jump\t// out\n        /* \"#utility.yul\":1052:1191   */\n    tag_63:\n        /* \"#utility.yul\":1098:1103   */\n      0x00\n        /* \"#utility.yul\":1136:1142   */\n      dup2\n        /* \"#utility.yul\":1123:1143   */\n      calldataload\n        /* \"#utility.yul\":1114:1143   */\n      swap1\n      pop\n        /* \"#utility.yul\":1152:1185   */\n      tag_108\n        /* \"#utility.yul\":1179:1184   */\n      dup2\n        /* \"#utility.yul\":1152:1185   */\n      tag_62\n      jump\t// in\n    tag_108:\n        /* \"#utility.yul\":1052:1191   */\n      swap3\n      swap2\n      pop\n      pop\n      jump\t// out\n        /* \"#utility.yul\":1197:1314   */\n    tag_64:\n        /* \"#utility.yul\":1306:1307   */\n      0x00\n        /* \"#utility.yul\":1303:1304   */\n      0x00\n        /* \"#utility.yul\":1296:1308   */\n      revert\n        /* \"#utility.yul\":1320:1437   */\n    tag_65:\n        /* \"#utility.yul\":1429:1430   */\n      0x00\n        /* \"#utility.yul\":1426:1427   */\n      0x00\n        /* \"#utility.yul\":1419:1431   */\n      revert\n        /* \"#utility.yul\":1443:1560   */\n    tag_66:\n        /* \"#utility.yul\":1552:1553   */\n      0x00\n        /* \"#utility.yul\":1549:1550   */\n      0x00\n        /* \"#utility.yul\":1542:1554   */\n      revert\n        /* \"#utility.yul\":1579:2131   */\n    tag_67:\n        /* \"#utility.yul\":1636:1644   */\n      0x00\n        /* \"#utility.yul\":1646:1652   */\n      0x00\n        /* \"#utility.yul\":1696:1699   */\n      dup4\n        /* \"#utility.yul\":1689:1693   */\n      0x1f\n        /* \"#utility.yul\":1681:1687   */\n      dup5\n        /* \"#utility.yul\":1677:1694   */\n      add\n        /* \"#utility.yul\":1673:1700   */\n      slt\n        /* \"#utility.yul\":1663:1785   */\n      tag_113\n      jumpi\n        /* \"#utility.yul\":1704:1783   */\n      tag_114\n      tag_64\n      jump\t// in\n    tag_114:\n        /* \"#utility.yul\":1663:1785   */\n    tag_113:\n        /* \"#utility.yul\":1817:1823   */\n      dup3\n        /* \"#utility.yul\":1804:1824   */\n      calldataload\n        /* \"#utility.yul\":1794:1824   */\n      swap1\n      pop\n        /* \"#utility.yul\":1847:1865   */\n      0xffffffffffffffff\n        /* \"#utility.yul\":1839:1845   */\n      dup2\n        /* \"#utility.yul\":1836:1866   */\n      gt\n        /* \"#utility.yul\":1833:1950   */\n      iszero\n      tag_115\n      jumpi\n        /* \"#utility.yul\":1869:1948   */\n      tag_116\n      tag_65\n      jump\t// in\n    tag_116:\n        /* \"#utility.yul\":1833:1950   */\n    tag_115:\n        /* \"#utility.yul\":1983:1987   */\n      0x20\n        /* \"#utility.yul\":1975:1981   */\n      dup4\n        /* \"#utility.yul\":1971:1988   */\n      add\n        /* \"#utility.yul\":1959:1988   */\n      swap2\n      pop\n        /* \"#utility.yul\":2037:2040   */\n      dup4\n        /* \"#utility.yul\":2029:2033   */\n      0x01\n        /* \"#utility.yul\":2021:2027   */\n      dup3\n        /* \"#utility.yul\":2017:2034   */\n      mul\n        /* \"#utility.yul\":2007:2015   */\n      dup4\n        /* \"#utility.yul\":2003:2035   */\n      add\n        /* \"#utility.yul\":2000:2041   */\n      gt\n        /* \"#utility.yul\":1997:2125   */\n      iszero\n      tag_117\n      jumpi\n        /* \"#utility.yul\":2044:2123   */\n      tag_118\n      tag_66\n      jump\t// in\n    tag_118:\n        /* \"#utility.yul\":1997:2125   */\n    tag_117:\n        /* \"#utility.yul\":1579:2131   */\n      swap3\n      pop\n      swap3\n      swap1\n      pop\n      jump\t// out\n        /* \"#utility.yul\":2137:3100   */\n    tag_7:\n        /* \"#utility.yul\":2234:2240   */\n      0x00\n        /* \"#utility.yul\":2242:2248   */\n      0x00\n        /* \"#utility.yul\":2250:2256   */\n      0x00\n        /* \"#utility.yul\":2258:2264   */\n      0x00\n        /* \"#utility.yul\":2266:2272   */\n      0x00\n        /* \"#utility.yul\":2315:2318   */\n      0x80\n        /* \"#utility.yul\":2303:2312   */\n      dup7\n        /* \"#utility.yul\":2294:2301   */\n      dup9\n        /* \"#utility.yul\":2290:2313   */\n      sub\n        /* \"#utility.yul\":2286:2319   */\n      slt\n        /* \"#utility.yul\":2283:2403   */\n      iszero\n      tag_120\n      jumpi\n        /* \"#utility.yul\":2322:2401   */\n      tag_121\n      tag_55\n      jump\t// in\n    tag_121:\n        /* \"#utility.yul\":2283:2403   */\n    tag_120:\n        /* \"#utility.yul\":2442:2443   */\n      0x00\n        /* \"#utility.yul\":2467:2520   */\n      tag_122\n        /* \"#utility.yul\":2512:2519   */\n      dup9\n        /* \"#utility.yul\":2503:2509   */\n      dup3\n        /* \"#utility.yul\":2492:2501   */\n      dup10\n        /* \"#utility.yul\":2488:2510   */\n      add\n        /* \"#utility.yul\":2467:2520   */\n      tag_60\n      jump\t// in\n    tag_122:\n        /* \"#utility.yul\":2457:2520   */\n      swap6\n      pop\n        /* \"#utility.yul\":2413:2530   */\n      pop\n        /* \"#utility.yul\":2569:2571   */\n      0x20\n        /* \"#utility.yul\":2595:2648   */\n      tag_123\n        /* \"#utility.yul\":2640:2647   */\n      dup9\n        /* \"#utility.yul\":2631:2637   */\n      dup3\n        /* \"#utility.yul\":2620:2629   */\n      dup10\n        /* \"#utility.yul\":2616:2638   */\n      add\n        /* \"#utility.yul\":2595:2648   */\n      tag_63\n      jump\t// in\n    tag_123:\n        /* \"#utility.yul\":2585:2648   */\n      swap5\n      pop\n        /* \"#utility.yul\":2540:2658   */\n      pop\n        /* \"#utility.yul\":2697:2699   */\n      0x40\n        /* \"#utility.yul\":2723:2776   */\n      tag_124\n        /* \"#utility.yul\":2768:2775   */\n      dup9\n        /* \"#utility.yul\":2759:2765   */\n      dup3\n        /* \"#utility.yul\":2748:2757   */\n      dup10\n        /* \"#utility.yul\":2744:2766   */\n      add\n        /* \"#utility.yul\":2723:2776   */\n      tag_63\n      jump\t// in\n    tag_124:\n        /* \"#utility.yul\":2713:2776   */\n      swap4\n      pop\n        /* \"#utility.yul\":2668:2786   */\n      pop\n        /* \"#utility.yul\":2853:2855   */\n      0x60\n        /* \"#utility.yul\":2842:2851   */\n      dup7\n        /* \"#utility.yul\":2838:2856   */\n      add\n        /* \"#utility.yul\":2825:2857   */\n      calldataload\n        /* \"#utility.yul\":2884:2902   */\n      0xffffffffffffffff\n        /* \"#utility.yul\":2876:2882   */\n      dup2\n        /* \"#utility.yul\":2873:2903   */\n      gt\n        /* \"#utility.yul\":2870:2987   */\n      iszero\n      tag_125\n      jumpi\n        /* \"#utility.yul\":2906:2985   */\n      tag_126\n      tag_56\n      jump\t// in\n    tag_126:\n        /* \"#utility.yul\":2870:2987   */\n    tag_125:\n        /* \"#utility.yul\":3019:3083   */\n      tag_127\n        /* \"#utility.yul\":3075:3082   */\n      dup9\n        /* \"#utility.yul\":3066:3072   */\n      dup3\n        /* \"#utility.yul\":3055:3064   */\n      dup10\n        /* \"#utility.yul\":3051:3073   */\n      add\n        /* \"#utility.yul\":3019:3083   */\n      tag_67\n      jump\t// in\n    tag_127:\n        /* \"#utility.yul\":3001:3083   */\n      swap3\n      pop\n      swap3\n      pop\n        /* \"#utility.yul\":2796:3093   */\n      pop\n        /* \"#utility.yul\":2137:3100   */\n      swap3\n      swap6\n      pop\n      swap3\n      swap6\n      swap1\n      swap4\n      pop\n      jump\t// out\n        /* \"#utility.yul\":3106:3435   */\n    tag_11:\n        /* \"#utility.yul\":3165:3171   */\n      0x00\n        /* \"#utility.yul\":3214:3216   */\n      0x20\n        /* \"#utility.yul\":3202:3211   */\n      dup3\n        /* \"#utility.yul\":3193:3200   */\n      dup5\n        /* \"#utility.yul\":3189:3212   */\n      sub\n        /* \"#utility.yul\":3185:3217   */\n      slt\n        /* \"#utility.yul\":3182:3301   */\n      iszero\n      tag_129\n      jumpi\n        /* \"#utility.yul\":3220:3299   */\n      tag_130\n      tag_55\n      jump\t// in\n    tag_130:\n        /* \"#utility.yul\":3182:3301   */\n    tag_129:\n        /* \"#utility.yul\":3340:3341   */\n      0x00\n        /* \"#utility.yul\":3365:3418   */\n      tag_131\n        /* \"#utility.yul\":3410:3417   */\n      dup5\n        /* \"#utility.yul\":3401:3407   */\n      dup3\n        /* \"#utility.yul\":3390:3399   */\n      dup6\n        /* \"#utility.yul\":3386:3408   */\n      add\n        /* \"#utility.yul\":3365:3418   */\n      tag_63\n      jump\t// in\n    tag_131:\n        /* \"#utility.yul\":3355:3418   */\n      swap2\n      pop\n        /* \"#utility.yul\":3311:3428   */\n      pop\n        /* \"#utility.yul\":3106:3435   */\n      swap3\n      swap2\n      pop\n      pop\n      jump\t// out\n        /* \"#utility.yul\":3441:3584   */\n    tag_68:\n        /* \"#utility.yul\":3498:3503   */\n      0x00\n        /* \"#utility.yul\":3529:3535   */\n      dup2\n        /* \"#utility.yul\":3523:3536   */\n      mload\n        /* \"#utility.yul\":3514:3536   */\n      swap1\n      pop\n        /* \"#utility.yul\":3545:3578   */\n      tag_133\n        /* \"#utility.yul\":3572:3577   */\n      dup2\n        /* \"#utility.yul\":3545:3578   */\n      tag_59\n      jump\t// in\n    tag_133:\n        /* \"#utility.yul\":3441:3584   */\n      swap3\n      swap2\n      pop\n      pop\n      jump\t// out\n        /* \"#utility.yul\":3590:3941   */\n    tag_17:\n        /* \"#utility.yul\":3660:3666   */\n      0x00\n        /* \"#utility.yul\":3709:3711   */\n      0x20\n        /* \"#utility.yul\":3697:3706   */\n      dup3\n        /* \"#utility.yul\":3688:3695   */\n      dup5\n        /* \"#utility.yul\":3684:3707   */\n      sub\n        /* \"#utility.yul\":3680:3712   */\n      slt\n        /* \"#utility.yul\":3677:3796   */\n      iszero\n      tag_135\n      jumpi\n        /* \"#utility.yul\":3715:3794   */\n      tag_136\n      tag_55\n      jump\t// in\n    tag_136:\n        /* \"#utility.yul\":3677:3796   */\n    tag_135:\n        /* \"#utility.yul\":3835:3836   */\n      0x00\n        /* \"#utility.yul\":3860:3924   */\n      tag_137\n        /* \"#utility.yul\":3916:3923   */\n      dup5\n        /* \"#utility.yul\":3907:3913   */\n      dup3\n        /* \"#utility.yul\":3896:3905   */\n      dup6\n        /* \"#utility.yul\":3892:3914   */\n      add\n        /* \"#utility.yul\":3860:3924   */\n      tag_68\n      jump\t// in\n    tag_137:\n        /* \"#utility.yul\":3850:3924   */\n      swap2\n      pop\n        /* \"#utility.yul\":3806:3934   */\n      pop\n        /* \"#utility.yul\":3590:3941   */\n      swap3\n      swap2\n      pop\n      pop\n      jump\t// out\n        /* \"#utility.yul\":3947:4065   */\n    tag_69:\n        /* \"#utility.yul\":4034:4058   */\n      tag_139\n        /* \"#utility.yul\":4052:4057   */\n      dup2\n        /* \"#utility.yul\":4034:4058   */\n      tag_58\n      jump\t// in\n    tag_139:\n        /* \"#utility.yul\":4029:4032   */\n      dup3\n        /* \"#utility.yul\":4022:4059   */\n      mstore\n        /* \"#utility.yul\":3947:4065   */\n      pop\n      pop\n      jump\t// out\n        /* \"#utility.yul\":4071:4403   */\n    tag_22:\n        /* \"#utility.yul\":4192:4196   */\n      0x00\n        /* \"#utility.yul\":4230:4232   */\n      0x40\n        /* \"#utility.yul\":4219:4228   */\n      dup3\n        /* \"#utility.yul\":4215:4233   */\n      add\n        /* \"#utility.yul\":4207:4233   */\n      swap1\n      pop\n        /* \"#utility.yul\":4243:4314   */\n      tag_141\n        /* \"#utility.yul\":4311:4312   */\n      0x00\n        /* \"#utility.yul\":4300:4309   */\n      dup4\n        /* \"#utility.yul\":4296:4313   */\n      add\n        /* \"#utility.yul\":4287:4293   */\n      dup6\n        /* \"#utility.yul\":4243:4314   */\n      tag_69\n      jump\t// in\n    tag_141:\n        /* \"#utility.yul\":4324:4396   */\n      tag_142\n        /* \"#utility.yul\":4392:4394   */\n      0x20\n        /* \"#utility.yul\":4381:4390   */\n      dup4\n        /* \"#utility.yul\":4377:4395   */\n      add\n        /* \"#utility.yul\":4368:4374   */\n      dup5\n        /* \"#utility.yul\":4324:4396   */\n      tag_69\n      jump\t// in\n    tag_142:\n        /* \"#utility.yul\":4071:4403   */\n      swap4\n      swap3\n      pop\n      pop\n      pop\n      jump\t// out\n        /* \"#utility.yul\":4409:4589   */\n    tag_28:\n        /* \"#utility.yul\":4457:4534   */\n      0x4e487b7100000000000000000000000000000000000000000000000000000000\n        /* \"#utility.yul\":4454:4455   */\n      0x00\n        /* \"#utility.yul\":4447:4535   */\n      mstore\n        /* \"#utility.yul\":4554:4558   */\n      0x01\n        /* \"#utility.yul\":4551:4552   */\n      0x04\n        /* \"#utility.yul\":4544:4559   */\n      mstore\n        /* \"#utility.yul\":4578:4582   */\n      0x24\n        /* \"#utility.yul\":4575:4576   */\n      0x00\n        /* \"#utility.yul\":4568:4583   */\n      revert\n        /* \"#utility.yul\":4595:4699   */\n    tag_70:\n        /* \"#utility.yul\":4640:4647   */\n      0x00\n        /* \"#utility.yul\":4669:4693   */\n      tag_145\n        /* \"#utility.yul\":4687:4692   */\n      dup3\n        /* \"#utility.yul\":4669:4693   */\n      tag_57\n      jump\t// in\n    tag_145:\n        /* \"#utility.yul\":4658:4693   */\n      swap1\n      pop\n        /* \"#utility.yul\":4595:4699   */\n      swap2\n      swap1\n      pop\n      jump\t// out\n        /* \"#utility.yul\":4705:4843   */\n    tag_71:\n        /* \"#utility.yul\":4786:4818   */\n      tag_147\n        /* \"#utility.yul\":4812:4817   */\n      dup2\n        /* \"#utility.yul\":4786:4818   */\n      tag_70\n      jump\t// in\n    tag_147:\n        /* \"#utility.yul\":4779:4784   */\n      dup2\n        /* \"#utility.yul\":4776:4819   */\n      eq\n        /* \"#utility.yul\":4766:4837   */\n      tag_148\n      jumpi\n        /* \"#utility.yul\":4833:4834   */\n      0x00\n        /* \"#utility.yul\":4830:4831   */\n      0x00\n        /* \"#utility.yul\":4823:4835   */\n      revert\n        /* \"#utility.yul\":4766:4837   */\n    tag_148:\n        /* \"#utility.yul\":4705:4843   */\n      pop\n      jump\t// out\n        /* \"#utility.yul\":4849:5004   */\n    tag_72:\n        /* \"#utility.yul\":4903:4908   */\n      0x00\n        /* \"#utility.yul\":4941:4947   */\n      dup2\n        /* \"#utility.yul\":4928:4948   */\n      calldataload\n        /* \"#utility.yul\":4919:4948   */\n      swap1\n      pop\n        /* \"#utility.yul\":4957:4998   */\n      tag_150\n        /* \"#utility.yul\":4992:4997   */\n      dup2\n        /* \"#utility.yul\":4957:4998   */\n      tag_71\n      jump\t// in\n    tag_150:\n        /* \"#utility.yul\":4849:5004   */\n      swap3\n      swap2\n      pop\n      pop\n      jump\t// out\n        /* \"#utility.yul\":5010:5500   */\n    tag_30:\n        /* \"#utility.yul\":5086:5092   */\n      0x00\n        /* \"#utility.yul\":5094:5100   */\n      0x00\n        /* \"#utility.yul\":5143:5145   */\n      0x40\n        /* \"#utility.yul\":5131:5140   */\n      dup4\n        /* \"#utility.yul\":5122:5129   */\n      dup6\n        /* \"#utility.yul\":5118:5141   */\n      sub\n        /* \"#utility.yul\":5114:5146   */\n      slt\n        /* \"#utility.yul\":5111:5230   */\n      iszero\n      tag_152\n      jumpi\n        /* \"#utility.yul\":5149:5228   */\n      tag_153\n      tag_55\n      jump\t// in\n    tag_153:\n        /* \"#utility.yul\":5111:5230   */\n    tag_152:\n        /* \"#utility.yul\":5269:5270   */\n      0x00\n        /* \"#utility.yul\":5294:5355   */\n      tag_154\n        /* \"#utility.yul\":5347:5354   */\n      dup6\n        /* \"#utility.yul\":5338:5344   */\n      dup3\n        /* \"#utility.yul\":5327:5336   */\n      dup7\n        /* \"#utility.yul\":5323:5345   */\n      add\n        /* \"#utility.yul\":5294:5355   */\n      tag_72\n      jump\t// in\n    tag_154:\n        /* \"#utility.yul\":5284:5355   */\n      swap3\n      pop\n        /* \"#utility.yul\":5240:5365   */\n      pop\n        /* \"#utility.yul\":5404:5406   */\n      0x20\n        /* \"#utility.yul\":5430:5483   */\n      tag_155\n        /* \"#utility.yul\":5475:5482   */\n      dup6\n        /* \"#utility.yul\":5466:5472   */\n      dup3\n        /* \"#utility.yul\":5455:5464   */\n      dup7\n        /* \"#utility.yul\":5451:5473   */\n      add\n        /* \"#utility.yul\":5430:5483   */\n      tag_63\n      jump\t// in\n    tag_155:\n        /* \"#utility.yul\":5420:5483   */\n      swap2\n      pop\n        /* \"#utility.yul\":5375:5493   */\n      pop\n        /* \"#utility.yul\":5010:5500   */\n      swap3\n      pop\n      swap3\n      swap1\n      pop\n      jump\t// out\n        /* \"#utility.yul\":5506:5675   */\n    tag_73:\n        /* \"#utility.yul\":5590:5601   */\n      0x00\n        /* \"#utility.yul\":5624:5630   */\n      dup3\n        /* \"#utility.yul\":5619:5622   */\n      dup3\n        /* \"#utility.yul\":5612:5631   */\n      mstore\n        /* \"#utility.yul\":5664:5668   */\n      0x20\n        /* \"#utility.yul\":5659:5662   */\n      dup3\n        /* \"#utility.yul\":5655:5669   */\n      add\n        /* \"#utility.yul\":5640:5669   */\n      swap1\n      pop\n        /* \"#utility.yul\":5506:5675   */\n      swap3\n      swap2\n      pop\n      pop\n      jump\t// out\n        /* \"#utility.yul\":5681:5851   */\n    tag_74:\n        /* \"#utility.yul\":5821:5843   */\n      0x746f6b656e20626f72726f7720213d2057455448000000000000000000000000\n        /* \"#utility.yul\":5817:5818   */\n      0x00\n        /* \"#utility.yul\":5809:5815   */\n      dup3\n        /* \"#utility.yul\":5805:5819   */\n      add\n        /* \"#utility.yul\":5798:5844   */\n      mstore\n        /* \"#utility.yul\":5681:5851   */\n      pop\n      jump\t// out\n        /* \"#utility.yul\":5857:6223   */\n    tag_75:\n        /* \"#utility.yul\":5999:6002   */\n      0x00\n        /* \"#utility.yul\":6020:6087   */\n      tag_159\n        /* \"#utility.yul\":6084:6086   */\n      0x14\n        /* \"#utility.yul\":6079:6082   */\n      dup4\n        /* \"#utility.yul\":6020:6087   */\n      tag_73\n      jump\t// in\n    tag_159:\n        /* \"#utility.yul\":6013:6087   */\n      swap2\n      pop\n        /* \"#utility.yul\":6096:6189   */\n      tag_160\n        /* \"#utility.yul\":6185:6188   */\n      dup3\n        /* \"#utility.yul\":6096:6189   */\n      tag_74\n      jump\t// in\n    tag_160:\n        /* \"#utility.yul\":6214:6216   */\n      0x20\n        /* \"#utility.yul\":6209:6212   */\n      dup3\n        /* \"#utility.yul\":6205:6217   */\n      add\n        /* \"#utility.yul\":6198:6217   */\n      swap1\n      pop\n        /* \"#utility.yul\":5857:6223   */\n      swap2\n      swap1\n      pop\n      jump\t// out\n        /* \"#utility.yul\":6229:6648   */\n    tag_33:\n        /* \"#utility.yul\":6395:6399   */\n      0x00\n        /* \"#utility.yul\":6433:6435   */\n      0x20\n        /* \"#utility.yul\":6422:6431   */\n      dup3\n        /* \"#utility.yul\":6418:6436   */\n      add\n        /* \"#utility.yul\":6410:6436   */\n      swap1\n      pop\n        /* \"#utility.yul\":6482:6491   */\n      dup2\n        /* \"#utility.yul\":6476:6480   */\n      dup2\n        /* \"#utility.yul\":6472:6492   */\n      sub\n        /* \"#utility.yul\":6468:6469   */\n      0x00\n        /* \"#utility.yul\":6457:6466   */\n      dup4\n        /* \"#utility.yul\":6453:6470   */\n      add\n        /* \"#utility.yul\":6446:6493   */\n      mstore\n        /* \"#utility.yul\":6510:6641   */\n      tag_162\n        /* \"#utility.yul\":6636:6640   */\n      dup2\n        /* \"#utility.yul\":6510:6641   */\n      tag_75\n      jump\t// in\n    tag_162:\n        /* \"#utility.yul\":6502:6641   */\n      swap1\n      pop\n        /* \"#utility.yul\":6229:6648   */\n      swap2\n      swap1\n      pop\n      jump\t// out\n        /* \"#utility.yul\":6654:6834   */\n    tag_76:\n        /* \"#utility.yul\":6702:6779   */\n      0x4e487b7100000000000000000000000000000000000000000000000000000000\n        /* \"#utility.yul\":6699:6700   */\n      0x00\n        /* \"#utility.yul\":6692:6780   */\n      mstore\n        /* \"#utility.yul\":6799:6803   */\n      0x11\n        /* \"#utility.yul\":6796:6797   */\n      0x04\n        /* \"#utility.yul\":6789:6804   */\n      mstore\n        /* \"#utility.yul\":6823:6827   */\n      0x24\n        /* \"#utility.yul\":6820:6821   */\n      0x00\n        /* \"#utility.yul\":6813:6828   */\n      revert\n        /* \"#utility.yul\":6840:7250   */\n    tag_35:\n        /* \"#utility.yul\":6880:6887   */\n      0x00\n        /* \"#utility.yul\":6903:6923   */\n      tag_165\n        /* \"#utility.yul\":6921:6922   */\n      dup3\n        /* \"#utility.yul\":6903:6923   */\n      tag_61\n      jump\t// in\n    tag_165:\n        /* \"#utility.yul\":6898:6923   */\n      swap2\n      pop\n        /* \"#utility.yul\":6937:6957   */\n      tag_166\n        /* \"#utility.yul\":6955:6956   */\n      dup4\n        /* \"#utility.yul\":6937:6957   */\n      tag_61\n      jump\t// in\n    tag_166:\n        /* \"#utility.yul\":6932:6957   */\n      swap3\n      pop\n        /* \"#utility.yul\":6992:6993   */\n      dup3\n        /* \"#utility.yul\":6989:6990   */\n      dup3\n        /* \"#utility.yul\":6985:6994   */\n      mul\n        /* \"#utility.yul\":7014:7044   */\n      tag_167\n        /* \"#utility.yul\":7032:7043   */\n      dup2\n        /* \"#utility.yul\":7014:7044   */\n      tag_61\n      jump\t// in\n    tag_167:\n        /* \"#utility.yul\":7003:7044   */\n      swap2\n      pop\n        /* \"#utility.yul\":7193:7194   */\n      dup3\n        /* \"#utility.yul\":7184:7191   */\n      dup3\n        /* \"#utility.yul\":7180:7195   */\n      div\n        /* \"#utility.yul\":7177:7178   */\n      dup5\n        /* \"#utility.yul\":7174:7196   */\n      eq\n        /* \"#utility.yul\":7154:7155   */\n      dup4\n        /* \"#utility.yul\":7147:7156   */\n      iszero\n        /* \"#utility.yul\":7127:7210   */\n      or\n        /* \"#utility.yul\":7104:7243   */\n      tag_168\n      jumpi\n        /* \"#utility.yul\":7223:7241   */\n      tag_169\n      tag_76\n      jump\t// in\n    tag_169:\n        /* \"#utility.yul\":7104:7243   */\n    tag_168:\n        /* \"#utility.yul\":6888:7250   */\n      pop\n        /* \"#utility.yul\":6840:7250   */\n      swap3\n      swap2\n      pop\n      pop\n      jump\t// out\n        /* \"#utility.yul\":7256:7436   */\n    tag_77:\n        /* \"#utility.yul\":7304:7381   */\n      0x4e487b7100000000000000000000000000000000000000000000000000000000\n        /* \"#utility.yul\":7301:7302   */\n      0x00\n        /* \"#utility.yul\":7294:7382   */\n      mstore\n        /* \"#utility.yul\":7401:7405   */\n      0x12\n        /* \"#utility.yul\":7398:7399   */\n      0x04\n        /* \"#utility.yul\":7391:7406   */\n      mstore\n        /* \"#utility.yul\":7425:7429   */\n      0x24\n        /* \"#utility.yul\":7422:7423   */\n      0x00\n        /* \"#utility.yul\":7415:7430   */\n      revert\n        /* \"#utility.yul\":7442:7627   */\n    tag_37:\n        /* \"#utility.yul\":7482:7483   */\n      0x00\n        /* \"#utility.yul\":7499:7519   */\n      tag_172\n        /* \"#utility.yul\":7517:7518   */\n      dup3\n        /* \"#utility.yul\":7499:7519   */\n      tag_61\n      jump\t// in\n    tag_172:\n        /* \"#utility.yul\":7494:7519   */\n      swap2\n      pop\n        /* \"#utility.yul\":7533:7553   */\n      tag_173\n        /* \"#utility.yul\":7551:7552   */\n      dup4\n        /* \"#utility.yul\":7533:7553   */\n      tag_61\n      jump\t// in\n    tag_173:\n        /* \"#utility.yul\":7528:7553   */\n      swap3\n      pop\n        /* \"#utility.yul\":7572:7573   */\n      dup3\n        /* \"#utility.yul\":7562:7597   */\n      tag_174\n      jumpi\n        /* \"#utility.yul\":7577:7595   */\n      tag_175\n      tag_77\n      jump\t// in\n    tag_175:\n        /* \"#utility.yul\":7562:7597   */\n    tag_174:\n        /* \"#utility.yul\":7619:7620   */\n      dup3\n        /* \"#utility.yul\":7616:7617   */\n      dup3\n        /* \"#utility.yul\":7612:7621   */\n      div\n        /* \"#utility.yul\":7607:7621   */\n      swap1\n      pop\n        /* \"#utility.yul\":7442:7627   */\n      swap3\n      swap2\n      pop\n      pop\n      jump\t// out\n        /* \"#utility.yul\":7633:7824   */\n    tag_39:\n        /* \"#utility.yul\":7673:7676   */\n      0x00\n        /* \"#utility.yul\":7692:7712   */\n      tag_177\n        /* \"#utility.yul\":7710:7711   */\n      dup3\n        /* \"#utility.yul\":7692:7712   */\n      tag_61\n      jump\t// in\n    tag_177:\n        /* \"#utility.yul\":7687:7712   */\n      swap2\n      pop\n        /* \"#utility.yul\":7726:7746   */\n      tag_178\n        /* \"#utility.yul\":7744:7745   */\n      dup4\n        /* \"#utility.yul\":7726:7746   */\n      tag_61\n      jump\t// in\n    tag_178:\n        /* \"#utility.yul\":7721:7746   */\n      swap3\n      pop\n        /* \"#utility.yul\":7769:7770   */\n      dup3\n        /* \"#utility.yul\":7766:7767   */\n      dup3\n        /* \"#utility.yul\":7762:7771   */\n      add\n        /* \"#utility.yul\":7755:7771   */\n      swap1\n      pop\n        /* \"#utility.yul\":7790:7793   */\n      dup1\n        /* \"#utility.yul\":7787:7788   */\n      dup3\n        /* \"#utility.yul\":7784:7794   */\n      gt\n        /* \"#utility.yul\":7781:7817   */\n      iszero\n      tag_179\n      jumpi\n        /* \"#utility.yul\":7797:7815   */\n      tag_180\n      tag_76\n      jump\t// in\n    tag_180:\n        /* \"#utility.yul\":7781:7817   */\n    tag_179:\n        /* \"#utility.yul\":7633:7824   */\n      swap3\n      swap2\n      pop\n      pop\n      jump\t// out\n        /* \"#utility.yul\":7830:7948   */\n    tag_78:\n        /* \"#utility.yul\":7917:7941   */\n      tag_182\n        /* \"#utility.yul\":7935:7940   */\n      dup2\n        /* \"#utility.yul\":7917:7941   */\n      tag_61\n      jump\t// in\n    tag_182:\n        /* \"#utility.yul\":7912:7915   */\n      dup3\n        /* \"#utility.yul\":7905:7942   */\n      mstore\n        /* \"#utility.yul\":7830:7948   */\n      pop\n      pop\n      jump\t// out\n        /* \"#utility.yul\":7954:8286   */\n    tag_42:\n        /* \"#utility.yul\":8075:8079   */\n      0x00\n        /* \"#utility.yul\":8113:8115   */\n      0x40\n        /* \"#utility.yul\":8102:8111   */\n      dup3\n        /* \"#utility.yul\":8098:8116   */\n      add\n        /* \"#utility.yul\":8090:8116   */\n      swap1\n      pop\n        /* \"#utility.yul\":8126:8197   */\n      tag_184\n        /* \"#utility.yul\":8194:8195   */\n      0x00\n        /* \"#utility.yul\":8183:8192   */\n      dup4\n        /* \"#utility.yul\":8179:8196   */\n      add\n        /* \"#utility.yul\":8170:8176   */\n      dup6\n        /* \"#utility.yul\":8126:8197   */\n      tag_69\n      jump\t// in\n    tag_184:\n        /* \"#utility.yul\":8207:8279   */\n      tag_185\n        /* \"#utility.yul\":8275:8277   */\n      0x20\n        /* \"#utility.yul\":8264:8273   */\n      dup4\n        /* \"#utility.yul\":8260:8278   */\n      add\n        /* \"#utility.yul\":8251:8257   */\n      dup5\n        /* \"#utility.yul\":8207:8279   */\n      tag_78\n      jump\t// in\n    tag_185:\n        /* \"#utility.yul\":7954:8286   */\n      swap4\n      swap3\n      pop\n      pop\n      pop\n      jump\t// out\n        /* \"#utility.yul\":8292:8382   */\n    tag_79:\n        /* \"#utility.yul\":8326:8333   */\n      0x00\n        /* \"#utility.yul\":8369:8374   */\n      dup2\n        /* \"#utility.yul\":8362:8375   */\n      iszero\n        /* \"#utility.yul\":8355:8376   */\n      iszero\n        /* \"#utility.yul\":8344:8376   */\n      swap1\n      pop\n        /* \"#utility.yul\":8292:8382   */\n      swap2\n      swap1\n      pop\n      jump\t// out\n        /* \"#utility.yul\":8388:8504   */\n    tag_80:\n        /* \"#utility.yul\":8458:8479   */\n      tag_188\n        /* \"#utility.yul\":8473:8478   */\n      dup2\n        /* \"#utility.yul\":8458:8479   */\n      tag_79\n      jump\t// in\n    tag_188:\n        /* \"#utility.yul\":8451:8456   */\n      dup2\n        /* \"#utility.yul\":8448:8480   */\n      eq\n        /* \"#utility.yul\":8438:8498   */\n      tag_189\n      jumpi\n        /* \"#utility.yul\":8494:8495   */\n      0x00\n        /* \"#utility.yul\":8491:8492   */\n      0x00\n        /* \"#utility.yul\":8484:8496   */\n      revert\n        /* \"#utility.yul\":8438:8498   */\n    tag_189:\n        /* \"#utility.yul\":8388:8504   */\n      pop\n      jump\t// out\n        /* \"#utility.yul\":8510:8647   */\n    tag_81:\n        /* \"#utility.yul\":8564:8569   */\n      0x00\n        /* \"#utility.yul\":8595:8601   */\n      dup2\n        /* \"#utility.yul\":8589:8602   */\n      mload\n        /* \"#utility.yul\":8580:8602   */\n      swap1\n      pop\n        /* \"#utility.yul\":8611:8641   */\n      tag_191\n        /* \"#utility.yul\":8635:8640   */\n      dup2\n        /* \"#utility.yul\":8611:8641   */\n      tag_80\n      jump\t// in\n    tag_191:\n        /* \"#utility.yul\":8510:8647   */\n      swap3\n      swap2\n      pop\n      pop\n      jump\t// out\n        /* \"#utility.yul\":8653:8998   */\n    tag_46:\n        /* \"#utility.yul\":8720:8726   */\n      0x00\n        /* \"#utility.yul\":8769:8771   */\n      0x20\n        /* \"#utility.yul\":8757:8766   */\n      dup3\n        /* \"#utility.yul\":8748:8755   */\n      dup5\n        /* \"#utility.yul\":8744:8767   */\n      sub\n        /* \"#utility.yul\":8740:8772   */\n      slt\n        /* \"#utility.yul\":8737:8856   */\n      iszero\n      tag_193\n      jumpi\n        /* \"#utility.yul\":8775:8854   */\n      tag_194\n      tag_55\n      jump\t// in\n    tag_194:\n        /* \"#utility.yul\":8737:8856   */\n    tag_193:\n        /* \"#utility.yul\":8895:8896   */\n      0x00\n        /* \"#utility.yul\":8920:8981   */\n      tag_195\n        /* \"#utility.yul\":8973:8980   */\n      dup5\n        /* \"#utility.yul\":8964:8970   */\n      dup3\n        /* \"#utility.yul\":8953:8962   */\n      dup6\n        /* \"#utility.yul\":8949:8971   */\n      add\n        /* \"#utility.yul\":8920:8981   */\n      tag_81\n      jump\t// in\n    tag_195:\n        /* \"#utility.yul\":8910:8981   */\n      swap2\n      pop\n        /* \"#utility.yul\":8866:8991   */\n      pop\n        /* \"#utility.yul\":8653:8998   */\n      swap3\n      swap2\n      pop\n      pop\n      jump\t// out\n        /* \"#utility.yul\":9004:9089   */\n    tag_82:\n        /* \"#utility.yul\":9049:9056   */\n      0x00\n        /* \"#utility.yul\":9078:9083   */\n      dup2\n        /* \"#utility.yul\":9067:9083   */\n      swap1\n      pop\n        /* \"#utility.yul\":9004:9089   */\n      swap2\n      swap1\n      pop\n      jump\t// out\n        /* \"#utility.yul\":9095:9155   */\n    tag_83:\n        /* \"#utility.yul\":9123:9126   */\n      0x00\n        /* \"#utility.yul\":9144:9149   */\n      dup2\n        /* \"#utility.yul\":9137:9149   */\n      swap1\n      pop\n        /* \"#utility.yul\":9095:9155   */\n      swap2\n      swap1\n      pop\n      jump\t// out\n        /* \"#utility.yul\":9161:9319   */\n    tag_84:\n        /* \"#utility.yul\":9219:9228   */\n      0x00\n        /* \"#utility.yul\":9252:9313   */\n      tag_199\n        /* \"#utility.yul\":9270:9312   */\n      tag_200\n        /* \"#utility.yul\":9279:9311   */\n      tag_201\n        /* \"#utility.yul\":9305:9310   */\n      dup5\n        /* \"#utility.yul\":9279:9311   */\n      tag_82\n      jump\t// in\n    tag_201:\n        /* \"#utility.yul\":9270:9312   */\n      tag_83\n      jump\t// in\n    tag_200:\n        /* \"#utility.yul\":9252:9313   */\n      tag_61\n      jump\t// in\n    tag_199:\n        /* \"#utility.yul\":9239:9313   */\n      swap1\n      pop\n        /* \"#utility.yul\":9161:9319   */\n      swap2\n      swap1\n      pop\n      jump\t// out\n        /* \"#utility.yul\":9325:9472   */\n    tag_85:\n        /* \"#utility.yul\":9420:9465   */\n      tag_203\n        /* \"#utility.yul\":9459:9464   */\n      dup2\n        /* \"#utility.yul\":9420:9465   */\n      tag_84\n      jump\t// in\n    tag_203:\n        /* \"#utility.yul\":9415:9418   */\n      dup3\n        /* \"#utility.yul\":9408:9466   */\n      mstore\n        /* \"#utility.yul\":9325:9472   */\n      pop\n      pop\n      jump\t// out\n        /* \"#utility.yul\":9478:9576   */\n    tag_86:\n        /* \"#utility.yul\":9529:9535   */\n      0x00\n        /* \"#utility.yul\":9563:9568   */\n      dup2\n        /* \"#utility.yul\":9557:9569   */\n      mload\n        /* \"#utility.yul\":9547:9569   */\n      swap1\n      pop\n        /* \"#utility.yul\":9478:9576   */\n      swap2\n      swap1\n      pop\n      jump\t// out\n        /* \"#utility.yul\":9582:9750   */\n    tag_87:\n        /* \"#utility.yul\":9665:9676   */\n      0x00\n        /* \"#utility.yul\":9699:9705   */\n      dup3\n        /* \"#utility.yul\":9694:9697   */\n      dup3\n        /* \"#utility.yul\":9687:9706   */\n      mstore\n        /* \"#utility.yul\":9739:9743   */\n      0x20\n        /* \"#utility.yul\":9734:9737   */\n      dup3\n        /* \"#utility.yul\":9730:9744   */\n      add\n        /* \"#utility.yul\":9715:9744   */\n      swap1\n      pop\n        /* \"#utility.yul\":9582:9750   */\n      swap3\n      swap2\n      pop\n      pop\n      jump\t// out\n        /* \"#utility.yul\":9756:9895   */\n    tag_88:\n        /* \"#utility.yul\":9845:9851   */\n      dup3\n        /* \"#utility.yul\":9840:9843   */\n      dup2\n        /* \"#utility.yul\":9835:9838   */\n      dup4\n        /* \"#utility.yul\":9829:9852   */\n      mcopy\n        /* \"#utility.yul\":9886:9887   */\n      0x00\n        /* \"#utility.yul\":9877:9883   */\n      dup4\n        /* \"#utility.yul\":9872:9875   */\n      dup4\n        /* \"#utility.yul\":9868:9884   */\n      add\n        /* \"#utility.yul\":9861:9888   */\n      mstore\n        /* \"#utility.yul\":9756:9895   */\n      pop\n      pop\n      pop\n      jump\t// out\n        /* \"#utility.yul\":9901:10003   */\n    tag_89:\n        /* \"#utility.yul\":9942:9948   */\n      0x00\n        /* \"#utility.yul\":9993:9995   */\n      0x1f\n        /* \"#utility.yul\":9989:9996   */\n      not\n        /* \"#utility.yul\":9984:9986   */\n      0x1f\n        /* \"#utility.yul\":9977:9982   */\n      dup4\n        /* \"#utility.yul\":9973:9987   */\n      add\n        /* \"#utility.yul\":9969:9997   */\n      and\n        /* \"#utility.yul\":9959:9997   */\n      swap1\n      pop\n        /* \"#utility.yul\":9901:10003   */\n      swap2\n      swap1\n      pop\n      jump\t// out\n        /* \"#utility.yul\":10009:10382   */\n    tag_90:\n        /* \"#utility.yul\":10095:10098   */\n      0x00\n        /* \"#utility.yul\":10123:10161   */\n      tag_209\n        /* \"#utility.yul\":10155:10160   */\n      dup3\n        /* \"#utility.yul\":10123:10161   */\n      tag_86\n      jump\t// in\n    tag_209:\n        /* \"#utility.yul\":10177:10247   */\n      tag_210\n        /* \"#utility.yul\":10240:10246   */\n      dup2\n        /* \"#utility.yul\":10235:10238   */\n      dup6\n        /* \"#utility.yul\":10177:10247   */\n      tag_87\n      jump\t// in\n    tag_210:\n        /* \"#utility.yul\":10170:10247   */\n      swap4\n      pop\n        /* \"#utility.yul\":10256:10321   */\n      tag_211\n        /* \"#utility.yul\":10314:10320   */\n      dup2\n        /* \"#utility.yul\":10309:10312   */\n      dup6\n        /* \"#utility.yul\":10302:10306   */\n      0x20\n        /* \"#utility.yul\":10295:10300   */\n      dup7\n        /* \"#utility.yul\":10291:10307   */\n      add\n        /* \"#utility.yul\":10256:10321   */\n      tag_88\n      jump\t// in\n    tag_211:\n        /* \"#utility.yul\":10346:10375   */\n      tag_212\n        /* \"#utility.yul\":10368:10374   */\n      dup2\n        /* \"#utility.yul\":10346:10375   */\n      tag_89\n      jump\t// in\n    tag_212:\n        /* \"#utility.yul\":10341:10344   */\n      dup5\n        /* \"#utility.yul\":10337:10376   */\n      add\n        /* \"#utility.yul\":10330:10376   */\n      swap2\n      pop\n        /* \"#utility.yul\":10099:10382   */\n      pop\n        /* \"#utility.yul\":10009:10382   */\n      swap3\n      swap2\n      pop\n      pop\n      jump\t// out\n        /* \"#utility.yul\":10388:11044   */\n    tag_50:\n        /* \"#utility.yul\":10591:10595   */\n      0x00\n        /* \"#utility.yul\":10629:10632   */\n      0x80\n        /* \"#utility.yul\":10618:10627   */\n      dup3\n        /* \"#utility.yul\":10614:10633   */\n      add\n        /* \"#utility.yul\":10606:10633   */\n      swap1\n      pop\n        /* \"#utility.yul\":10643:10722   */\n      tag_214\n        /* \"#utility.yul\":10719:10720   */\n      0x00\n        /* \"#utility.yul\":10708:10717   */\n      dup4\n        /* \"#utility.yul\":10704:10721   */\n      add\n        /* \"#utility.yul\":10695:10701   */\n      dup8\n        /* \"#utility.yul\":10643:10722   */\n      tag_85\n      jump\t// in\n    tag_214:\n        /* \"#utility.yul\":10732:10804   */\n      tag_215\n        /* \"#utility.yul\":10800:10802   */\n      0x20\n        /* \"#utility.yul\":10789:10798   */\n      dup4\n        /* \"#utility.yul\":10785:10803   */\n      add\n        /* \"#utility.yul\":10776:10782   */\n      dup7\n        /* \"#utility.yul\":10732:10804   */\n      tag_78\n      jump\t// in\n    tag_215:\n        /* \"#utility.yul\":10814:10886   */\n      tag_216\n        /* \"#utility.yul\":10882:10884   */\n      0x40\n        /* \"#utility.yul\":10871:10880   */\n      dup4\n        /* \"#utility.yul\":10867:10885   */\n      add\n        /* \"#utility.yul\":10858:10864   */\n      dup6\n        /* \"#utility.yul\":10814:10886   */\n      tag_69\n      jump\t// in\n    tag_216:\n        /* \"#utility.yul\":10933:10942   */\n      dup2\n        /* \"#utility.yul\":10927:10931   */\n      dup2\n        /* \"#utility.yul\":10923:10943   */\n      sub\n        /* \"#utility.yul\":10918:10920   */\n      0x60\n        /* \"#utility.yul\":10907:10916   */\n      dup4\n        /* \"#utility.yul\":10903:10921   */\n      add\n        /* \"#utility.yul\":10896:10944   */\n      mstore\n        /* \"#utility.yul\":10961:11037   */\n      tag_217\n        /* \"#utility.yul\":11032:11036   */\n      dup2\n        /* \"#utility.yul\":11023:11029   */\n      dup5\n        /* \"#utility.yul\":10961:11037   */\n      tag_90\n      jump\t// in\n    tag_217:\n        /* \"#utility.yul\":10953:11037   */\n      swap1\n      pop\n        /* \"#utility.yul\":10388:11044   */\n      swap6\n      swap5\n      pop\n      pop\n      pop\n      pop\n      pop\n      jump\t// out\n\n    auxdata: 0xa26469706673582212204c805611ed77609145acfeed51d448832486f85f8e06caf047f9ff385c63bc5464736f6c634300081e0033\n}\n",
				"bytecode": {
					"linkReferences": {},
					"object": "60a060405234801561000f575f5ffd5b50735c69bee701ef814a2b6a3edd4b1652cb9cc5aa6f73ffffffffffffffffffffffffffffffffffffffff1663e6a43905736b175474e89094c44da98b954eedeac495271d0f73c02aaa39b223fe8d0a0e5c4f27ead9083c756cc26040518363ffffffff1660e01b815260040161008792919061013d565b602060405180830381865afa1580156100a2573d5f5f3e3d5ffd5b505050506040513d601f19601f820116820180604052508101906100c69190610192565b73ffffffffffffffffffffffffffffffffffffffff1660808173ffffffffffffffffffffffffffffffffffffffff16815250506101bd565b5f73ffffffffffffffffffffffffffffffffffffffff82169050919050565b5f610127826100fe565b9050919050565b6101378161011d565b82525050565b5f6040820190506101505f83018561012e565b61015d602083018461012e565b9392505050565b5f5ffd5b6101718161011d565b811461017b575f5ffd5b50565b5f8151905061018c81610168565b92915050565b5f602082840312156101a7576101a6610164565b5b5f6101b48482850161017e565b91505092915050565b608051610a6c6101dc5f395f818161031a01526103e00152610a6c5ff3fe608060405234801561000f575f5ffd5b5060043610610034575f3560e01c806310d1e85c1461003857806365b6c4f014610054575b5f5ffd5b610052600480360381019061004d9190610564565b610070565b005b61006e600480360381019061006991906105e8565b6103a5565b005b5f3373ffffffffffffffffffffffffffffffffffffffff16630dfe16816040518163ffffffff1660e01b8152600401602060405180830381865afa1580156100ba573d5f5f3e3d5ffd5b505050506040513d601f19601f820116820180604052508101906100de9190610627565b90505f3373ffffffffffffffffffffffffffffffffffffffff1663d21220a76040518163ffffffff1660e01b8152600401602060405180830381865afa15801561012a573d5f5f3e3d5ffd5b505050506040513d601f19601f8201168201806040525081019061014e9190610627565b9050735c69bee701ef814a2b6a3edd4b1652cb9cc5aa6f73ffffffffffffffffffffffffffffffffffffffff1663e6a4390583836040518363ffffffff1660e01b815260040161019f929190610661565b602060405180830381865afa1580156101ba573d5f5f3e3d5ffd5b505050506040513d601f19601f820116820180604052508101906101de9190610627565b73ffffffffffffffffffffffffffffffffffffffff163373ffffffffffffffffffffffffffffffffffffffff161461021957610218610688565b5b5f5f858581019061022a91906106f0565b9150915073c02aaa39b223fe8d0a0e5c4f27ead9083c756cc273ffffffffffffffffffffffffffffffffffffffff168273ffffffffffffffffffffffffffffffffffffffff16146102b0576040517f08c379a00000000000000000000000000000000000000000000000000000000081526004016102a790610788565b60405180910390fd5b5f60016103e560038a6102c391906107d3565b6102cd9190610841565b6102d79190610871565b90505f81896102e69190610871565b905073c02aaa39b223fe8d0a0e5c4f27ead9083c756cc273ffffffffffffffffffffffffffffffffffffffff1663a9059cbb7f0000000000000000000000000000000000000000000000000000000000000000836040518363ffffffff1660e01b81526004016103579291906108b3565b6020604051808303815f875af1158015610373573d5f5f3e3d5ffd5b505050506040513d601f19601f82011682018060405250810190610397919061090f565b505050505050505050505050565b5f73c02aaa39b223fe8d0a0e5c4f27ead9083c756cc2826040516020016103cd9291906108b3565b60405160208183030381529060405290507f000000000000000000000000000000000000000000000000000000000000000073ffffffffffffffffffffffffffffffffffffffff1663022c0d9f5f8430856040518563ffffffff1660e01b815260040161043d94939291906109ec565b5f604051808303815f87803b158015610454575f5ffd5b505af1158015610466573d5f5f3e3d5ffd5b505050505050565b5f5ffd5b5f5ffd5b5f73ffffffffffffffffffffffffffffffffffffffff82169050919050565b5f61049f82610476565b9050919050565b6104af81610495565b81146104b9575f5ffd5b50565b5f813590506104ca816104a6565b92915050565b5f819050919050565b6104e2816104d0565b81146104ec575f5ffd5b50565b5f813590506104fd816104d9565b92915050565b5f5ffd5b5f5ffd5b5f5ffd5b5f5f83601f84011261052457610523610503565b5b8235905067ffffffffffffffff81111561054157610540610507565b5b60208301915083600182028301111561055d5761055c61050b565b5b9250929050565b5f5f5f5f5f6080868803121561057d5761057c61046e565b5b5f61058a888289016104bc565b955050602061059b888289016104ef565b94505060406105ac888289016104ef565b935050606086013567ffffffffffffffff8111156105cd576105cc610472565b5b6105d98882890161050f565b92509250509295509295909350565b5f602082840312156105fd576105fc61046e565b5b5f61060a848285016104ef565b91505092915050565b5f81519050610621816104a6565b92915050565b5f6020828403121561063c5761063b61046e565b5b5f61064984828501610613565b91505092915050565b61065b81610495565b82525050565b5f6040820190506106745f830185610652565b6106816020830184610652565b9392505050565b7f4e487b71000000000000000000000000000000000000000000000000000000005f52600160045260245ffd5b5f6106bf82610476565b9050919050565b6106cf816106b5565b81146106d9575f5ffd5b50565b5f813590506106ea816106c6565b92915050565b5f5f604083850312156107065761070561046e565b5b5f610713858286016106dc565b9250506020610724858286016104ef565b9150509250929050565b5f82825260208201905092915050565b7f746f6b656e20626f72726f7720213d20574554480000000000000000000000005f82015250565b5f61077260148361072e565b915061077d8261073e565b602082019050919050565b5f6020820190508181035f83015261079f81610766565b9050919050565b7f4e487b71000000000000000000000000000000000000000000000000000000005f52601160045260245ffd5b5f6107dd826104d0565b91506107e8836104d0565b92508282026107f6816104d0565b9150828204841483151761080d5761080c6107a6565b5b5092915050565b7f4e487b71000000000000000000000000000000000000000000000000000000005f52601260045260245ffd5b5f61084b826104d0565b9150610856836104d0565b92508261086657610865610814565b5b828204905092915050565b5f61087b826104d0565b9150610886836104d0565b925082820190508082111561089e5761089d6107a6565b5b92915050565b6108ad816104d0565b82525050565b5f6040820190506108c65f830185610652565b6108d360208301846108a4565b9392505050565b5f8115159050919050565b6108ee816108da565b81146108f8575f5ffd5b50565b5f81519050610909816108e5565b92915050565b5f602082840312156109245761092361046e565b5b5f610931848285016108fb565b91505092915050565b5f819050919050565b5f819050919050565b5f61096661096161095c8461093a565b610943565b6104d0565b9050919050565b6109768161094c565b82525050565b5f81519050919050565b5f82825260208201905092915050565b8281835e5f83830152505050565b5f601f19601f8301169050919050565b5f6109be8261097c565b6109c88185610986565b93506109d8818560208601610996565b6109e1816109a4565b840191505092915050565b5f6080820190506109ff5f83018761096d565b610a0c60208301866108a4565b610a196040830185610652565b8181036060830152610a2b81846109b4565b90509594505050505056fea26469706673582212204c805611ed77609145acfeed51d448832486f85f8e06caf047f9ff385c63bc5464736f6c634300081e0033",
					"opcodes": "PUSH1 0xA0 PUSH1 0x40 MSTORE CALLVALUE DUP1 ISZERO PUSH2 0xF JUMPI PUSH0 PUSH0 REVERT JUMPDEST POP PUSH20 0x5C69BEE701EF814A2B6A3EDD4B1652CB9CC5AA6F PUSH20 0xFFFFFFFFFFFFFFFFFFFFFFFFFFFFFFFFFFFFFFFF AND PUSH4 0xE6A43905 PUSH20 0x6B175474E89094C44DA98B954EEDEAC495271D0F PUSH20 0xC02AAA39B223FE8D0A0E5C4F27EAD9083C756CC2 PUSH1 0x40 MLOAD DUP4 PUSH4 0xFFFFFFFF AND PUSH1 0xE0 SHL DUP2 MSTORE PUSH1 0x4 ADD PUSH2 0x87 SWAP3 SWAP2 SWAP1 PUSH2 0x13D JUMP JUMPDEST PUSH1 0x20 PUSH1 0x40 MLOAD DUP1 DUP4 SUB DUP2 DUP7 GAS STATICCALL ISZERO DUP1 ISZERO PUSH2 0xA2 JUMPI RETURNDATASIZE PUSH0 PUSH0 RETURNDATACOPY RETURNDATASIZE PUSH0 REVERT JUMPDEST POP POP POP POP PUSH1 0x40 MLOAD RETURNDATASIZE PUSH1 0x1F NOT PUSH1 0x1F DUP3 ADD AND DUP3 ADD DUP1 PUSH1 0x40 MSTORE POP DUP2 ADD SWAP1 PUSH2 0xC6 SWAP2 SWAP1 PUSH2 0x192 JUMP JUMPDEST PUSH20 0xFFFFFFFFFFFFFFFFFFFFFFFFFFFFFFFFFFFFFFFF AND PUSH1 0x80 DUP2 PUSH20 0xFFFFFFFFFFFFFFFFFFFFFFFFFFFFFFFFFFFFFFFF AND DUP2 MSTORE POP POP PUSH2 0x1BD JUMP JUMPDEST PUSH0 PUSH20 0xFFFFFFFFFFFFFFFFFFFFFFFFFFFFFFFFFFFFFFFF DUP3 AND SWAP1 POP SWAP2 SWAP1 POP JUMP JUMPDEST PUSH0 PUSH2 0x127 DUP3 PUSH2 0xFE JUMP JUMPDEST SWAP1 POP SWAP2 SWAP1 POP JUMP JUMPDEST PUSH2 0x137 DUP2 PUSH2 0x11D JUMP JUMPDEST DUP3 MSTORE POP POP JUMP JUMPDEST PUSH0 PUSH1 0x40 DUP3 ADD SWAP1 POP PUSH2 0x150 PUSH0 DUP4 ADD DUP6 PUSH2 0x12E JUMP JUMPDEST PUSH2 0x15D PUSH1 0x20 DUP4 ADD DUP5 PUSH2 0x12E JUMP JUMPDEST SWAP4 SWAP3 POP POP POP JUMP JUMPDEST PUSH0 PUSH0 REVERT JUMPDEST PUSH2 0x171 DUP2 PUSH2 0x11D JUMP JUMPDEST DUP2 EQ PUSH2 0x17B JUMPI PUSH0 PUSH0 REVERT JUMPDEST POP JUMP JUMPDEST PUSH0 DUP2 MLOAD SWAP1 POP PUSH2 0x18C DUP2 PUSH2 0x168 JUMP JUMPDEST SWAP3 SWAP2 POP POP JUMP JUMPDEST PUSH0 PUSH1 0x20 DUP3 DUP5 SUB SLT ISZERO PUSH2 0x1A7 JUMPI PUSH2 0x1A6 PUSH2 0x164 JUMP JUMPDEST JUMPDEST PUSH0 PUSH2 0x1B4 DUP5 DUP3 DUP6 ADD PUSH2 0x17E JUMP JUMPDEST SWAP2 POP POP SWAP3 SWAP2 POP POP JUMP JUMPDEST PUSH1 0x80 MLOAD PUSH2 0xA6C PUSH2 0x1DC PUSH0 CODECOPY PUSH0 DUP2 DUP2 PUSH2 0x31A ADD MSTORE PUSH2 0x3E0 ADD MSTORE PUSH2 0xA6C PUSH0 RETURN INVALID PUSH1 0x80 PUSH1 0x40 MSTORE CALLVALUE DUP1 ISZERO PUSH2 0xF JUMPI PUSH0 PUSH0 REVERT JUMPDEST POP PUSH1 0x4 CALLDATASIZE LT PUSH2 0x34 JUMPI PUSH0 CALLDATALOAD PUSH1 0xE0 SHR DUP1 PUSH4 0x10D1E85C EQ PUSH2 0x38 JUMPI DUP1 PUSH4 0x65B6C4F0 EQ PUSH2 0x54 JUMPI JUMPDEST PUSH0 PUSH0 REVERT JUMPDEST PUSH2 0x52 PUSH1 0x4 DUP1 CALLDATASIZE SUB DUP2 ADD SWAP1 PUSH2 0x4D SWAP2 SWAP1 PUSH2 0x564 JUMP JUMPDEST PUSH2 0x70 JUMP JUMPDEST STOP JUMPDEST PUSH2 0x6E PUSH1 0x4 DUP1 CALLDATASIZE SUB DUP2 ADD SWAP1 PUSH2 0x69 SWAP2 SWAP1 PUSH2 0x5E8 JUMP JUMPDEST PUSH2 0x3A5 JUMP JUMPDEST STOP JUMPDEST PUSH0 CALLER PUSH20 0xFFFFFFFFFFFFFFFFFFFFFFFFFFFFFFFFFFFFFFFF AND PUSH4 0xDFE1681 PUSH1 0x40 MLOAD DUP2 PUSH4 0xFFFFFFFF AND PUSH1 0xE0 SHL DUP2 MSTORE PUSH1 0x4 ADD PUSH1 0x20 PUSH1 0x40 MLOAD DUP1 DUP4 SUB DUP2 DUP7 GAS STATICCALL ISZERO DUP1 ISZERO PUSH2 0xBA JUMPI RETURNDATASIZE PUSH0 PUSH0 RETURNDATACOPY RETURNDATASIZE PUSH0 REVERT JUMPDEST POP POP POP POP PUSH1 0x40 MLOAD RETURNDATASIZE PUSH1 0x1F NOT PUSH1 0x1F DUP3 ADD AND DUP3 ADD DUP1 PUSH1 0x40 MSTORE POP DUP2 ADD SWAP1 PUSH2 0xDE SWAP2 SWAP1 PUSH2 0x627 JUMP JUMPDEST SWAP1 POP PUSH0 CALLER PUSH20 0xFFFFFFFFFFFFFFFFFFFFFFFFFFFFFFFFFFFFFFFF AND PUSH4 0xD21220A7 PUSH1 0x40 MLOAD DUP2 PUSH4 0xFFFFFFFF AND PUSH1 0xE0 SHL DUP2 MSTORE PUSH1 0x4 ADD PUSH1 0x20 PUSH1 0x40 MLOAD DUP1 DUP4 SUB DUP2 DUP7 GAS STATICCALL ISZERO DUP1 ISZERO PUSH2 0x12A JUMPI RETURNDATASIZE PUSH0 PUSH0 RETURNDATACOPY RETURNDATASIZE PUSH0 REVERT JUMPDEST POP POP POP POP PUSH1 0x40 MLOAD RETURNDATASIZE PUSH1 0x1F NOT PUSH1 0x1F DUP3 ADD AND DUP3 ADD DUP1 PUSH1 0x40 MSTORE POP DUP2 ADD SWAP1 PUSH2 0x14E SWAP2 SWAP1 PUSH2 0x627 JUMP JUMPDEST SWAP1 POP PUSH20 0x5C69BEE701EF814A2B6A3EDD4B1652CB9CC5AA6F PUSH20 0xFFFFFFFFFFFFFFFFFFFFFFFFFFFFFFFFFFFFFFFF AND PUSH4 0xE6A43905 DUP4 DUP4 PUSH1 0x40 MLOAD DUP4 PUSH4 0xFFFFFFFF AND PUSH1 0xE0 SHL DUP2 MSTORE PUSH1 0x4 ADD PUSH2 0x19F SWAP3 SWAP2 SWAP1 PUSH2 0x661 JUMP JUMPDEST PUSH1 0x20 PUSH1 0x40 MLOAD DUP1 DUP4 SUB DUP2 DUP7 GAS STATICCALL ISZERO DUP1 ISZERO PUSH2 0x1BA JUMPI RETURNDATASIZE PUSH0 PUSH0 RETURNDATACOPY RETURNDATASIZE PUSH0 REVERT JUMPDEST POP POP POP POP PUSH1 0x40 MLOAD RETURNDATASIZE PUSH1 0x1F NOT PUSH1 0x1F DUP3 ADD AND DUP3 ADD DUP1 PUSH1 0x40 MSTORE POP DUP2 ADD SWAP1 PUSH2 0x1DE SWAP2 SWAP1 PUSH2 0x627 JUMP JUMPDEST PUSH20 0xFFFFFFFFFFFFFFFFFFFFFFFFFFFFFFFFFFFFFFFF AND CALLER PUSH20 0xFFFFFFFFFFFFFFFFFFFFFFFFFFFFFFFFFFFFFFFF AND EQ PUSH2 0x219 JUMPI PUSH2 0x218 PUSH2 0x688 JUMP JUMPDEST JUMPDEST PUSH0 PUSH0 DUP6 DUP6 DUP2 ADD SWAP1 PUSH2 0x22A SWAP2 SWAP1 PUSH2 0x6F0 JUMP JUMPDEST SWAP2 POP SWAP2 POP PUSH20 0xC02AAA39B223FE8D0A0E5C4F27EAD9083C756CC2 PUSH20 0xFFFFFFFFFFFFFFFFFFFFFFFFFFFFFFFFFFFFFFFF AND DUP3 PUSH20 0xFFFFFFFFFFFFFFFFFFFFFFFFFFFFFFFFFFFFFFFF AND EQ PUSH2 0x2B0 JUMPI PUSH1 0x40 MLOAD PUSH32 0x8C379A000000000000000000000000000000000000000000000000000000000 DUP2 MSTORE PUSH1 0x4 ADD PUSH2 0x2A7 SWAP1 PUSH2 0x788 JUMP JUMPDEST PUSH1 0x40 MLOAD DUP1 SWAP2 SUB SWAP1 REVERT JUMPDEST PUSH0 PUSH1 0x1 PUSH2 0x3E5 PUSH1 0x3 DUP11 PUSH2 0x2C3 SWAP2 SWAP1 PUSH2 0x7D3 JUMP JUMPDEST PUSH2 0x2CD SWAP2 SWAP1 PUSH2 0x841 JUMP JUMPDEST PUSH2 0x2D7 SWAP2 SWAP1 PUSH2 0x871 JUMP JUMPDEST SWAP1 POP PUSH0 DUP2 DUP10 PUSH2 0x2E6 SWAP2 SWAP1 PUSH2 0x871 JUMP JUMPDEST SWAP1 POP PUSH20 0xC02AAA39B223FE8D0A0E5C4F27EAD9083C756CC2 PUSH20 0xFFFFFFFFFFFFFFFFFFFFFFFFFFFFFFFFFFFFFFFF AND PUSH4 0xA9059CBB PUSH32 0x0 DUP4 PUSH1 0x40 MLOAD DUP4 PUSH4 0xFFFFFFFF AND PUSH1 0xE0 SHL DUP2 MSTORE PUSH1 0x4 ADD PUSH2 0x357 SWAP3 SWAP2 SWAP1 PUSH2 0x8B3 JUMP JUMPDEST PUSH1 0x20 PUSH1 0x40 MLOAD DUP1 DUP4 SUB DUP2 PUSH0 DUP8 GAS CALL ISZERO DUP1 ISZERO PUSH2 0x373 JUMPI RETURNDATASIZE PUSH0 PUSH0 RETURNDATACOPY RETURNDATASIZE PUSH0 REVERT JUMPDEST POP POP POP POP PUSH1 0x40 MLOAD RETURNDATASIZE PUSH1 0x1F NOT PUSH1 0x1F DUP3 ADD AND DUP3 ADD DUP1 PUSH1 0x40 MSTORE POP DUP2 ADD SWAP1 PUSH2 0x397 SWAP2 SWAP1 PUSH2 0x90F JUMP JUMPDEST POP POP POP POP POP POP POP POP POP POP POP POP JUMP JUMPDEST PUSH0 PUSH20 0xC02AAA39B223FE8D0A0E5C4F27EAD9083C756CC2 DUP3 PUSH1 0x40 MLOAD PUSH1 0x20 ADD PUSH2 0x3CD SWAP3 SWAP2 SWAP1 PUSH2 0x8B3 JUMP JUMPDEST PUSH1 0x40 MLOAD PUSH1 0x20 DUP2 DUP4 SUB SUB DUP2 MSTORE SWAP1 PUSH1 0x40 MSTORE SWAP1 POP PUSH32 0x0 PUSH20 0xFFFFFFFFFFFFFFFFFFFFFFFFFFFFFFFFFFFFFFFF AND PUSH4 0x22C0D9F PUSH0 DUP5 ADDRESS DUP6 PUSH1 0x40 MLOAD DUP6 PUSH4 0xFFFFFFFF AND PUSH1 0xE0 SHL DUP2 MSTORE PUSH1 0x4 ADD PUSH2 0x43D SWAP5 SWAP4 SWAP3 SWAP2 SWAP1 PUSH2 0x9EC JUMP JUMPDEST PUSH0 PUSH1 0x40 MLOAD DUP1 DUP4 SUB DUP2 PUSH0 DUP8 DUP1 EXTCODESIZE ISZERO DUP1 ISZERO PUSH2 0x454 JUMPI PUSH0 PUSH0 REVERT JUMPDEST POP GAS CALL ISZERO DUP1 ISZERO PUSH2 0x466 JUMPI RETURNDATASIZE PUSH0 PUSH0 RETURNDATACOPY RETURNDATASIZE PUSH0 REVERT JUMPDEST POP POP POP POP POP POP JUMP JUMPDEST PUSH0 PUSH0 REVERT JUMPDEST PUSH0 PUSH0 REVERT JUMPDEST PUSH0 PUSH20 0xFFFFFFFFFFFFFFFFFFFFFFFFFFFFFFFFFFFFFFFF DUP3 AND SWAP1 POP SWAP2 SWAP1 POP JUMP JUMPDEST PUSH0 PUSH2 0x49F DUP3 PUSH2 0x476 JUMP JUMPDEST SWAP1 POP SWAP2 SWAP1 POP JUMP JUMPDEST PUSH2 0x4AF DUP2 PUSH2 0x495 JUMP JUMPDEST DUP2 EQ PUSH2 0x4B9 JUMPI PUSH0 PUSH0 REVERT JUMPDEST POP JUMP JUMPDEST PUSH0 DUP2 CALLDATALOAD SWAP1 POP PUSH2 0x4CA DUP2 PUSH2 0x4A6 JUMP JUMPDEST SWAP3 SWAP2 POP POP JUMP JUMPDEST PUSH0 DUP2 SWAP1 POP SWAP2 SWAP1 POP JUMP JUMPDEST PUSH2 0x4E2 DUP2 PUSH2 0x4D0 JUMP JUMPDEST DUP2 EQ PUSH2 0x4EC JUMPI PUSH0 PUSH0 REVERT JUMPDEST POP JUMP JUMPDEST PUSH0 DUP2 CALLDATALOAD SWAP1 POP PUSH2 0x4FD DUP2 PUSH2 0x4D9 JUMP JUMPDEST SWAP3 SWAP2 POP POP JUMP JUMPDEST PUSH0 PUSH0 REVERT JUMPDEST PUSH0 PUSH0 REVERT JUMPDEST PUSH0 PUSH0 REVERT JUMPDEST PUSH0 PUSH0 DUP4 PUSH1 0x1F DUP5 ADD SLT PUSH2 0x524 JUMPI PUSH2 0x523 PUSH2 0x503 JUMP JUMPDEST JUMPDEST DUP3 CALLDATALOAD SWAP1 POP PUSH8 0xFFFFFFFFFFFFFFFF DUP2 GT ISZERO PUSH2 0x541 JUMPI PUSH2 0x540 PUSH2 0x507 JUMP JUMPDEST JUMPDEST PUSH1 0x20 DUP4 ADD SWAP2 POP DUP4 PUSH1 0x1 DUP3 MUL DUP4 ADD GT ISZERO PUSH2 0x55D JUMPI PUSH2 0x55C PUSH2 0x50B JUMP JUMPDEST JUMPDEST SWAP3 POP SWAP3 SWAP1 POP JUMP JUMPDEST PUSH0 PUSH0 PUSH0 PUSH0 PUSH0 PUSH1 0x80 DUP7 DUP9 SUB SLT ISZERO PUSH2 0x57D JUMPI PUSH2 0x57C PUSH2 0x46E JUMP JUMPDEST JUMPDEST PUSH0 PUSH2 0x58A DUP9 DUP3 DUP10 ADD PUSH2 0x4BC JUMP JUMPDEST SWAP6 POP POP PUSH1 0x20 PUSH2 0x59B DUP9 DUP3 DUP10 ADD PUSH2 0x4EF JUMP JUMPDEST SWAP5 POP POP PUSH1 0x40 PUSH2 0x5AC DUP9 DUP3 DUP10 ADD PUSH2 0x4EF JUMP JUMPDEST SWAP4 POP POP PUSH1 0x60 DUP7 ADD CALLDATALOAD PUSH8 0xFFFFFFFFFFFFFFFF DUP2 GT ISZERO PUSH2 0x5CD JUMPI PUSH2 0x5CC PUSH2 0x472 JUMP JUMPDEST JUMPDEST PUSH2 0x5D9 DUP9 DUP3 DUP10 ADD PUSH2 0x50F JUMP JUMPDEST SWAP3 POP SWAP3 POP POP SWAP3 SWAP6 POP SWAP3 SWAP6 SWAP1 SWAP4 POP JUMP JUMPDEST PUSH0 PUSH1 0x20 DUP3 DUP5 SUB SLT ISZERO PUSH2 0x5FD JUMPI PUSH2 0x5FC PUSH2 0x46E JUMP JUMPDEST JUMPDEST PUSH0 PUSH2 0x60A DUP5 DUP3 DUP6 ADD PUSH2 0x4EF JUMP JUMPDEST SWAP2 POP POP SWAP3 SWAP2 POP POP JUMP JUMPDEST PUSH0 DUP2 MLOAD SWAP1 POP PUSH2 0x621 DUP2 PUSH2 0x4A6 JUMP JUMPDEST SWAP3 SWAP2 POP POP JUMP JUMPDEST PUSH0 PUSH1 0x20 DUP3 DUP5 SUB SLT ISZERO PUSH2 0x63C JUMPI PUSH2 0x63B PUSH2 0x46E JUMP JUMPDEST JUMPDEST PUSH0 PUSH2 0x649 DUP5 DUP3 DUP6 ADD PUSH2 0x613 JUMP JUMPDEST SWAP2 POP POP SWAP3 SWAP2 POP POP JUMP JUMPDEST PUSH2 0x65B DUP2 PUSH2 0x495 JUMP JUMPDEST DUP3 MSTORE POP POP JUMP JUMPDEST PUSH0 PUSH1 0x40 DUP3 ADD SWAP1 POP PUSH2 0x674 PUSH0 DUP4 ADD DUP6 PUSH2 0x652 JUMP JUMPDEST PUSH2 0x681 PUSH1 0x20 DUP4 ADD DUP5 PUSH2 0x652 JUMP JUMPDEST SWAP4 SWAP3 POP POP POP JUMP JUMPDEST PUSH32 0x4E487B7100000000000000000000000000000000000000000000000000000000 PUSH0 MSTORE PUSH1 0x1 PUSH1 0x4 MSTORE PUSH1 0x24 PUSH0 REVERT JUMPDEST PUSH0 PUSH2 0x6BF DUP3 PUSH2 0x476 JUMP JUMPDEST SWAP1 POP SWAP2 SWAP1 POP JUMP JUMPDEST PUSH2 0x6CF DUP2 PUSH2 0x6B5 JUMP JUMPDEST DUP2 EQ PUSH2 0x6D9 JUMPI PUSH0 PUSH0 REVERT JUMPDEST POP JUMP JUMPDEST PUSH0 DUP2 CALLDATALOAD SWAP1 POP PUSH2 0x6EA DUP2 PUSH2 0x6C6 JUMP JUMPDEST SWAP3 SWAP2 POP POP JUMP JUMPDEST PUSH0 PUSH0 PUSH1 0x40 DUP4 DUP6 SUB SLT ISZERO PUSH2 0x706 JUMPI PUSH2 0x705 PUSH2 0x46E JUMP JUMPDEST JUMPDEST PUSH0 PUSH2 0x713 DUP6 DUP3 DUP7 ADD PUSH2 0x6DC JUMP JUMPDEST SWAP3 POP POP PUSH1 0x20 PUSH2 0x724 DUP6 DUP3 DUP7 ADD PUSH2 0x4EF JUMP JUMPDEST SWAP2 POP POP SWAP3 POP SWAP3 SWAP1 POP JUMP JUMPDEST PUSH0 DUP3 DUP3 MSTORE PUSH1 0x20 DUP3 ADD SWAP1 POP SWAP3 SWAP2 POP POP JUMP JUMPDEST PUSH32 0x746F6B656E20626F72726F7720213D2057455448000000000000000000000000 PUSH0 DUP3 ADD MSTORE POP JUMP JUMPDEST PUSH0 PUSH2 0x772 PUSH1 0x14 DUP4 PUSH2 0x72E JUMP JUMPDEST SWAP2 POP PUSH2 0x77D DUP3 PUSH2 0x73E JUMP JUMPDEST PUSH1 0x20 DUP3 ADD SWAP1 POP SWAP2 SWAP1 POP JUMP JUMPDEST PUSH0 PUSH1 0x20 DUP3 ADD SWAP1 POP DUP2 DUP2 SUB PUSH0 DUP4 ADD MSTORE PUSH2 0x79F DUP2 PUSH2 0x766 JUMP JUMPDEST SWAP1 POP SWAP2 SWAP1 POP JUMP JUMPDEST PUSH32 0x4E487B7100000000000000000000000000000000000000000000000000000000 PUSH0 MSTORE PUSH1 0x11 PUSH1 0x4 MSTORE PUSH1 0x24 PUSH0 REVERT JUMPDEST PUSH0 PUSH2 0x7DD DUP3 PUSH2 0x4D0 JUMP JUMPDEST SWAP2 POP PUSH2 0x7E8 DUP4 PUSH2 0x4D0 JUMP JUMPDEST SWAP3 POP DUP3 DUP3 MUL PUSH2 0x7F6 DUP2 PUSH2 0x4D0 JUMP JUMPDEST SWAP2 POP DUP3 DUP3 DIV DUP5 EQ DUP4 ISZERO OR PUSH2 0x80D JUMPI PUSH2 0x80C PUSH2 0x7A6 JUMP JUMPDEST JUMPDEST POP SWAP3 SWAP2 POP POP JUMP JUMPDEST PUSH32 0x4E487B7100000000000000000000000000000000000000000000000000000000 PUSH0 MSTORE PUSH1 0x12 PUSH1 0x4 MSTORE PUSH1 0x24 PUSH0 REVERT JUMPDEST PUSH0 PUSH2 0x84B DUP3 PUSH2 0x4D0 JUMP JUMPDEST SWAP2 POP PUSH2 0x856 DUP4 PUSH2 0x4D0 JUMP JUMPDEST SWAP3 POP DUP3 PUSH2 0x866 JUMPI PUSH2 0x865 PUSH2 0x814 JUMP JUMPDEST JUMPDEST DUP3 DUP3 DIV SWAP1 POP SWAP3 SWAP2 POP POP JUMP JUMPDEST PUSH0 PUSH2 0x87B DUP3 PUSH2 0x4D0 JUMP JUMPDEST SWAP2 POP PUSH2 0x886 DUP4 PUSH2 0x4D0 JUMP JUMPDEST SWAP3 POP DUP3 DUP3 ADD SWAP1 POP DUP1 DUP3 GT ISZERO PUSH2 0x89E JUMPI PUSH2 0x89D PUSH2 0x7A6 JUMP JUMPDEST JUMPDEST SWAP3 SWAP2 POP POP JUMP JUMPDEST PUSH2 0x8AD DUP2 PUSH2 0x4D0 JUMP JUMPDEST DUP3 MSTORE POP POP JUMP JUMPDEST PUSH0 PUSH1 0x40 DUP3 ADD SWAP1 POP PUSH2 0x8C6 PUSH0 DUP4 ADD DUP6 PUSH2 0x652 JUMP JUMPDEST PUSH2 0x8D3 PUSH1 0x20 DUP4 ADD DUP5 PUSH2 0x8A4 JUMP JUMPDEST SWAP4 SWAP3 POP POP POP JUMP JUMPDEST PUSH0 DUP2 ISZERO ISZERO SWAP1 POP SWAP2 SWAP1 POP JUMP JUMPDEST PUSH2 0x8EE DUP2 PUSH2 0x8DA JUMP JUMPDEST DUP2 EQ PUSH2 0x8F8 JUMPI PUSH0 PUSH0 REVERT JUMPDEST POP JUMP JUMPDEST PUSH0 DUP2 MLOAD SWAP1 POP PUSH2 0x909 DUP2 PUSH2 0x8E5 JUMP JUMPDEST SWAP3 SWAP2 POP POP JUMP JUMPDEST PUSH0 PUSH1 0x20 DUP3 DUP5 SUB SLT ISZERO PUSH2 0x924 JUMPI PUSH2 0x923 PUSH2 0x46E JUMP JUMPDEST JUMPDEST PUSH0 PUSH2 0x931 DUP5 DUP3 DUP6 ADD PUSH2 0x8FB JUMP JUMPDEST SWAP2 POP POP SWAP3 SWAP2 POP POP JUMP JUMPDEST PUSH0 DUP2 SWAP1 POP SWAP2 SWAP1 POP JUMP JUMPDEST PUSH0 DUP2 SWAP1 POP SWAP2 SWAP1 POP JUMP JUMPDEST PUSH0 PUSH2 0x966 PUSH2 0x961 PUSH2 0x95C DUP5 PUSH2 0x93A JUMP JUMPDEST PUSH2 0x943 JUMP JUMPDEST PUSH2 0x4D0 JUMP JUMPDEST SWAP1 POP SWAP2 SWAP1 POP JUMP JUMPDEST PUSH2 0x976 DUP2 PUSH2 0x94C JUMP JUMPDEST DUP3 MSTORE POP POP JUMP JUMPDEST PUSH0 DUP2 MLOAD SWAP1 POP SWAP2 SWAP1 POP JUMP JUMPDEST PUSH0 DUP3 DUP3 MSTORE PUSH1 0x20 DUP3 ADD SWAP1 POP SWAP3 SWAP2 POP POP JUMP JUMPDEST DUP3 DUP2 DUP4 MCOPY PUSH0 DUP4 DUP4 ADD MSTORE POP POP POP JUMP JUMPDEST PUSH0 PUSH1 0x1F NOT PUSH1 0x1F DUP4 ADD AND SWAP1 POP SWAP2 SWAP1 POP JUMP JUMPDEST PUSH0 PUSH2 0x9BE DUP3 PUSH2 0x97C JUMP JUMPDEST PUSH2 0x9C8 DUP2 DUP6 PUSH2 0x986 JUMP JUMPDEST SWAP4 POP PUSH2 0x9D8 DUP2 DUP6 PUSH1 0x20 DUP7 ADD PUSH2 0x996 JUMP JUMPDEST PUSH2 0x9E1 DUP2 PUSH2 0x9A4 JUMP JUMPDEST DUP5 ADD SWAP2 POP POP SWAP3 SWAP2 POP POP JUMP JUMPDEST PUSH0 PUSH1 0x80 DUP3 ADD SWAP1 POP PUSH2 0x9FF PUSH0 DUP4 ADD DUP8 PUSH2 0x96D JUMP JUMPDEST PUSH2 0xA0C PUSH1 0x20 DUP4 ADD DUP7 PUSH2 0x8A4 JUMP JUMPDEST PUSH2 0xA19 PUSH1 0x40 DUP4 ADD DUP6 PUSH2 0x652 JUMP JUMPDEST DUP2 DUP2 SUB PUSH1 0x60 DUP4 ADD MSTORE PUSH2 0xA2B DUP2 DUP5 PUSH2 0x9B4 JUMP JUMPDEST SWAP1 POP SWAP6 SWAP5 POP POP POP POP POP JUMP INVALID LOG2 PUSH5 0x6970667358 0x22 SLT KECCAK256 0x4C DUP1 JUMP GT 0xED PUSH24 0x609145ACFEED51D448832486F85F8E06CAF047F9FF385C63 0xBC SLOAD PUSH5 0x736F6C6343 STOP ADDMOD 0x1E STOP CALLER "
				},
				"gasEstimates": {
					"creation": {
						"codeDepositCost": "533600",
						"executionCost": "infinite",
						"totalCost": "infinite"
					},
					"external": {
						"flashloan(uint256)": "infinite",
						"uniswapV2Call(address,uint256,uint256,bytes)": "infinite"
					}
				},
				"methodIdentifiers": {
					"flashloan(uint256)": "65b6c4f0",
					"uniswapV2Call(address,uint256,uint256,bytes)": "10d1e85c"
				}
			},
			"storageLayout": {
				"storage": [],
				"types": null
			},
			"userdoc": {
				"kind": "user",
				"methods": {},
				"version": 1
			}
		}
	}
}