{
	"contracts/demos/TransparentContracts/TransparentContracts.sol": {
		"Logic2": {
			"abi": [
				{
					"inputs": [],
					"name": "admin",
					"outputs": [
						{
							"internalType": "address",
							"name": "",
							"type": "address"
						}
					],
					"stateMutability": "view",
					"type": "function"
				},
				{
					"inputs": [],
					"name": "foo",
					"outputs": [],
					"stateMutability": "nonpayable",
					"type": "function"
				},
				{
					"inputs": [],
					"name": "implementation",
					"outputs": [
						{
							"internalType": "address",
							"name": "",
							"type": "address"
						}
					],
					"stateMutability": "view",
					"type": "function"
				},
				{
					"inputs": [],
					"name": "words",
					"outputs": [
						{
							"internalType": "string",
							"name": "",
							"type": "string"
						}
					],
					"stateMutability": "view",
					"type": "function"
				}
			],
			"devdoc": {
				"kind": "dev",
				"methods": {},
				"version": 1
			},
			"evm": {
				"assembly": "    /* \"contracts/demos/TransparentContracts/TransparentContracts.sol\":1848:2187  contract Logic2 {... */\n  mstore(0x40, 0x80)\n  callvalue\n  dup1\n  iszero\n  tag_1\n  jumpi\n  revert(0x00, 0x00)\ntag_1:\n  pop\n  dataSize(sub_0)\n  dup1\n  dataOffset(sub_0)\n  0x00\n  codecopy\n  0x00\n  return\nstop\n\nsub_0: assembly {\n        /* \"contracts/demos/TransparentContracts/TransparentContracts.sol\":1848:2187  contract Logic2 {... */\n      mstore(0x40, 0x80)\n      callvalue\n      dup1\n      iszero\n      tag_1\n      jumpi\n      revert(0x00, 0x00)\n    tag_1:\n      pop\n      jumpi(tag_2, lt(calldatasize, 0x04))\n      shr(0xe0, calldataload(0x00))\n      dup1\n      0x5c60da1b\n      eq\n      tag_3\n      jumpi\n      dup1\n      0xc2985578\n      eq\n      tag_4\n      jumpi\n      dup1\n      0xf2c31bd9\n      eq\n      tag_5\n      jumpi\n      dup1\n      0xf851a440\n      eq\n      tag_6\n      jumpi\n    tag_2:\n      revert(0x00, 0x00)\n        /* \"contracts/demos/TransparentContracts/TransparentContracts.sol\":1931:1960  address public implementation */\n    tag_3:\n      tag_7\n      tag_8\n      jump\t// in\n    tag_7:\n      mload(0x40)\n      tag_9\n      swap2\n      swap1\n      tag_10\n      jump\t// in\n    tag_9:\n      mload(0x40)\n      dup1\n      swap2\n      sub\n      swap1\n      return\n        /* \"contracts/demos/TransparentContracts/TransparentContracts.sol\":2134:2185  function foo() public{... */\n    tag_4:\n      tag_11\n      tag_12\n      jump\t// in\n    tag_11:\n      stop\n        /* \"contracts/demos/TransparentContracts/TransparentContracts.sol\":1994:2013  string public words */\n    tag_5:\n      tag_13\n      tag_14\n      jump\t// in\n    tag_13:\n      mload(0x40)\n      tag_15\n      swap2\n      swap1\n      tag_16\n      jump\t// in\n    tag_15:\n      mload(0x40)\n      dup1\n      swap2\n      sub\n      swap1\n      return\n        /* \"contracts/demos/TransparentContracts/TransparentContracts.sol\":1967:1987  address public admin */\n    tag_6:\n      tag_17\n      tag_18\n      jump\t// in\n    tag_17:\n      mload(0x40)\n      tag_19\n      swap2\n      swap1\n      tag_10\n      jump\t// in\n    tag_19:\n      mload(0x40)\n      dup1\n      swap2\n      sub\n      swap1\n      return\n        /* \"contracts/demos/TransparentContracts/TransparentContracts.sol\":1931:1960  address public implementation */\n    tag_8:\n      0x00\n      0x00\n      swap1\n      sload\n      swap1\n      0x0100\n      exp\n      swap1\n      div\n      0xffffffffffffffffffffffffffffffffffffffff\n      and\n      dup2\n      jump\t// out\n        /* \"contracts/demos/TransparentContracts/TransparentContracts.sol\":2134:2185  function foo() public{... */\n    tag_12:\n        /* \"contracts/demos/TransparentContracts/TransparentContracts.sol\":2165:2178  words = \"new\" */\n      mload(0x40)\n      dup1\n      0x40\n      add\n      0x40\n      mstore\n      dup1\n      0x03\n      dup2\n      mstore\n      0x20\n      add\n      0x6e65770000000000000000000000000000000000000000000000000000000000\n      dup2\n      mstore\n      pop\n        /* \"contracts/demos/TransparentContracts/TransparentContracts.sol\":2165:2170  words */\n      0x02\n        /* \"contracts/demos/TransparentContracts/TransparentContracts.sol\":2165:2178  words = \"new\" */\n      swap1\n      dup2\n      tag_21\n      swap2\n      swap1\n      tag_22\n      jump\t// in\n    tag_21:\n      pop\n        /* \"contracts/demos/TransparentContracts/TransparentContracts.sol\":2134:2185  function foo() public{... */\n      jump\t// out\n        /* \"contracts/demos/TransparentContracts/TransparentContracts.sol\":1994:2013  string public words */\n    tag_14:\n      0x02\n      dup1\n      sload\n      tag_23\n      swap1\n      tag_24\n      jump\t// in\n    tag_23:\n      dup1\n      0x1f\n      add\n      0x20\n      dup1\n      swap2\n      div\n      mul\n      0x20\n      add\n      mload(0x40)\n      swap1\n      dup2\n      add\n      0x40\n      mstore\n      dup1\n      swap3\n      swap2\n      swap1\n      dup2\n      dup2\n      mstore\n      0x20\n      add\n      dup3\n      dup1\n      sload\n      tag_25\n      swap1\n      tag_24\n      jump\t// in\n    tag_25:\n      dup1\n      iszero\n      tag_26\n      jumpi\n      dup1\n      0x1f\n      lt\n      tag_27\n      jumpi\n      0x0100\n      dup1\n      dup4\n      sload\n      div\n      mul\n      dup4\n      mstore\n      swap2\n      0x20\n      add\n      swap2\n      jump(tag_26)\n    tag_27:\n      dup3\n      add\n      swap2\n      swap1\n      0x00\n      mstore\n      keccak256(0x00, 0x20)\n      swap1\n    tag_28:\n      dup2\n      sload\n      dup2\n      mstore\n      swap1\n      0x01\n      add\n      swap1\n      0x20\n      add\n      dup1\n      dup4\n      gt\n      tag_28\n      jumpi\n      dup3\n      swap1\n      sub\n      0x1f\n      and\n      dup3\n      add\n      swap2\n    tag_26:\n      pop\n      pop\n      pop\n      pop\n      pop\n      dup2\n      jump\t// out\n        /* \"contracts/demos/TransparentContracts/TransparentContracts.sol\":1967:1987  address public admin */\n    tag_18:\n      0x01\n      0x00\n      swap1\n      sload\n      swap1\n      0x0100\n      exp\n      swap1\n      div\n      0xffffffffffffffffffffffffffffffffffffffff\n      and\n      dup2\n      jump\t// out\n        /* \"#utility.yul\":7:133   */\n    tag_29:\n        /* \"#utility.yul\":44:51   */\n      0x00\n        /* \"#utility.yul\":84:126   */\n      0xffffffffffffffffffffffffffffffffffffffff\n        /* \"#utility.yul\":77:82   */\n      dup3\n        /* \"#utility.yul\":73:127   */\n      and\n        /* \"#utility.yul\":62:127   */\n      swap1\n      pop\n        /* \"#utility.yul\":7:133   */\n      swap2\n      swap1\n      pop\n      jump\t// out\n        /* \"#utility.yul\":139:235   */\n    tag_30:\n        /* \"#utility.yul\":176:183   */\n      0x00\n        /* \"#utility.yul\":205:229   */\n      tag_58\n        /* \"#utility.yul\":223:228   */\n      dup3\n        /* \"#utility.yul\":205:229   */\n      tag_29\n      jump\t// in\n    tag_58:\n        /* \"#utility.yul\":194:229   */\n      swap1\n      pop\n        /* \"#utility.yul\":139:235   */\n      swap2\n      swap1\n      pop\n      jump\t// out\n        /* \"#utility.yul\":241:359   */\n    tag_31:\n        /* \"#utility.yul\":328:352   */\n      tag_60\n        /* \"#utility.yul\":346:351   */\n      dup2\n        /* \"#utility.yul\":328:352   */\n      tag_30\n      jump\t// in\n    tag_60:\n        /* \"#utility.yul\":323:326   */\n      dup3\n        /* \"#utility.yul\":316:353   */\n      mstore\n        /* \"#utility.yul\":241:359   */\n      pop\n      pop\n      jump\t// out\n        /* \"#utility.yul\":365:587   */\n    tag_10:\n        /* \"#utility.yul\":458:462   */\n      0x00\n        /* \"#utility.yul\":496:498   */\n      0x20\n        /* \"#utility.yul\":485:494   */\n      dup3\n        /* \"#utility.yul\":481:499   */\n      add\n        /* \"#utility.yul\":473:499   */\n      swap1\n      pop\n        /* \"#utility.yul\":509:580   */\n      tag_62\n        /* \"#utility.yul\":577:578   */\n      0x00\n        /* \"#utility.yul\":566:575   */\n      dup4\n        /* \"#utility.yul\":562:579   */\n      add\n        /* \"#utility.yul\":553:559   */\n      dup5\n        /* \"#utility.yul\":509:580   */\n      tag_31\n      jump\t// in\n    tag_62:\n        /* \"#utility.yul\":365:587   */\n      swap3\n      swap2\n      pop\n      pop\n      jump\t// out\n        /* \"#utility.yul\":593:692   */\n    tag_32:\n        /* \"#utility.yul\":645:651   */\n      0x00\n        /* \"#utility.yul\":679:684   */\n      dup2\n        /* \"#utility.yul\":673:685   */\n      mload\n        /* \"#utility.yul\":663:685   */\n      swap1\n      pop\n        /* \"#utility.yul\":593:692   */\n      swap2\n      swap1\n      pop\n      jump\t// out\n        /* \"#utility.yul\":698:867   */\n    tag_33:\n        /* \"#utility.yul\":782:793   */\n      0x00\n        /* \"#utility.yul\":816:822   */\n      dup3\n        /* \"#utility.yul\":811:814   */\n      dup3\n        /* \"#utility.yul\":804:823   */\n      mstore\n        /* \"#utility.yul\":856:860   */\n      0x20\n        /* \"#utility.yul\":851:854   */\n      dup3\n        /* \"#utility.yul\":847:861   */\n      add\n        /* \"#utility.yul\":832:861   */\n      swap1\n      pop\n        /* \"#utility.yul\":698:867   */\n      swap3\n      swap2\n      pop\n      pop\n      jump\t// out\n        /* \"#utility.yul\":873:1012   */\n    tag_34:\n        /* \"#utility.yul\":962:968   */\n      dup3\n        /* \"#utility.yul\":957:960   */\n      dup2\n        /* \"#utility.yul\":952:955   */\n      dup4\n        /* \"#utility.yul\":946:969   */\n      mcopy\n        /* \"#utility.yul\":1003:1004   */\n      0x00\n        /* \"#utility.yul\":994:1000   */\n      dup4\n        /* \"#utility.yul\":989:992   */\n      dup4\n        /* \"#utility.yul\":985:1001   */\n      add\n        /* \"#utility.yul\":978:1005   */\n      mstore\n        /* \"#utility.yul\":873:1012   */\n      pop\n      pop\n      pop\n      jump\t// out\n        /* \"#utility.yul\":1018:1120   */\n    tag_35:\n        /* \"#utility.yul\":1059:1065   */\n      0x00\n        /* \"#utility.yul\":1110:1112   */\n      0x1f\n        /* \"#utility.yul\":1106:1113   */\n      not\n        /* \"#utility.yul\":1101:1103   */\n      0x1f\n        /* \"#utility.yul\":1094:1099   */\n      dup4\n        /* \"#utility.yul\":1090:1104   */\n      add\n        /* \"#utility.yul\":1086:1114   */\n      and\n        /* \"#utility.yul\":1076:1114   */\n      swap1\n      pop\n        /* \"#utility.yul\":1018:1120   */\n      swap2\n      swap1\n      pop\n      jump\t// out\n        /* \"#utility.yul\":1126:1503   */\n    tag_36:\n        /* \"#utility.yul\":1214:1217   */\n      0x00\n        /* \"#utility.yul\":1242:1281   */\n      tag_68\n        /* \"#utility.yul\":1275:1280   */\n      dup3\n        /* \"#utility.yul\":1242:1281   */\n      tag_32\n      jump\t// in\n    tag_68:\n        /* \"#utility.yul\":1297:1368   */\n      tag_69\n        /* \"#utility.yul\":1361:1367   */\n      dup2\n        /* \"#utility.yul\":1356:1359   */\n      dup6\n        /* \"#utility.yul\":1297:1368   */\n      tag_33\n      jump\t// in\n    tag_69:\n        /* \"#utility.yul\":1290:1368   */\n      swap4\n      pop\n        /* \"#utility.yul\":1377:1442   */\n      tag_70\n        /* \"#utility.yul\":1435:1441   */\n      dup2\n        /* \"#utility.yul\":1430:1433   */\n      dup6\n        /* \"#utility.yul\":1423:1427   */\n      0x20\n        /* \"#utility.yul\":1416:1421   */\n      dup7\n        /* \"#utility.yul\":1412:1428   */\n      add\n        /* \"#utility.yul\":1377:1442   */\n      tag_34\n      jump\t// in\n    tag_70:\n        /* \"#utility.yul\":1467:1496   */\n      tag_71\n        /* \"#utility.yul\":1489:1495   */\n      dup2\n        /* \"#utility.yul\":1467:1496   */\n      tag_35\n      jump\t// in\n    tag_71:\n        /* \"#utility.yul\":1462:1465   */\n      dup5\n        /* \"#utility.yul\":1458:1497   */\n      add\n        /* \"#utility.yul\":1451:1497   */\n      swap2\n      pop\n        /* \"#utility.yul\":1218:1503   */\n      pop\n        /* \"#utility.yul\":1126:1503   */\n      swap3\n      swap2\n      pop\n      pop\n      jump\t// out\n        /* \"#utility.yul\":1509:1822   */\n    tag_16:\n        /* \"#utility.yul\":1622:1626   */\n      0x00\n        /* \"#utility.yul\":1660:1662   */\n      0x20\n        /* \"#utility.yul\":1649:1658   */\n      dup3\n        /* \"#utility.yul\":1645:1663   */\n      add\n        /* \"#utility.yul\":1637:1663   */\n      swap1\n      pop\n        /* \"#utility.yul\":1709:1718   */\n      dup2\n        /* \"#utility.yul\":1703:1707   */\n      dup2\n        /* \"#utility.yul\":1699:1719   */\n      sub\n        /* \"#utility.yul\":1695:1696   */\n      0x00\n        /* \"#utility.yul\":1684:1693   */\n      dup4\n        /* \"#utility.yul\":1680:1697   */\n      add\n        /* \"#utility.yul\":1673:1720   */\n      mstore\n        /* \"#utility.yul\":1737:1815   */\n      tag_73\n        /* \"#utility.yul\":1810:1814   */\n      dup2\n        /* \"#utility.yul\":1801:1807   */\n      dup5\n        /* \"#utility.yul\":1737:1815   */\n      tag_36\n      jump\t// in\n    tag_73:\n        /* \"#utility.yul\":1729:1815   */\n      swap1\n      pop\n        /* \"#utility.yul\":1509:1822   */\n      swap3\n      swap2\n      pop\n      pop\n      jump\t// out\n        /* \"#utility.yul\":1828:2008   */\n    tag_37:\n        /* \"#utility.yul\":1876:1953   */\n      0x4e487b7100000000000000000000000000000000000000000000000000000000\n        /* \"#utility.yul\":1873:1874   */\n      0x00\n        /* \"#utility.yul\":1866:1954   */\n      mstore\n        /* \"#utility.yul\":1973:1977   */\n      0x41\n        /* \"#utility.yul\":1970:1971   */\n      0x04\n        /* \"#utility.yul\":1963:1978   */\n      mstore\n        /* \"#utility.yul\":1997:2001   */\n      0x24\n        /* \"#utility.yul\":1994:1995   */\n      0x00\n        /* \"#utility.yul\":1987:2002   */\n      revert\n        /* \"#utility.yul\":2014:2194   */\n    tag_38:\n        /* \"#utility.yul\":2062:2139   */\n      0x4e487b7100000000000000000000000000000000000000000000000000000000\n        /* \"#utility.yul\":2059:2060   */\n      0x00\n        /* \"#utility.yul\":2052:2140   */\n      mstore\n        /* \"#utility.yul\":2159:2163   */\n      0x22\n        /* \"#utility.yul\":2156:2157   */\n      0x04\n        /* \"#utility.yul\":2149:2164   */\n      mstore\n        /* \"#utility.yul\":2183:2187   */\n      0x24\n        /* \"#utility.yul\":2180:2181   */\n      0x00\n        /* \"#utility.yul\":2173:2188   */\n      revert\n        /* \"#utility.yul\":2200:2520   */\n    tag_24:\n        /* \"#utility.yul\":2244:2250   */\n      0x00\n        /* \"#utility.yul\":2281:2282   */\n      0x02\n        /* \"#utility.yul\":2275:2279   */\n      dup3\n        /* \"#utility.yul\":2271:2283   */\n      div\n        /* \"#utility.yul\":2261:2283   */\n      swap1\n      pop\n        /* \"#utility.yul\":2328:2329   */\n      0x01\n        /* \"#utility.yul\":2322:2326   */\n      dup3\n        /* \"#utility.yul\":2318:2330   */\n      and\n        /* \"#utility.yul\":2349:2367   */\n      dup1\n        /* \"#utility.yul\":2339:2420   */\n      tag_77\n      jumpi\n        /* \"#utility.yul\":2405:2409   */\n      0x7f\n        /* \"#utility.yul\":2397:2403   */\n      dup3\n        /* \"#utility.yul\":2393:2410   */\n      and\n        /* \"#utility.yul\":2383:2410   */\n      swap2\n      pop\n        /* \"#utility.yul\":2339:2420   */\n    tag_77:\n        /* \"#utility.yul\":2467:2469   */\n      0x20\n        /* \"#utility.yul\":2459:2465   */\n      dup3\n        /* \"#utility.yul\":2456:2470   */\n      lt\n        /* \"#utility.yul\":2436:2454   */\n      dup2\n        /* \"#utility.yul\":2433:2471   */\n      sub\n        /* \"#utility.yul\":2430:2514   */\n      tag_78\n      jumpi\n        /* \"#utility.yul\":2486:2504   */\n      tag_79\n      tag_38\n      jump\t// in\n    tag_79:\n        /* \"#utility.yul\":2430:2514   */\n    tag_78:\n        /* \"#utility.yul\":2251:2520   */\n      pop\n        /* \"#utility.yul\":2200:2520   */\n      swap2\n      swap1\n      pop\n      jump\t// out\n        /* \"#utility.yul\":2526:2667   */\n    tag_39:\n        /* \"#utility.yul\":2575:2579   */\n      0x00\n        /* \"#utility.yul\":2598:2601   */\n      dup2\n        /* \"#utility.yul\":2590:2601   */\n      swap1\n      pop\n        /* \"#utility.yul\":2621:2624   */\n      dup2\n        /* \"#utility.yul\":2618:2619   */\n      0x00\n        /* \"#utility.yul\":2611:2625   */\n      mstore\n        /* \"#utility.yul\":2655:2659   */\n      0x20\n        /* \"#utility.yul\":2652:2653   */\n      0x00\n        /* \"#utility.yul\":2642:2660   */\n      keccak256\n        /* \"#utility.yul\":2634:2660   */\n      swap1\n      pop\n        /* \"#utility.yul\":2526:2667   */\n      swap2\n      swap1\n      pop\n      jump\t// out\n        /* \"#utility.yul\":2673:2766   */\n    tag_40:\n        /* \"#utility.yul\":2710:2716   */\n      0x00\n        /* \"#utility.yul\":2757:2759   */\n      0x20\n        /* \"#utility.yul\":2752:2754   */\n      0x1f\n        /* \"#utility.yul\":2745:2750   */\n      dup4\n        /* \"#utility.yul\":2741:2755   */\n      add\n        /* \"#utility.yul\":2737:2760   */\n      div\n        /* \"#utility.yul\":2727:2760   */\n      swap1\n      pop\n        /* \"#utility.yul\":2673:2766   */\n      swap2\n      swap1\n      pop\n      jump\t// out\n        /* \"#utility.yul\":2772:2879   */\n    tag_41:\n        /* \"#utility.yul\":2816:2824   */\n      0x00\n        /* \"#utility.yul\":2866:2871   */\n      dup3\n        /* \"#utility.yul\":2860:2864   */\n      dup3\n        /* \"#utility.yul\":2856:2872   */\n      shl\n        /* \"#utility.yul\":2835:2872   */\n      swap1\n      pop\n        /* \"#utility.yul\":2772:2879   */\n      swap3\n      swap2\n      pop\n      pop\n      jump\t// out\n        /* \"#utility.yul\":2885:3278   */\n    tag_42:\n        /* \"#utility.yul\":2954:2960   */\n      0x00\n        /* \"#utility.yul\":3004:3005   */\n      0x08\n        /* \"#utility.yul\":2992:3002   */\n      dup4\n        /* \"#utility.yul\":2988:3006   */\n      mul\n        /* \"#utility.yul\":3027:3124   */\n      tag_84\n        /* \"#utility.yul\":3057:3123   */\n      0xffffffffffffffffffffffffffffffffffffffffffffffffffffffffffffffff\n        /* \"#utility.yul\":3046:3055   */\n      dup3\n        /* \"#utility.yul\":3027:3124   */\n      tag_41\n      jump\t// in\n    tag_84:\n        /* \"#utility.yul\":3145:3184   */\n      tag_85\n        /* \"#utility.yul\":3175:3183   */\n      dup7\n        /* \"#utility.yul\":3164:3173   */\n      dup4\n        /* \"#utility.yul\":3145:3184   */\n      tag_41\n      jump\t// in\n    tag_85:\n        /* \"#utility.yul\":3133:3184   */\n      swap6\n      pop\n        /* \"#utility.yul\":3217:3221   */\n      dup1\n        /* \"#utility.yul\":3213:3222   */\n      not\n        /* \"#utility.yul\":3206:3211   */\n      dup5\n        /* \"#utility.yul\":3202:3223   */\n      and\n        /* \"#utility.yul\":3193:3223   */\n      swap4\n      pop\n        /* \"#utility.yul\":3266:3270   */\n      dup1\n        /* \"#utility.yul\":3256:3264   */\n      dup7\n        /* \"#utility.yul\":3252:3271   */\n      and\n        /* \"#utility.yul\":3245:3250   */\n      dup5\n        /* \"#utility.yul\":3242:3272   */\n      or\n        /* \"#utility.yul\":3232:3272   */\n      swap3\n      pop\n        /* \"#utility.yul\":2961:3278   */\n      pop\n      pop\n        /* \"#utility.yul\":2885:3278   */\n      swap4\n      swap3\n      pop\n      pop\n      pop\n      jump\t// out\n        /* \"#utility.yul\":3284:3361   */\n    tag_43:\n        /* \"#utility.yul\":3321:3328   */\n      0x00\n        /* \"#utility.yul\":3350:3355   */\n      dup2\n        /* \"#utility.yul\":3339:3355   */\n      swap1\n      pop\n        /* \"#utility.yul\":3284:3361   */\n      swap2\n      swap1\n      pop\n      jump\t// out\n        /* \"#utility.yul\":3367:3427   */\n    tag_44:\n        /* \"#utility.yul\":3395:3398   */\n      0x00\n        /* \"#utility.yul\":3416:3421   */\n      dup2\n        /* \"#utility.yul\":3409:3421   */\n      swap1\n      pop\n        /* \"#utility.yul\":3367:3427   */\n      swap2\n      swap1\n      pop\n      jump\t// out\n        /* \"#utility.yul\":3433:3575   */\n    tag_45:\n        /* \"#utility.yul\":3483:3492   */\n      0x00\n        /* \"#utility.yul\":3516:3569   */\n      tag_89\n        /* \"#utility.yul\":3534:3568   */\n      tag_90\n        /* \"#utility.yul\":3543:3567   */\n      tag_91\n        /* \"#utility.yul\":3561:3566   */\n      dup5\n        /* \"#utility.yul\":3543:3567   */\n      tag_43\n      jump\t// in\n    tag_91:\n        /* \"#utility.yul\":3534:3568   */\n      tag_44\n      jump\t// in\n    tag_90:\n        /* \"#utility.yul\":3516:3569   */\n      tag_43\n      jump\t// in\n    tag_89:\n        /* \"#utility.yul\":3503:3569   */\n      swap1\n      pop\n        /* \"#utility.yul\":3433:3575   */\n      swap2\n      swap1\n      pop\n      jump\t// out\n        /* \"#utility.yul\":3581:3656   */\n    tag_46:\n        /* \"#utility.yul\":3624:3627   */\n      0x00\n        /* \"#utility.yul\":3645:3650   */\n      dup2\n        /* \"#utility.yul\":3638:3650   */\n      swap1\n      pop\n        /* \"#utility.yul\":3581:3656   */\n      swap2\n      swap1\n      pop\n      jump\t// out\n        /* \"#utility.yul\":3662:3931   */\n    tag_47:\n        /* \"#utility.yul\":3772:3811   */\n      tag_94\n        /* \"#utility.yul\":3803:3810   */\n      dup4\n        /* \"#utility.yul\":3772:3811   */\n      tag_45\n      jump\t// in\n    tag_94:\n        /* \"#utility.yul\":3833:3924   */\n      tag_95\n        /* \"#utility.yul\":3882:3923   */\n      tag_96\n        /* \"#utility.yul\":3906:3922   */\n      dup3\n        /* \"#utility.yul\":3882:3923   */\n      tag_46\n      jump\t// in\n    tag_96:\n        /* \"#utility.yul\":3874:3880   */\n      dup5\n        /* \"#utility.yul\":3867:3871   */\n      dup5\n        /* \"#utility.yul\":3861:3872   */\n      sload\n        /* \"#utility.yul\":3833:3924   */\n      tag_42\n      jump\t// in\n    tag_95:\n        /* \"#utility.yul\":3827:3831   */\n      dup3\n        /* \"#utility.yul\":3820:3925   */\n      sstore\n        /* \"#utility.yul\":3738:3931   */\n      pop\n        /* \"#utility.yul\":3662:3931   */\n      pop\n      pop\n      pop\n      jump\t// out\n        /* \"#utility.yul\":3937:4010   */\n    tag_48:\n        /* \"#utility.yul\":3982:3985   */\n      0x00\n        /* \"#utility.yul\":4003:4004   */\n      0x00\n        /* \"#utility.yul\":3996:4004   */\n      swap1\n      pop\n        /* \"#utility.yul\":3937:4010   */\n      swap1\n      jump\t// out\n        /* \"#utility.yul\":4016:4205   */\n    tag_49:\n        /* \"#utility.yul\":4093:4125   */\n      tag_99\n      tag_48\n      jump\t// in\n    tag_99:\n        /* \"#utility.yul\":4134:4199   */\n      tag_100\n        /* \"#utility.yul\":4192:4198   */\n      dup2\n        /* \"#utility.yul\":4184:4190   */\n      dup5\n        /* \"#utility.yul\":4178:4182   */\n      dup5\n        /* \"#utility.yul\":4134:4199   */\n      tag_47\n      jump\t// in\n    tag_100:\n        /* \"#utility.yul\":4069:4205   */\n      pop\n        /* \"#utility.yul\":4016:4205   */\n      pop\n      pop\n      jump\t// out\n        /* \"#utility.yul\":4211:4397   */\n    tag_50:\n        /* \"#utility.yul\":4271:4391   */\n    tag_102:\n        /* \"#utility.yul\":4288:4291   */\n      dup2\n        /* \"#utility.yul\":4281:4286   */\n      dup2\n        /* \"#utility.yul\":4278:4292   */\n      lt\n        /* \"#utility.yul\":4271:4391   */\n      iszero\n      tag_104\n      jumpi\n        /* \"#utility.yul\":4342:4381   */\n      tag_105\n        /* \"#utility.yul\":4379:4380   */\n      0x00\n        /* \"#utility.yul\":4372:4377   */\n      dup3\n        /* \"#utility.yul\":4342:4381   */\n      tag_49\n      jump\t// in\n    tag_105:\n        /* \"#utility.yul\":4315:4316   */\n      0x01\n        /* \"#utility.yul\":4308:4313   */\n      dup2\n        /* \"#utility.yul\":4304:4317   */\n      add\n        /* \"#utility.yul\":4295:4317   */\n      swap1\n      pop\n        /* \"#utility.yul\":4271:4391   */\n      jump(tag_102)\n    tag_104:\n        /* \"#utility.yul\":4211:4397   */\n      pop\n      pop\n      jump\t// out\n        /* \"#utility.yul\":4403:4946   */\n    tag_51:\n        /* \"#utility.yul\":4504:4506   */\n      0x1f\n        /* \"#utility.yul\":4499:4502   */\n      dup3\n        /* \"#utility.yul\":4496:4507   */\n      gt\n        /* \"#utility.yul\":4493:4939   */\n      iszero\n      tag_107\n      jumpi\n        /* \"#utility.yul\":4538:4576   */\n      tag_108\n        /* \"#utility.yul\":4570:4575   */\n      dup2\n        /* \"#utility.yul\":4538:4576   */\n      tag_39\n      jump\t// in\n    tag_108:\n        /* \"#utility.yul\":4622:4651   */\n      tag_109\n        /* \"#utility.yul\":4640:4650   */\n      dup5\n        /* \"#utility.yul\":4622:4651   */\n      tag_40\n      jump\t// in\n    tag_109:\n        /* \"#utility.yul\":4612:4620   */\n      dup2\n        /* \"#utility.yul\":4608:4652   */\n      add\n        /* \"#utility.yul\":4805:4807   */\n      0x20\n        /* \"#utility.yul\":4793:4803   */\n      dup6\n        /* \"#utility.yul\":4790:4808   */\n      lt\n        /* \"#utility.yul\":4787:4836   */\n      iszero\n      tag_110\n      jumpi\n        /* \"#utility.yul\":4826:4834   */\n      dup2\n        /* \"#utility.yul\":4811:4834   */\n      swap1\n      pop\n        /* \"#utility.yul\":4787:4836   */\n    tag_110:\n        /* \"#utility.yul\":4849:4929   */\n      tag_111\n        /* \"#utility.yul\":4905:4927   */\n      tag_112\n        /* \"#utility.yul\":4923:4926   */\n      dup6\n        /* \"#utility.yul\":4905:4927   */\n      tag_40\n      jump\t// in\n    tag_112:\n        /* \"#utility.yul\":4895:4903   */\n      dup4\n        /* \"#utility.yul\":4891:4928   */\n      add\n        /* \"#utility.yul\":4878:4889   */\n      dup3\n        /* \"#utility.yul\":4849:4929   */\n      tag_50\n      jump\t// in\n    tag_111:\n        /* \"#utility.yul\":4508:4939   */\n      pop\n      pop\n        /* \"#utility.yul\":4493:4939   */\n    tag_107:\n        /* \"#utility.yul\":4403:4946   */\n      pop\n      pop\n      pop\n      jump\t// out\n        /* \"#utility.yul\":4952:5069   */\n    tag_52:\n        /* \"#utility.yul\":5006:5014   */\n      0x00\n        /* \"#utility.yul\":5056:5061   */\n      dup3\n        /* \"#utility.yul\":5050:5054   */\n      dup3\n        /* \"#utility.yul\":5046:5062   */\n      shr\n        /* \"#utility.yul\":5025:5062   */\n      swap1\n      pop\n        /* \"#utility.yul\":4952:5069   */\n      swap3\n      swap2\n      pop\n      pop\n      jump\t// out\n        /* \"#utility.yul\":5075:5244   */\n    tag_53:\n        /* \"#utility.yul\":5119:5125   */\n      0x00\n        /* \"#utility.yul\":5152:5203   */\n      tag_115\n        /* \"#utility.yul\":5200:5201   */\n      0x00\n        /* \"#utility.yul\":5196:5202   */\n      not\n        /* \"#utility.yul\":5188:5193   */\n      dup5\n        /* \"#utility.yul\":5185:5186   */\n      0x08\n        /* \"#utility.yul\":5181:5194   */\n      mul\n        /* \"#utility.yul\":5152:5203   */\n      tag_52\n      jump\t// in\n    tag_115:\n        /* \"#utility.yul\":5148:5204   */\n      not\n        /* \"#utility.yul\":5233:5237   */\n      dup1\n        /* \"#utility.yul\":5227:5231   */\n      dup4\n        /* \"#utility.yul\":5223:5238   */\n      and\n        /* \"#utility.yul\":5213:5238   */\n      swap2\n      pop\n        /* \"#utility.yul\":5126:5244   */\n      pop\n        /* \"#utility.yul\":5075:5244   */\n      swap3\n      swap2\n      pop\n      pop\n      jump\t// out\n        /* \"#utility.yul\":5249:5544   */\n    tag_54:\n        /* \"#utility.yul\":5325:5329   */\n      0x00\n        /* \"#utility.yul\":5471:5500   */\n      tag_117\n        /* \"#utility.yul\":5496:5499   */\n      dup4\n        /* \"#utility.yul\":5490:5494   */\n      dup4\n        /* \"#utility.yul\":5471:5500   */\n      tag_53\n      jump\t// in\n    tag_117:\n        /* \"#utility.yul\":5463:5500   */\n      swap2\n      pop\n        /* \"#utility.yul\":5533:5536   */\n      dup3\n        /* \"#utility.yul\":5530:5531   */\n      0x02\n        /* \"#utility.yul\":5526:5537   */\n      mul\n        /* \"#utility.yul\":5520:5524   */\n      dup3\n        /* \"#utility.yul\":5517:5538   */\n      or\n        /* \"#utility.yul\":5509:5538   */\n      swap1\n      pop\n        /* \"#utility.yul\":5249:5544   */\n      swap3\n      swap2\n      pop\n      pop\n      jump\t// out\n        /* \"#utility.yul\":5549:6944   */\n    tag_22:\n        /* \"#utility.yul\":5666:5703   */\n      tag_119\n        /* \"#utility.yul\":5699:5702   */\n      dup3\n        /* \"#utility.yul\":5666:5703   */\n      tag_32\n      jump\t// in\n    tag_119:\n        /* \"#utility.yul\":5768:5786   */\n      0xffffffffffffffff\n        /* \"#utility.yul\":5760:5766   */\n      dup2\n        /* \"#utility.yul\":5757:5787   */\n      gt\n        /* \"#utility.yul\":5754:5810   */\n      iszero\n      tag_120\n      jumpi\n        /* \"#utility.yul\":5790:5808   */\n      tag_121\n      tag_37\n      jump\t// in\n    tag_121:\n        /* \"#utility.yul\":5754:5810   */\n    tag_120:\n        /* \"#utility.yul\":5834:5872   */\n      tag_122\n        /* \"#utility.yul\":5866:5870   */\n      dup3\n        /* \"#utility.yul\":5860:5871   */\n      sload\n        /* \"#utility.yul\":5834:5872   */\n      tag_24\n      jump\t// in\n    tag_122:\n        /* \"#utility.yul\":5919:5986   */\n      tag_123\n        /* \"#utility.yul\":5979:5985   */\n      dup3\n        /* \"#utility.yul\":5971:5977   */\n      dup3\n        /* \"#utility.yul\":5965:5969   */\n      dup6\n        /* \"#utility.yul\":5919:5986   */\n      tag_51\n      jump\t// in\n    tag_123:\n        /* \"#utility.yul\":6013:6014   */\n      0x00\n        /* \"#utility.yul\":6037:6041   */\n      0x20\n        /* \"#utility.yul\":6024:6041   */\n      swap1\n      pop\n        /* \"#utility.yul\":6069:6071   */\n      0x1f\n        /* \"#utility.yul\":6061:6067   */\n      dup4\n        /* \"#utility.yul\":6058:6072   */\n      gt\n        /* \"#utility.yul\":6086:6087   */\n      0x01\n        /* \"#utility.yul\":6081:6699   */\n      dup2\n      eq\n      tag_125\n      jumpi\n        /* \"#utility.yul\":6743:6744   */\n      0x00\n        /* \"#utility.yul\":6760:6766   */\n      dup5\n        /* \"#utility.yul\":6757:6834   */\n      iszero\n      tag_126\n      jumpi\n        /* \"#utility.yul\":6809:6818   */\n      dup3\n        /* \"#utility.yul\":6804:6807   */\n      dup8\n        /* \"#utility.yul\":6800:6819   */\n      add\n        /* \"#utility.yul\":6794:6820   */\n      mload\n        /* \"#utility.yul\":6785:6820   */\n      swap1\n      pop\n        /* \"#utility.yul\":6757:6834   */\n    tag_126:\n        /* \"#utility.yul\":6860:6927   */\n      tag_127\n        /* \"#utility.yul\":6920:6926   */\n      dup6\n        /* \"#utility.yul\":6913:6918   */\n      dup3\n        /* \"#utility.yul\":6860:6927   */\n      tag_54\n      jump\t// in\n    tag_127:\n        /* \"#utility.yul\":6854:6858   */\n      dup7\n        /* \"#utility.yul\":6847:6928   */\n      sstore\n        /* \"#utility.yul\":6716:6938   */\n      pop\n        /* \"#utility.yul\":6051:6938   */\n      jump(tag_124)\n        /* \"#utility.yul\":6081:6699   */\n    tag_125:\n        /* \"#utility.yul\":6133:6137   */\n      0x1f\n        /* \"#utility.yul\":6129:6138   */\n      not\n        /* \"#utility.yul\":6121:6127   */\n      dup5\n        /* \"#utility.yul\":6117:6139   */\n      and\n        /* \"#utility.yul\":6167:6204   */\n      tag_128\n        /* \"#utility.yul\":6199:6203   */\n      dup7\n        /* \"#utility.yul\":6167:6204   */\n      tag_39\n      jump\t// in\n    tag_128:\n        /* \"#utility.yul\":6226:6227   */\n      0x00\n        /* \"#utility.yul\":6240:6448   */\n    tag_129:\n        /* \"#utility.yul\":6254:6261   */\n      dup3\n        /* \"#utility.yul\":6251:6252   */\n      dup2\n        /* \"#utility.yul\":6248:6262   */\n      lt\n        /* \"#utility.yul\":6240:6448   */\n      iszero\n      tag_131\n      jumpi\n        /* \"#utility.yul\":6333:6342   */\n      dup5\n        /* \"#utility.yul\":6328:6331   */\n      dup10\n        /* \"#utility.yul\":6324:6343   */\n      add\n        /* \"#utility.yul\":6318:6344   */\n      mload\n        /* \"#utility.yul\":6310:6316   */\n      dup3\n        /* \"#utility.yul\":6303:6345   */\n      sstore\n        /* \"#utility.yul\":6384:6385   */\n      0x01\n        /* \"#utility.yul\":6376:6382   */\n      dup3\n        /* \"#utility.yul\":6372:6386   */\n      add\n        /* \"#utility.yul\":6362:6386   */\n      swap2\n      pop\n        /* \"#utility.yul\":6431:6433   */\n      0x20\n        /* \"#utility.yul\":6420:6429   */\n      dup6\n        /* \"#utility.yul\":6416:6434   */\n      add\n        /* \"#utility.yul\":6403:6434   */\n      swap5\n      pop\n        /* \"#utility.yul\":6277:6281   */\n      0x20\n        /* \"#utility.yul\":6274:6275   */\n      dup2\n        /* \"#utility.yul\":6270:6282   */\n      add\n        /* \"#utility.yul\":6265:6282   */\n      swap1\n      pop\n        /* \"#utility.yul\":6240:6448   */\n      jump(tag_129)\n    tag_131:\n        /* \"#utility.yul\":6476:6482   */\n      dup7\n        /* \"#utility.yul\":6467:6474   */\n      dup4\n        /* \"#utility.yul\":6464:6483   */\n      lt\n        /* \"#utility.yul\":6461:6640   */\n      iszero\n      tag_132\n      jumpi\n        /* \"#utility.yul\":6534:6543   */\n      dup5\n        /* \"#utility.yul\":6529:6532   */\n      dup10\n        /* \"#utility.yul\":6525:6544   */\n      add\n        /* \"#utility.yul\":6519:6545   */\n      mload\n        /* \"#utility.yul\":6577:6625   */\n      tag_133\n        /* \"#utility.yul\":6619:6623   */\n      0x1f\n        /* \"#utility.yul\":6611:6617   */\n      dup10\n        /* \"#utility.yul\":6607:6624   */\n      and\n        /* \"#utility.yul\":6596:6605   */\n      dup3\n        /* \"#utility.yul\":6577:6625   */\n      tag_53\n      jump\t// in\n    tag_133:\n        /* \"#utility.yul\":6569:6575   */\n      dup4\n        /* \"#utility.yul\":6562:6626   */\n      sstore\n        /* \"#utility.yul\":6484:6640   */\n      pop\n        /* \"#utility.yul\":6461:6640   */\n    tag_132:\n        /* \"#utility.yul\":6686:6687   */\n      0x01\n        /* \"#utility.yul\":6682:6683   */\n      0x02\n        /* \"#utility.yul\":6674:6680   */\n      dup9\n        /* \"#utility.yul\":6670:6684   */\n      mul\n        /* \"#utility.yul\":6666:6688   */\n      add\n        /* \"#utility.yul\":6660:6664   */\n      dup9\n        /* \"#utility.yul\":6653:6689   */\n      sstore\n        /* \"#utility.yul\":6088:6699   */\n      pop\n      pop\n      pop\n        /* \"#utility.yul\":6051:6938   */\n    tag_124:\n      pop\n        /* \"#utility.yul\":5641:6944   */\n      pop\n      pop\n      pop\n        /* \"#utility.yul\":5549:6944   */\n      pop\n      pop\n      jump\t// out\n\n    auxdata: 0xa2646970667358221220bb39be1e4746376f579258bef227e26d2e7eb3008aba8d1e2749467f43e33b0864736f6c634300081e0033\n}\n",
				"bytecode": {
					"linkReferences": {},
					"object": "6080604052348015600e575f5ffd5b506105ee8061001c5f395ff3fe608060405234801561000f575f5ffd5b506004361061004a575f3560e01c80635c60da1b1461004e578063c29855781461006c578063f2c31bd914610076578063f851a44014610094575b5f5ffd5b6100566100b2565b604051610063919061020d565b60405180910390f35b6100746100d6565b005b61007e61011d565b60405161008b9190610296565b60405180910390f35b61009c6101a9565b6040516100a9919061020d565b60405180910390f35b5f5f9054906101000a900473ffffffffffffffffffffffffffffffffffffffff1681565b6040518060400160405280600381526020017f6e657700000000000000000000000000000000000000000000000000000000008152506002908161011a91906104e9565b50565b6002805461012a90610310565b80601f016020809104026020016040519081016040528092919081815260200182805461015690610310565b80156101a15780601f10610178576101008083540402835291602001916101a1565b820191905f5260205f20905b81548152906001019060200180831161018457829003601f168201915b505050505081565b60015f9054906101000a900473ffffffffffffffffffffffffffffffffffffffff1681565b5f73ffffffffffffffffffffffffffffffffffffffff82169050919050565b5f6101f7826101ce565b9050919050565b610207816101ed565b82525050565b5f6020820190506102205f8301846101fe565b92915050565b5f81519050919050565b5f82825260208201905092915050565b8281835e5f83830152505050565b5f601f19601f8301169050919050565b5f61026882610226565b6102728185610230565b9350610282818560208601610240565b61028b8161024e565b840191505092915050565b5f6020820190508181035f8301526102ae818461025e565b905092915050565b7f4e487b71000000000000000000000000000000000000000000000000000000005f52604160045260245ffd5b7f4e487b71000000000000000000000000000000000000000000000000000000005f52602260045260245ffd5b5f600282049050600182168061032757607f821691505b60208210810361033a576103396102e3565b5b50919050565b5f819050815f5260205f209050919050565b5f6020601f8301049050919050565b5f82821b905092915050565b5f6008830261039c7fffffffffffffffffffffffffffffffffffffffffffffffffffffffffffffffff82610361565b6103a68683610361565b95508019841693508086168417925050509392505050565b5f819050919050565b5f819050919050565b5f6103ea6103e56103e0846103be565b6103c7565b6103be565b9050919050565b5f819050919050565b610403836103d0565b61041761040f826103f1565b84845461036d565b825550505050565b5f5f905090565b61042e61041f565b6104398184846103fa565b505050565b5b8181101561045c576104515f82610426565b60018101905061043f565b5050565b601f8211156104a15761047281610340565b61047b84610352565b8101602085101561048a578190505b61049e61049685610352565b83018261043e565b50505b505050565b5f82821c905092915050565b5f6104c15f19846008026104a6565b1980831691505092915050565b5f6104d983836104b2565b9150826002028217905092915050565b6104f282610226565b67ffffffffffffffff81111561050b5761050a6102b6565b5b6105158254610310565b610520828285610460565b5f60209050601f831160018114610551575f841561053f578287015190505b61054985826104ce565b8655506105b0565b601f19841661055f86610340565b5f5b8281101561058657848901518255600182019150602085019450602081019050610561565b868310156105a3578489015161059f601f8916826104b2565b8355505b6001600288020188555050505b50505050505056fea2646970667358221220bb39be1e4746376f579258bef227e26d2e7eb3008aba8d1e2749467f43e33b0864736f6c634300081e0033",
					"opcodes": "PUSH1 0x80 PUSH1 0x40 MSTORE CALLVALUE DUP1 ISZERO PUSH1 0xE JUMPI PUSH0 PUSH0 REVERT JUMPDEST POP PUSH2 0x5EE DUP1 PUSH2 0x1C PUSH0 CODECOPY PUSH0 RETURN INVALID PUSH1 0x80 PUSH1 0x40 MSTORE CALLVALUE DUP1 ISZERO PUSH2 0xF JUMPI PUSH0 PUSH0 REVERT JUMPDEST POP PUSH1 0x4 CALLDATASIZE LT PUSH2 0x4A JUMPI PUSH0 CALLDATALOAD PUSH1 0xE0 SHR DUP1 PUSH4 0x5C60DA1B EQ PUSH2 0x4E JUMPI DUP1 PUSH4 0xC2985578 EQ PUSH2 0x6C JUMPI DUP1 PUSH4 0xF2C31BD9 EQ PUSH2 0x76 JUMPI DUP1 PUSH4 0xF851A440 EQ PUSH2 0x94 JUMPI JUMPDEST PUSH0 PUSH0 REVERT JUMPDEST PUSH2 0x56 PUSH2 0xB2 JUMP JUMPDEST PUSH1 0x40 MLOAD PUSH2 0x63 SWAP2 SWAP1 PUSH2 0x20D JUMP JUMPDEST PUSH1 0x40 MLOAD DUP1 SWAP2 SUB SWAP1 RETURN JUMPDEST PUSH2 0x74 PUSH2 0xD6 JUMP JUMPDEST STOP JUMPDEST PUSH2 0x7E PUSH2 0x11D JUMP JUMPDEST PUSH1 0x40 MLOAD PUSH2 0x8B SWAP2 SWAP1 PUSH2 0x296 JUMP JUMPDEST PUSH1 0x40 MLOAD DUP1 SWAP2 SUB SWAP1 RETURN JUMPDEST PUSH2 0x9C PUSH2 0x1A9 JUMP JUMPDEST PUSH1 0x40 MLOAD PUSH2 0xA9 SWAP2 SWAP1 PUSH2 0x20D JUMP JUMPDEST PUSH1 0x40 MLOAD DUP1 SWAP2 SUB SWAP1 RETURN JUMPDEST PUSH0 PUSH0 SWAP1 SLOAD SWAP1 PUSH2 0x100 EXP SWAP1 DIV PUSH20 0xFFFFFFFFFFFFFFFFFFFFFFFFFFFFFFFFFFFFFFFF AND DUP2 JUMP JUMPDEST PUSH1 0x40 MLOAD DUP1 PUSH1 0x40 ADD PUSH1 0x40 MSTORE DUP1 PUSH1 0x3 DUP2 MSTORE PUSH1 0x20 ADD PUSH32 0x6E65770000000000000000000000000000000000000000000000000000000000 DUP2 MSTORE POP PUSH1 0x2 SWAP1 DUP2 PUSH2 0x11A SWAP2 SWAP1 PUSH2 0x4E9 JUMP JUMPDEST POP JUMP JUMPDEST PUSH1 0x2 DUP1 SLOAD PUSH2 0x12A SWAP1 PUSH2 0x310 JUMP JUMPDEST DUP1 PUSH1 0x1F ADD PUSH1 0x20 DUP1 SWAP2 DIV MUL PUSH1 0x20 ADD PUSH1 0x40 MLOAD SWAP1 DUP2 ADD PUSH1 0x40 MSTORE DUP1 SWAP3 SWAP2 SWAP1 DUP2 DUP2 MSTORE PUSH1 0x20 ADD DUP3 DUP1 SLOAD PUSH2 0x156 SWAP1 PUSH2 0x310 JUMP JUMPDEST DUP1 ISZERO PUSH2 0x1A1 JUMPI DUP1 PUSH1 0x1F LT PUSH2 0x178 JUMPI PUSH2 0x100 DUP1 DUP4 SLOAD DIV MUL DUP4 MSTORE SWAP2 PUSH1 0x20 ADD SWAP2 PUSH2 0x1A1 JUMP JUMPDEST DUP3 ADD SWAP2 SWAP1 PUSH0 MSTORE PUSH1 0x20 PUSH0 KECCAK256 SWAP1 JUMPDEST DUP2 SLOAD DUP2 MSTORE SWAP1 PUSH1 0x1 ADD SWAP1 PUSH1 0x20 ADD DUP1 DUP4 GT PUSH2 0x184 JUMPI DUP3 SWAP1 SUB PUSH1 0x1F AND DUP3 ADD SWAP2 JUMPDEST POP POP POP POP POP DUP2 JUMP JUMPDEST PUSH1 0x1 PUSH0 SWAP1 SLOAD SWAP1 PUSH2 0x100 EXP SWAP1 DIV PUSH20 0xFFFFFFFFFFFFFFFFFFFFFFFFFFFFFFFFFFFFFFFF AND DUP2 JUMP JUMPDEST PUSH0 PUSH20 0xFFFFFFFFFFFFFFFFFFFFFFFFFFFFFFFFFFFFFFFF DUP3 AND SWAP1 POP SWAP2 SWAP1 POP JUMP JUMPDEST PUSH0 PUSH2 0x1F7 DUP3 PUSH2 0x1CE JUMP JUMPDEST SWAP1 POP SWAP2 SWAP1 POP JUMP JUMPDEST PUSH2 0x207 DUP2 PUSH2 0x1ED JUMP JUMPDEST DUP3 MSTORE POP POP JUMP JUMPDEST PUSH0 PUSH1 0x20 DUP3 ADD SWAP1 POP PUSH2 0x220 PUSH0 DUP4 ADD DUP5 PUSH2 0x1FE JUMP JUMPDEST SWAP3 SWAP2 POP POP JUMP JUMPDEST PUSH0 DUP2 MLOAD SWAP1 POP SWAP2 SWAP1 POP JUMP JUMPDEST PUSH0 DUP3 DUP3 MSTORE PUSH1 0x20 DUP3 ADD SWAP1 POP SWAP3 SWAP2 POP POP JUMP JUMPDEST DUP3 DUP2 DUP4 MCOPY PUSH0 DUP4 DUP4 ADD MSTORE POP POP POP JUMP JUMPDEST PUSH0 PUSH1 0x1F NOT PUSH1 0x1F DUP4 ADD AND SWAP1 POP SWAP2 SWAP1 POP JUMP JUMPDEST PUSH0 PUSH2 0x268 DUP3 PUSH2 0x226 JUMP JUMPDEST PUSH2 0x272 DUP2 DUP6 PUSH2 0x230 JUMP JUMPDEST SWAP4 POP PUSH2 0x282 DUP2 DUP6 PUSH1 0x20 DUP7 ADD PUSH2 0x240 JUMP JUMPDEST PUSH2 0x28B DUP2 PUSH2 0x24E JUMP JUMPDEST DUP5 ADD SWAP2 POP POP SWAP3 SWAP2 POP POP JUMP JUMPDEST PUSH0 PUSH1 0x20 DUP3 ADD SWAP1 POP DUP2 DUP2 SUB PUSH0 DUP4 ADD MSTORE PUSH2 0x2AE DUP2 DUP5 PUSH2 0x25E JUMP JUMPDEST SWAP1 POP SWAP3 SWAP2 POP POP JUMP JUMPDEST PUSH32 0x4E487B7100000000000000000000000000000000000000000000000000000000 PUSH0 MSTORE PUSH1 0x41 PUSH1 0x4 MSTORE PUSH1 0x24 PUSH0 REVERT JUMPDEST PUSH32 0x4E487B7100000000000000000000000000000000000000000000000000000000 PUSH0 MSTORE PUSH1 0x22 PUSH1 0x4 MSTORE PUSH1 0x24 PUSH0 REVERT JUMPDEST PUSH0 PUSH1 0x2 DUP3 DIV SWAP1 POP PUSH1 0x1 DUP3 AND DUP1 PUSH2 0x327 JUMPI PUSH1 0x7F DUP3 AND SWAP2 POP JUMPDEST PUSH1 0x20 DUP3 LT DUP2 SUB PUSH2 0x33A JUMPI PUSH2 0x339 PUSH2 0x2E3 JUMP JUMPDEST JUMPDEST POP SWAP2 SWAP1 POP JUMP JUMPDEST PUSH0 DUP2 SWAP1 POP DUP2 PUSH0 MSTORE PUSH1 0x20 PUSH0 KECCAK256 SWAP1 POP SWAP2 SWAP1 POP JUMP JUMPDEST PUSH0 PUSH1 0x20 PUSH1 0x1F DUP4 ADD DIV SWAP1 POP SWAP2 SWAP1 POP JUMP JUMPDEST PUSH0 DUP3 DUP3 SHL SWAP1 POP SWAP3 SWAP2 POP POP JUMP JUMPDEST PUSH0 PUSH1 0x8 DUP4 MUL PUSH2 0x39C PUSH32 0xFFFFFFFFFFFFFFFFFFFFFFFFFFFFFFFFFFFFFFFFFFFFFFFFFFFFFFFFFFFFFFFF DUP3 PUSH2 0x361 JUMP JUMPDEST PUSH2 0x3A6 DUP7 DUP4 PUSH2 0x361 JUMP JUMPDEST SWAP6 POP DUP1 NOT DUP5 AND SWAP4 POP DUP1 DUP7 AND DUP5 OR SWAP3 POP POP POP SWAP4 SWAP3 POP POP POP JUMP JUMPDEST PUSH0 DUP2 SWAP1 POP SWAP2 SWAP1 POP JUMP JUMPDEST PUSH0 DUP2 SWAP1 POP SWAP2 SWAP1 POP JUMP JUMPDEST PUSH0 PUSH2 0x3EA PUSH2 0x3E5 PUSH2 0x3E0 DUP5 PUSH2 0x3BE JUMP JUMPDEST PUSH2 0x3C7 JUMP JUMPDEST PUSH2 0x3BE JUMP JUMPDEST SWAP1 POP SWAP2 SWAP1 POP JUMP JUMPDEST PUSH0 DUP2 SWAP1 POP SWAP2 SWAP1 POP JUMP JUMPDEST PUSH2 0x403 DUP4 PUSH2 0x3D0 JUMP JUMPDEST PUSH2 0x417 PUSH2 0x40F DUP3 PUSH2 0x3F1 JUMP JUMPDEST DUP5 DUP5 SLOAD PUSH2 0x36D JUMP JUMPDEST DUP3 SSTORE POP POP POP POP JUMP JUMPDEST PUSH0 PUSH0 SWAP1 POP SWAP1 JUMP JUMPDEST PUSH2 0x42E PUSH2 0x41F JUMP JUMPDEST PUSH2 0x439 DUP2 DUP5 DUP5 PUSH2 0x3FA JUMP JUMPDEST POP POP POP JUMP JUMPDEST JUMPDEST DUP2 DUP2 LT ISZERO PUSH2 0x45C JUMPI PUSH2 0x451 PUSH0 DUP3 PUSH2 0x426 JUMP JUMPDEST PUSH1 0x1 DUP2 ADD SWAP1 POP PUSH2 0x43F JUMP JUMPDEST POP POP JUMP JUMPDEST PUSH1 0x1F DUP3 GT ISZERO PUSH2 0x4A1 JUMPI PUSH2 0x472 DUP2 PUSH2 0x340 JUMP JUMPDEST PUSH2 0x47B DUP5 PUSH2 0x352 JUMP JUMPDEST DUP2 ADD PUSH1 0x20 DUP6 LT ISZERO PUSH2 0x48A JUMPI DUP2 SWAP1 POP JUMPDEST PUSH2 0x49E PUSH2 0x496 DUP6 PUSH2 0x352 JUMP JUMPDEST DUP4 ADD DUP3 PUSH2 0x43E JUMP JUMPDEST POP POP JUMPDEST POP POP POP JUMP JUMPDEST PUSH0 DUP3 DUP3 SHR SWAP1 POP SWAP3 SWAP2 POP POP JUMP JUMPDEST PUSH0 PUSH2 0x4C1 PUSH0 NOT DUP5 PUSH1 0x8 MUL PUSH2 0x4A6 JUMP JUMPDEST NOT DUP1 DUP4 AND SWAP2 POP POP SWAP3 SWAP2 POP POP JUMP JUMPDEST PUSH0 PUSH2 0x4D9 DUP4 DUP4 PUSH2 0x4B2 JUMP JUMPDEST SWAP2 POP DUP3 PUSH1 0x2 MUL DUP3 OR SWAP1 POP SWAP3 SWAP2 POP POP JUMP JUMPDEST PUSH2 0x4F2 DUP3 PUSH2 0x226 JUMP JUMPDEST PUSH8 0xFFFFFFFFFFFFFFFF DUP2 GT ISZERO PUSH2 0x50B JUMPI PUSH2 0x50A PUSH2 0x2B6 JUMP JUMPDEST JUMPDEST PUSH2 0x515 DUP3 SLOAD PUSH2 0x310 JUMP JUMPDEST PUSH2 0x520 DUP3 DUP3 DUP6 PUSH2 0x460 JUMP JUMPDEST PUSH0 PUSH1 0x20 SWAP1 POP PUSH1 0x1F DUP4 GT PUSH1 0x1 DUP2 EQ PUSH2 0x551 JUMPI PUSH0 DUP5 ISZERO PUSH2 0x53F JUMPI DUP3 DUP8 ADD MLOAD SWAP1 POP JUMPDEST PUSH2 0x549 DUP6 DUP3 PUSH2 0x4CE JUMP JUMPDEST DUP7 SSTORE POP PUSH2 0x5B0 JUMP JUMPDEST PUSH1 0x1F NOT DUP5 AND PUSH2 0x55F DUP7 PUSH2 0x340 JUMP JUMPDEST PUSH0 JUMPDEST DUP3 DUP2 LT ISZERO PUSH2 0x586 JUMPI DUP5 DUP10 ADD MLOAD DUP3 SSTORE PUSH1 0x1 DUP3 ADD SWAP2 POP PUSH1 0x20 DUP6 ADD SWAP5 POP PUSH1 0x20 DUP2 ADD SWAP1 POP PUSH2 0x561 JUMP JUMPDEST DUP7 DUP4 LT ISZERO PUSH2 0x5A3 JUMPI DUP5 DUP10 ADD MLOAD PUSH2 0x59F PUSH1 0x1F DUP10 AND DUP3 PUSH2 0x4B2 JUMP JUMPDEST DUP4 SSTORE POP JUMPDEST PUSH1 0x1 PUSH1 0x2 DUP9 MUL ADD DUP9 SSTORE POP POP POP JUMPDEST POP POP POP POP POP POP JUMP INVALID LOG2 PUSH5 0x6970667358 0x22 SLT KECCAK256 0xBB CODECOPY 0xBE 0x1E SELFBALANCE CHAINID CALLDATACOPY PUSH16 0x579258BEF227E26D2E7EB3008ABA8D1E 0x27 BLOBHASH CHAINID PUSH32 0x43E33B0864736F6C634300081E00330000000000000000000000000000000000 "
				},
				"gasEstimates": {
					"creation": {
						"codeDepositCost": "303600",
						"executionCost": "341",
						"totalCost": "303941"
					},
					"external": {
						"admin()": "2552",
						"foo()": "infinite",
						"implementation()": "2485",
						"words()": "infinite"
					}
				},
				"methodIdentifiers": {
					"admin()": "f851a440",
					"foo()": "c2985578",
					"implementation()": "5c60da1b",
					"words()": "f2c31bd9"
				}
			},
			"storageLayout": {
				"storage": [
					{
						"astId": 101,
						"contract": "contracts/demos/TransparentContracts/TransparentContracts.sol:Logic2",
						"label": "implementation",
						"offset": 0,
						"slot": "0",
						"type": "t_address"
					},
					{
						"astId": 103,
						"contract": "contracts/demos/TransparentContracts/TransparentContracts.sol:Logic2",
						"label": "admin",
						"offset": 0,
						"slot": "1",
						"type": "t_address"
					},
					{
						"astId": 105,
						"contract": "contracts/demos/TransparentContracts/TransparentContracts.sol:Logic2",
						"label": "words",
						"offset": 0,
						"slot": "2",
						"type": "t_string_storage"
					}
				],
				"types": {
					"t_address": {
						"encoding": "inplace",
						"label": "address",
						"numberOfBytes": "20"
					},
					"t_string_storage": {
						"encoding": "bytes",
						"label": "string",
						"numberOfBytes": "32"
					}
				}
			},
			"userdoc": {
				"kind": "user",
				"methods": {},
				"version": 1
			}
		}
	}
}