{
	"contracts/demos/TransparentContracts/TransparentContracts.sol": {
		"Foo": {
			"abi": [
				{
					"inputs": [],
					"name": "selector1",
					"outputs": [
						{
							"internalType": "bytes4",
							"name": "",
							"type": "bytes4"
						}
					],
					"stateMutability": "view",
					"type": "function"
				},
				{
					"inputs": [],
					"name": "selector2",
					"outputs": [
						{
							"internalType": "bytes4",
							"name": "",
							"type": "bytes4"
						}
					],
					"stateMutability": "view",
					"type": "function"
				}
			],
			"devdoc": {
				"kind": "dev",
				"methods": {},
				"version": 1
			},
			"evm": {
				"assembly": "    /* \"contracts/demos/TransparentContracts/TransparentContracts.sol\":192:466  contract Foo {... */\n  mstore(0x40, 0x80)\n    /* \"contracts/demos/TransparentContracts/TransparentContracts.sol\":244:270  keccak256(\"burn(uint256)\") */\n  0x42966c689b5afe9b9b3f8a7103b2a19980d59629bfd6a20a60972312ed41d836\n    /* \"contracts/demos/TransparentContracts/TransparentContracts.sol\":211:271  bytes4 public selector1 = bytes4(keccak256(\"burn(uint256)\")) */\n  0x00\n  exp(0x0100, 0x00)\n  dup2\n  sload\n  dup2\n  0xffffffff\n  mul\n  not\n  and\n  swap1\n  dup4\n  0xe0\n  shr\n  mul\n  or\n  swap1\n  sstore\n  pop\n    /* \"contracts/demos/TransparentContracts/TransparentContracts.sol\":310:357  keccak256(\"collate_propagate_storage(bytes16)\") */\n  0x42966c684c869f2e2e56c232c00c827b4e8fcd1119259bd54a90d765bf17bbd6\n    /* \"contracts/demos/TransparentContracts/TransparentContracts.sol\":277:358  bytes4 public selector2 = bytes4(keccak256(\"collate_propagate_storage(bytes16)\")) */\n  0x00\n  exp(0x0100, 0x04)\n  dup2\n  sload\n  dup2\n  0xffffffff\n  mul\n  not\n  and\n  swap1\n  dup4\n  0xe0\n  shr\n  mul\n  or\n  swap1\n  sstore\n  pop\n    /* \"contracts/demos/TransparentContracts/TransparentContracts.sol\":192:466  contract Foo {... */\n  callvalue\n  dup1\n  iszero\n  tag_1\n  jumpi\n  revert(0x00, 0x00)\ntag_1:\n  pop\n  dataSize(sub_0)\n  dup1\n  dataOffset(sub_0)\n  0x00\n  codecopy\n  0x00\n  return\nstop\n\nsub_0: assembly {\n        /* \"contracts/demos/TransparentContracts/TransparentContracts.sol\":192:466  contract Foo {... */\n      mstore(0x40, 0x80)\n      callvalue\n      dup1\n      iszero\n      tag_1\n      jumpi\n      revert(0x00, 0x00)\n    tag_1:\n      pop\n      jumpi(tag_2, lt(calldatasize, 0x04))\n      shr(0xe0, calldataload(0x00))\n      dup1\n      0x44c984a7\n      eq\n      tag_3\n      jumpi\n      dup1\n      0xe9b33174\n      eq\n      tag_4\n      jumpi\n    tag_2:\n      revert(0x00, 0x00)\n        /* \"contracts/demos/TransparentContracts/TransparentContracts.sol\":277:358  bytes4 public selector2 = bytes4(keccak256(\"collate_propagate_storage(bytes16)\")) */\n    tag_3:\n      tag_5\n      tag_6\n      jump\t// in\n    tag_5:\n      mload(0x40)\n      tag_7\n      swap2\n      swap1\n      tag_8\n      jump\t// in\n    tag_7:\n      mload(0x40)\n      dup1\n      swap2\n      sub\n      swap1\n      return\n        /* \"contracts/demos/TransparentContracts/TransparentContracts.sol\":211:271  bytes4 public selector1 = bytes4(keccak256(\"burn(uint256)\")) */\n    tag_4:\n      tag_9\n      tag_10\n      jump\t// in\n    tag_9:\n      mload(0x40)\n      tag_11\n      swap2\n      swap1\n      tag_8\n      jump\t// in\n    tag_11:\n      mload(0x40)\n      dup1\n      swap2\n      sub\n      swap1\n      return\n        /* \"contracts/demos/TransparentContracts/TransparentContracts.sol\":277:358  bytes4 public selector2 = bytes4(keccak256(\"collate_propagate_storage(bytes16)\")) */\n    tag_6:\n      0x00\n      0x04\n      swap1\n      sload\n      swap1\n      0x0100\n      exp\n      swap1\n      div\n      0xe0\n      shl\n      dup2\n      jump\t// out\n        /* \"contracts/demos/TransparentContracts/TransparentContracts.sol\":211:271  bytes4 public selector1 = bytes4(keccak256(\"burn(uint256)\")) */\n    tag_10:\n      0x00\n      0x00\n      swap1\n      sload\n      swap1\n      0x0100\n      exp\n      swap1\n      div\n      0xe0\n      shl\n      dup2\n      jump\t// out\n        /* \"#utility.yul\":7:156   */\n    tag_12:\n        /* \"#utility.yul\":43:50   */\n      0x00\n        /* \"#utility.yul\":83:149   */\n      0xffffffff00000000000000000000000000000000000000000000000000000000\n        /* \"#utility.yul\":76:81   */\n      dup3\n        /* \"#utility.yul\":72:150   */\n      and\n        /* \"#utility.yul\":61:150   */\n      swap1\n      pop\n        /* \"#utility.yul\":7:156   */\n      swap2\n      swap1\n      pop\n      jump\t// out\n        /* \"#utility.yul\":162:277   */\n    tag_13:\n        /* \"#utility.yul\":247:270   */\n      tag_17\n        /* \"#utility.yul\":264:269   */\n      dup2\n        /* \"#utility.yul\":247:270   */\n      tag_12\n      jump\t// in\n    tag_17:\n        /* \"#utility.yul\":242:245   */\n      dup3\n        /* \"#utility.yul\":235:271   */\n      mstore\n        /* \"#utility.yul\":162:277   */\n      pop\n      pop\n      jump\t// out\n        /* \"#utility.yul\":283:501   */\n    tag_8:\n        /* \"#utility.yul\":374:378   */\n      0x00\n        /* \"#utility.yul\":412:414   */\n      0x20\n        /* \"#utility.yul\":401:410   */\n      dup3\n        /* \"#utility.yul\":397:415   */\n      add\n        /* \"#utility.yul\":389:415   */\n      swap1\n      pop\n        /* \"#utility.yul\":425:494   */\n      tag_19\n        /* \"#utility.yul\":491:492   */\n      0x00\n        /* \"#utility.yul\":480:489   */\n      dup4\n        /* \"#utility.yul\":476:493   */\n      add\n        /* \"#utility.yul\":467:473   */\n      dup5\n        /* \"#utility.yul\":425:494   */\n      tag_13\n      jump\t// in\n    tag_19:\n        /* \"#utility.yul\":283:501   */\n      swap3\n      swap2\n      pop\n      pop\n      jump\t// out\n\n    auxdata: 0xa26469706673582212208efb77497d74c5ef1e55f365b2c1063090317122a28a60a4bc04e8484596a0f464736f6c634300081e0033\n}\n",
				"bytecode": {
					"linkReferences": {},
					"object": "60806040527f42966c689b5afe9b9b3f8a7103b2a19980d59629bfd6a20a60972312ed41d8365f5f6101000a81548163ffffffff021916908360e01c02179055507f42966c684c869f2e2e56c232c00c827b4e8fcd1119259bd54a90d765bf17bbd65f60046101000a81548163ffffffff021916908360e01c02179055503480156087575f5ffd5b50610110806100955f395ff3fe6080604052348015600e575f5ffd5b50600436106030575f3560e01c806344c984a7146034578063e9b3317414604e575b5f5ffd5b603a6068565b6040516045919060c3565b60405180910390f35b6054607a565b604051605f919060c3565b60405180910390f35b5f60049054906101000a900460e01b81565b5f5f9054906101000a900460e01b81565b5f7fffffffff0000000000000000000000000000000000000000000000000000000082169050919050565b60bd81608b565b82525050565b5f60208201905060d45f83018460b6565b9291505056fea26469706673582212208efb77497d74c5ef1e55f365b2c1063090317122a28a60a4bc04e8484596a0f464736f6c634300081e0033",
					"opcodes": "PUSH1 0x80 PUSH1 0x40 MSTORE PUSH32 0x42966C689B5AFE9B9B3F8A7103B2A19980D59629BFD6A20A60972312ED41D836 PUSH0 PUSH0 PUSH2 0x100 EXP DUP2 SLOAD DUP2 PUSH4 0xFFFFFFFF MUL NOT AND SWAP1 DUP4 PUSH1 0xE0 SHR MUL OR SWAP1 SSTORE POP PUSH32 0x42966C684C869F2E2E56C232C00C827B4E8FCD1119259BD54A90D765BF17BBD6 PUSH0 PUSH1 0x4 PUSH2 0x100 EXP DUP2 SLOAD DUP2 PUSH4 0xFFFFFFFF MUL NOT AND SWAP1 DUP4 PUSH1 0xE0 SHR MUL OR SWAP1 SSTORE POP CALLVALUE DUP1 ISZERO PUSH1 0x87 JUMPI PUSH0 PUSH0 REVERT JUMPDEST POP PUSH2 0x110 DUP1 PUSH2 0x95 PUSH0 CODECOPY PUSH0 RETURN INVALID PUSH1 0x80 PUSH1 0x40 MSTORE CALLVALUE DUP1 ISZERO PUSH1 0xE JUMPI PUSH0 PUSH0 REVERT JUMPDEST POP PUSH1 0x4 CALLDATASIZE LT PUSH1 0x30 JUMPI PUSH0 CALLDATALOAD PUSH1 0xE0 SHR DUP1 PUSH4 0x44C984A7 EQ PUSH1 0x34 JUMPI DUP1 PUSH4 0xE9B33174 EQ PUSH1 0x4E JUMPI JUMPDEST PUSH0 PUSH0 REVERT JUMPDEST PUSH1 0x3A PUSH1 0x68 JUMP JUMPDEST PUSH1 0x40 MLOAD PUSH1 0x45 SWAP2 SWAP1 PUSH1 0xC3 JUMP JUMPDEST PUSH1 0x40 MLOAD DUP1 SWAP2 SUB SWAP1 RETURN JUMPDEST PUSH1 0x54 PUSH1 0x7A JUMP JUMPDEST PUSH1 0x40 MLOAD PUSH1 0x5F SWAP2 SWAP1 PUSH1 0xC3 JUMP JUMPDEST PUSH1 0x40 MLOAD DUP1 SWAP2 SUB SWAP1 RETURN JUMPDEST PUSH0 PUSH1 0x4 SWAP1 SLOAD SWAP1 PUSH2 0x100 EXP SWAP1 DIV PUSH1 0xE0 SHL DUP2 JUMP JUMPDEST PUSH0 PUSH0 SWAP1 SLOAD SWAP1 PUSH2 0x100 EXP SWAP1 DIV PUSH1 0xE0 SHL DUP2 JUMP JUMPDEST PUSH0 PUSH32 0xFFFFFFFF00000000000000000000000000000000000000000000000000000000 DUP3 AND SWAP1 POP SWAP2 SWAP1 POP JUMP JUMPDEST PUSH1 0xBD DUP2 PUSH1 0x8B JUMP JUMPDEST DUP3 MSTORE POP POP JUMP JUMPDEST PUSH0 PUSH1 0x20 DUP3 ADD SWAP1 POP PUSH1 0xD4 PUSH0 DUP4 ADD DUP5 PUSH1 0xB6 JUMP JUMPDEST SWAP3 SWAP2 POP POP JUMP INVALID LOG2 PUSH5 0x6970667358 0x22 SLT KECCAK256 DUP15 EXTSTATICCALL PUSH24 0x497D74C5EF1E55F365B2C1063090317122A28A60A4BC04E8 BASEFEE GASLIMIT SWAP7 LOG0 DELEGATECALL PUSH5 0x736F6C6343 STOP ADDMOD 0x1E STOP CALLER "
				},
				"gasEstimates": {
					"creation": {
						"codeDepositCost": "54400",
						"executionCost": "48684",
						"totalCost": "103084"
					},
					"external": {
						"selector1()": "2465",
						"selector2()": "2494"
					}
				},
				"methodIdentifiers": {
					"selector1()": "e9b33174",
					"selector2()": "44c984a7"
				}
			},
			"storageLayout": {
				"storage": [
					{
						"astId": 9,
						"contract": "contracts/demos/TransparentContracts/TransparentContracts.sol:Foo",
						"label": "selector1",
						"offset": 0,
						"slot": "0",
						"type": "t_bytes4"
					},
					{
						"astId": 17,
						"contract": "contracts/demos/TransparentContracts/TransparentContracts.sol:Foo",
						"label": "selector2",
						"offset": 4,
						"slot": "0",
						"type": "t_bytes4"
					}
				],
				"types": {
					"t_bytes4": {
						"encoding": "inplace",
						"label": "bytes4",
						"numberOfBytes": "4"
					}
				}
			},
			"userdoc": {
				"kind": "user",
				"methods": {},
				"version": 1
			}
		}
	}
}