{
	"contracts/demos/TransparentContracts/TransparentContracts.sol": {
		"TransparentProxy": {
			"abi": [
				{
					"inputs": [
						{
							"internalType": "address",
							"name": "_implementation",
							"type": "address"
						}
					],
					"stateMutability": "nonpayable",
					"type": "constructor"
				},
				{
					"stateMutability": "payable",
					"type": "fallback"
				},
				{
					"inputs": [
						{
							"internalType": "address",
							"name": "newImplementation",
							"type": "address"
						}
					],
					"name": "upgrade",
					"outputs": [],
					"stateMutability": "nonpayable",
					"type": "function"
				},
				{
					"inputs": [],
					"name": "words",
					"outputs": [
						{
							"internalType": "string",
							"name": "",
							"type": "string"
						}
					],
					"stateMutability": "view",
					"type": "function"
				},
				{
					"stateMutability": "payable",
					"type": "receive"
				}
			],
			"devdoc": {
				"kind": "dev",
				"methods": {},
				"version": 1
			},
			"evm": {
				"assembly": "    /* \"contracts/demos/TransparentContracts/TransparentContracts.sol\":533:1466  contract TransparentProxy {... */\n  mstore(0x40, 0x80)\n    /* \"contracts/demos/TransparentContracts/TransparentContracts.sol\":785:898  constructor(address _implementation){... */\n  callvalue\n  dup1\n  iszero\n  tag_1\n  jumpi\n  revert(0x00, 0x00)\ntag_1:\n  pop\n  mload(0x40)\n  sub(codesize, bytecodeSize)\n  dup1\n  bytecodeSize\n  dup4\n  codecopy\n  dup2\n  dup2\n  add\n  0x40\n  mstore\n  dup2\n  add\n  swap1\n  tag_2\n  swap2\n  swap1\n  tag_3\n  jump\t// in\ntag_2:\n    /* \"contracts/demos/TransparentContracts/TransparentContracts.sol\":839:849  msg.sender */\n  caller\n    /* \"contracts/demos/TransparentContracts/TransparentContracts.sol\":831:836  admin */\n  0x01\n  0x00\n    /* \"contracts/demos/TransparentContracts/TransparentContracts.sol\":831:849  admin = msg.sender */\n  0x0100\n  exp\n  dup2\n  sload\n  dup2\n  0xffffffffffffffffffffffffffffffffffffffff\n  mul\n  not\n  and\n  swap1\n  dup4\n  0xffffffffffffffffffffffffffffffffffffffff\n  and\n  mul\n  or\n  swap1\n  sstore\n  pop\n    /* \"contracts/demos/TransparentContracts/TransparentContracts.sol\":876:891  _implementation */\n  dup1\n    /* \"contracts/demos/TransparentContracts/TransparentContracts.sol\":859:873  implementation */\n  0x00\n  0x00\n    /* \"contracts/demos/TransparentContracts/TransparentContracts.sol\":859:891  implementation = _implementation */\n  0x0100\n  exp\n  dup2\n  sload\n  dup2\n  0xffffffffffffffffffffffffffffffffffffffff\n  mul\n  not\n  and\n  swap1\n  dup4\n  0xffffffffffffffffffffffffffffffffffffffff\n  and\n  mul\n  or\n  swap1\n  sstore\n  pop\n    /* \"contracts/demos/TransparentContracts/TransparentContracts.sol\":785:898  constructor(address _implementation){... */\n  pop\n    /* \"contracts/demos/TransparentContracts/TransparentContracts.sol\":533:1466  contract TransparentProxy {... */\n  jump(tag_6)\n    /* \"#utility.yul\":88:205   */\ntag_8:\n    /* \"#utility.yul\":197:198   */\n  0x00\n    /* \"#utility.yul\":194:195   */\n  0x00\n    /* \"#utility.yul\":187:199   */\n  revert\n    /* \"#utility.yul\":334:460   */\ntag_10:\n    /* \"#utility.yul\":371:378   */\n  0x00\n    /* \"#utility.yul\":411:453   */\n  0xffffffffffffffffffffffffffffffffffffffff\n    /* \"#utility.yul\":404:409   */\n  dup3\n    /* \"#utility.yul\":400:454   */\n  and\n    /* \"#utility.yul\":389:454   */\n  swap1\n  pop\n    /* \"#utility.yul\":334:460   */\n  swap2\n  swap1\n  pop\n  jump\t// out\n    /* \"#utility.yul\":466:562   */\ntag_11:\n    /* \"#utility.yul\":503:510   */\n  0x00\n    /* \"#utility.yul\":532:556   */\n  tag_20\n    /* \"#utility.yul\":550:555   */\n  dup3\n    /* \"#utility.yul\":532:556   */\n  tag_10\n  jump\t// in\ntag_20:\n    /* \"#utility.yul\":521:556   */\n  swap1\n  pop\n    /* \"#utility.yul\":466:562   */\n  swap2\n  swap1\n  pop\n  jump\t// out\n    /* \"#utility.yul\":568:690   */\ntag_12:\n    /* \"#utility.yul\":641:665   */\n  tag_22\n    /* \"#utility.yul\":659:664   */\n  dup2\n    /* \"#utility.yul\":641:665   */\n  tag_11\n  jump\t// in\ntag_22:\n    /* \"#utility.yul\":634:639   */\n  dup2\n    /* \"#utility.yul\":631:666   */\n  eq\n    /* \"#utility.yul\":621:684   */\n  tag_23\n  jumpi\n    /* \"#utility.yul\":680:681   */\n  0x00\n    /* \"#utility.yul\":677:678   */\n  0x00\n    /* \"#utility.yul\":670:682   */\n  revert\n    /* \"#utility.yul\":621:684   */\ntag_23:\n    /* \"#utility.yul\":568:690   */\n  pop\n  jump\t// out\n    /* \"#utility.yul\":696:839   */\ntag_13:\n    /* \"#utility.yul\":753:758   */\n  0x00\n    /* \"#utility.yul\":784:790   */\n  dup2\n    /* \"#utility.yul\":778:791   */\n  mload\n    /* \"#utility.yul\":769:791   */\n  swap1\n  pop\n    /* \"#utility.yul\":800:833   */\n  tag_25\n    /* \"#utility.yul\":827:832   */\n  dup2\n    /* \"#utility.yul\":800:833   */\n  tag_12\n  jump\t// in\ntag_25:\n    /* \"#utility.yul\":696:839   */\n  swap3\n  swap2\n  pop\n  pop\n  jump\t// out\n    /* \"#utility.yul\":845:1196   */\ntag_3:\n    /* \"#utility.yul\":915:921   */\n  0x00\n    /* \"#utility.yul\":964:966   */\n  0x20\n    /* \"#utility.yul\":952:961   */\n  dup3\n    /* \"#utility.yul\":943:950   */\n  dup5\n    /* \"#utility.yul\":939:962   */\n  sub\n    /* \"#utility.yul\":935:967   */\n  slt\n    /* \"#utility.yul\":932:1051   */\n  iszero\n  tag_27\n  jumpi\n    /* \"#utility.yul\":970:1049   */\n  tag_28\n  tag_8\n  jump\t// in\ntag_28:\n    /* \"#utility.yul\":932:1051   */\ntag_27:\n    /* \"#utility.yul\":1090:1091   */\n  0x00\n    /* \"#utility.yul\":1115:1179   */\n  tag_29\n    /* \"#utility.yul\":1171:1178   */\n  dup5\n    /* \"#utility.yul\":1162:1168   */\n  dup3\n    /* \"#utility.yul\":1151:1160   */\n  dup6\n    /* \"#utility.yul\":1147:1169   */\n  add\n    /* \"#utility.yul\":1115:1179   */\n  tag_13\n  jump\t// in\ntag_29:\n    /* \"#utility.yul\":1105:1179   */\n  swap2\n  pop\n    /* \"#utility.yul\":1061:1189   */\n  pop\n    /* \"#utility.yul\":845:1196   */\n  swap3\n  swap2\n  pop\n  pop\n  jump\t// out\n    /* \"contracts/demos/TransparentContracts/TransparentContracts.sol\":533:1466  contract TransparentProxy {... */\ntag_6:\n  dataSize(sub_0)\n  dup1\n  dataOffset(sub_0)\n  0x00\n  codecopy\n  0x00\n  return\nstop\n\nsub_0: assembly {\n        /* \"contracts/demos/TransparentContracts/TransparentContracts.sol\":533:1466  contract TransparentProxy {... */\n      mstore(0x40, 0x80)\n      jumpi(tag_1, lt(calldatasize, 0x04))\n      shr(0xe0, calldataload(0x00))\n      dup1\n      0x0900f010\n      eq\n      tag_3\n      jumpi\n      dup1\n      0xf2c31bd9\n      eq\n      tag_4\n      jumpi\n      jump(tag_2)\n    tag_1:\n      jumpi(tag_2, calldatasize)\n      stop\n    tag_2:\n        /* \"contracts/demos/TransparentContracts/TransparentContracts.sol\":1119:1124  admin */\n      0x01\n      0x00\n      swap1\n      sload\n      swap1\n      0x0100\n      exp\n      swap1\n      div\n      0xffffffffffffffffffffffffffffffffffffffff\n      and\n        /* \"contracts/demos/TransparentContracts/TransparentContracts.sol\":1105:1124  msg.sender != admin */\n      0xffffffffffffffffffffffffffffffffffffffff\n      and\n        /* \"contracts/demos/TransparentContracts/TransparentContracts.sol\":1105:1115  msg.sender */\n      caller\n        /* \"contracts/demos/TransparentContracts/TransparentContracts.sol\":1105:1124  msg.sender != admin */\n      0xffffffffffffffffffffffffffffffffffffffff\n      and\n      sub\n        /* \"contracts/demos/TransparentContracts/TransparentContracts.sol\":1097:1145  require(msg.sender != admin,\"admin cannot call\") */\n      tag_9\n      jumpi\n      mload(0x40)\n      0x08c379a000000000000000000000000000000000000000000000000000000000\n      dup2\n      mstore\n      0x04\n      add\n      tag_10\n      swap1\n      tag_11\n      jump\t// in\n    tag_10:\n      mload(0x40)\n      dup1\n      swap2\n      sub\n      swap1\n      revert\n    tag_9:\n        /* \"contracts/demos/TransparentContracts/TransparentContracts.sol\":1156:1168  bool success */\n      0x00\n        /* \"contracts/demos/TransparentContracts/TransparentContracts.sol\":1170:1187  bytes memory data */\n      0x00\n        /* \"contracts/demos/TransparentContracts/TransparentContracts.sol\":1191:1205  implementation */\n      0x00\n      0x00\n      swap1\n      sload\n      swap1\n      0x0100\n      exp\n      swap1\n      div\n      0xffffffffffffffffffffffffffffffffffffffff\n      and\n        /* \"contracts/demos/TransparentContracts/TransparentContracts.sol\":1191:1218  implementation.delegatecall */\n      0xffffffffffffffffffffffffffffffffffffffff\n      and\n        /* \"contracts/demos/TransparentContracts/TransparentContracts.sol\":1219:1227  msg.data */\n      0x00\n      calldatasize\n        /* \"contracts/demos/TransparentContracts/TransparentContracts.sol\":1191:1228  implementation.delegatecall(msg.data) */\n      mload(0x40)\n      tag_12\n      swap3\n      swap2\n      swap1\n      tag_13\n      jump\t// in\n    tag_12:\n      0x00\n      mload(0x40)\n      dup1\n      dup4\n      sub\n      dup2\n      dup6\n      gas\n      delegatecall\n      swap2\n      pop\n      pop\n      returndatasize\n      dup1\n      0x00\n      dup2\n      eq\n      tag_16\n      jumpi\n      mload(0x40)\n      swap2\n      pop\n      and(add(returndatasize, 0x3f), not(0x1f))\n      dup3\n      add\n      0x40\n      mstore\n      returndatasize\n      dup3\n      mstore\n      returndatasize\n      0x00\n      0x20\n      dup5\n      add\n      returndatacopy\n      jump(tag_15)\n    tag_16:\n      0x60\n      swap2\n      pop\n    tag_15:\n      stop\n        /* \"contracts/demos/TransparentContracts/TransparentContracts.sol\":1317:1464  function upgrade(address newImplementation) external {... */\n    tag_3:\n      callvalue\n      dup1\n      iszero\n      tag_17\n      jumpi\n      revert(0x00, 0x00)\n    tag_17:\n      pop\n      tag_18\n      0x04\n      dup1\n      calldatasize\n      sub\n      dup2\n      add\n      swap1\n      tag_19\n      swap2\n      swap1\n      tag_20\n      jump\t// in\n    tag_19:\n      tag_21\n      jump\t// in\n    tag_18:\n      stop\n        /* \"contracts/demos/TransparentContracts/TransparentContracts.sol\":646:665  string public words */\n    tag_4:\n      callvalue\n      dup1\n      iszero\n      tag_22\n      jumpi\n      revert(0x00, 0x00)\n    tag_22:\n      pop\n      tag_23\n      tag_24\n      jump\t// in\n    tag_23:\n      mload(0x40)\n      tag_25\n      swap2\n      swap1\n      tag_26\n      jump\t// in\n    tag_25:\n      mload(0x40)\n      dup1\n      swap2\n      sub\n      swap1\n      return\n        /* \"contracts/demos/TransparentContracts/TransparentContracts.sol\":1317:1464  function upgrade(address newImplementation) external {... */\n    tag_21:\n        /* \"contracts/demos/TransparentContracts/TransparentContracts.sol\":1398:1403  admin */\n      0x01\n      0x00\n      swap1\n      sload\n      swap1\n      0x0100\n      exp\n      swap1\n      div\n      0xffffffffffffffffffffffffffffffffffffffff\n      and\n        /* \"contracts/demos/TransparentContracts/TransparentContracts.sol\":1384:1403  msg.sender != admin */\n      0xffffffffffffffffffffffffffffffffffffffff\n      and\n        /* \"contracts/demos/TransparentContracts/TransparentContracts.sol\":1384:1394  msg.sender */\n      caller\n        /* \"contracts/demos/TransparentContracts/TransparentContracts.sol\":1384:1403  msg.sender != admin */\n      0xffffffffffffffffffffffffffffffffffffffff\n      and\n      eq\n        /* \"contracts/demos/TransparentContracts/TransparentContracts.sol\":1380:1413  if (msg.sender != admin) revert() */\n      tag_28\n      jumpi\n        /* \"contracts/demos/TransparentContracts/TransparentContracts.sol\":1405:1413  revert() */\n      revert(0x00, 0x00)\n        /* \"contracts/demos/TransparentContracts/TransparentContracts.sol\":1380:1413  if (msg.sender != admin) revert() */\n    tag_28:\n        /* \"contracts/demos/TransparentContracts/TransparentContracts.sol\":1440:1457  newImplementation */\n      dup1\n        /* \"contracts/demos/TransparentContracts/TransparentContracts.sol\":1423:1437  implementation */\n      0x00\n      0x00\n        /* \"contracts/demos/TransparentContracts/TransparentContracts.sol\":1423:1457  implementation = newImplementation */\n      0x0100\n      exp\n      dup2\n      sload\n      dup2\n      0xffffffffffffffffffffffffffffffffffffffff\n      mul\n      not\n      and\n      swap1\n      dup4\n      0xffffffffffffffffffffffffffffffffffffffff\n      and\n      mul\n      or\n      swap1\n      sstore\n      pop\n        /* \"contracts/demos/TransparentContracts/TransparentContracts.sol\":1317:1464  function upgrade(address newImplementation) external {... */\n      pop\n      jump\t// out\n        /* \"contracts/demos/TransparentContracts/TransparentContracts.sol\":646:665  string public words */\n    tag_24:\n      0x02\n      dup1\n      sload\n      tag_29\n      swap1\n      tag_30\n      jump\t// in\n    tag_29:\n      dup1\n      0x1f\n      add\n      0x20\n      dup1\n      swap2\n      div\n      mul\n      0x20\n      add\n      mload(0x40)\n      swap1\n      dup2\n      add\n      0x40\n      mstore\n      dup1\n      swap3\n      swap2\n      swap1\n      dup2\n      dup2\n      mstore\n      0x20\n      add\n      dup3\n      dup1\n      sload\n      tag_31\n      swap1\n      tag_30\n      jump\t// in\n    tag_31:\n      dup1\n      iszero\n      tag_32\n      jumpi\n      dup1\n      0x1f\n      lt\n      tag_33\n      jumpi\n      0x0100\n      dup1\n      dup4\n      sload\n      div\n      mul\n      dup4\n      mstore\n      swap2\n      0x20\n      add\n      swap2\n      jump(tag_32)\n    tag_33:\n      dup3\n      add\n      swap2\n      swap1\n      0x00\n      mstore\n      keccak256(0x00, 0x20)\n      swap1\n    tag_34:\n      dup2\n      sload\n      dup2\n      mstore\n      swap1\n      0x01\n      add\n      swap1\n      0x20\n      add\n      dup1\n      dup4\n      gt\n      tag_34\n      jumpi\n      dup3\n      swap1\n      sub\n      0x1f\n      and\n      dup3\n      add\n      swap2\n    tag_32:\n      pop\n      pop\n      pop\n      pop\n      pop\n      dup2\n      jump\t// out\n        /* \"#utility.yul\":7:176   */\n    tag_35:\n        /* \"#utility.yul\":91:102   */\n      0x00\n        /* \"#utility.yul\":125:131   */\n      dup3\n        /* \"#utility.yul\":120:123   */\n      dup3\n        /* \"#utility.yul\":113:132   */\n      mstore\n        /* \"#utility.yul\":165:169   */\n      0x20\n        /* \"#utility.yul\":160:163   */\n      dup3\n        /* \"#utility.yul\":156:170   */\n      add\n        /* \"#utility.yul\":141:170   */\n      swap1\n      pop\n        /* \"#utility.yul\":7:176   */\n      swap3\n      swap2\n      pop\n      pop\n      jump\t// out\n        /* \"#utility.yul\":182:349   */\n    tag_36:\n        /* \"#utility.yul\":322:341   */\n      0x61646d696e2063616e6e6f742063616c6c000000000000000000000000000000\n        /* \"#utility.yul\":318:319   */\n      0x00\n        /* \"#utility.yul\":310:316   */\n      dup3\n        /* \"#utility.yul\":306:320   */\n      add\n        /* \"#utility.yul\":299:342   */\n      mstore\n        /* \"#utility.yul\":182:349   */\n      pop\n      jump\t// out\n        /* \"#utility.yul\":355:721   */\n    tag_37:\n        /* \"#utility.yul\":497:500   */\n      0x00\n        /* \"#utility.yul\":518:585   */\n      tag_57\n        /* \"#utility.yul\":582:584   */\n      0x11\n        /* \"#utility.yul\":577:580   */\n      dup4\n        /* \"#utility.yul\":518:585   */\n      tag_35\n      jump\t// in\n    tag_57:\n        /* \"#utility.yul\":511:585   */\n      swap2\n      pop\n        /* \"#utility.yul\":594:687   */\n      tag_58\n        /* \"#utility.yul\":683:686   */\n      dup3\n        /* \"#utility.yul\":594:687   */\n      tag_36\n      jump\t// in\n    tag_58:\n        /* \"#utility.yul\":712:714   */\n      0x20\n        /* \"#utility.yul\":707:710   */\n      dup3\n        /* \"#utility.yul\":703:715   */\n      add\n        /* \"#utility.yul\":696:715   */\n      swap1\n      pop\n        /* \"#utility.yul\":355:721   */\n      swap2\n      swap1\n      pop\n      jump\t// out\n        /* \"#utility.yul\":727:1146   */\n    tag_11:\n        /* \"#utility.yul\":893:897   */\n      0x00\n        /* \"#utility.yul\":931:933   */\n      0x20\n        /* \"#utility.yul\":920:929   */\n      dup3\n        /* \"#utility.yul\":916:934   */\n      add\n        /* \"#utility.yul\":908:934   */\n      swap1\n      pop\n        /* \"#utility.yul\":980:989   */\n      dup2\n        /* \"#utility.yul\":974:978   */\n      dup2\n        /* \"#utility.yul\":970:990   */\n      sub\n        /* \"#utility.yul\":966:967   */\n      0x00\n        /* \"#utility.yul\":955:964   */\n      dup4\n        /* \"#utility.yul\":951:968   */\n      add\n        /* \"#utility.yul\":944:991   */\n      mstore\n        /* \"#utility.yul\":1008:1139   */\n      tag_60\n        /* \"#utility.yul\":1134:1138   */\n      dup2\n        /* \"#utility.yul\":1008:1139   */\n      tag_37\n      jump\t// in\n    tag_60:\n        /* \"#utility.yul\":1000:1139   */\n      swap1\n      pop\n        /* \"#utility.yul\":727:1146   */\n      swap2\n      swap1\n      pop\n      jump\t// out\n        /* \"#utility.yul\":1152:1299   */\n    tag_38:\n        /* \"#utility.yul\":1253:1264   */\n      0x00\n        /* \"#utility.yul\":1290:1293   */\n      dup2\n        /* \"#utility.yul\":1275:1293   */\n      swap1\n      pop\n        /* \"#utility.yul\":1152:1299   */\n      swap3\n      swap2\n      pop\n      pop\n      jump\t// out\n        /* \"#utility.yul\":1305:1453   */\n    tag_39:\n        /* \"#utility.yul\":1403:1409   */\n      dup3\n        /* \"#utility.yul\":1398:1401   */\n      dup2\n        /* \"#utility.yul\":1393:1396   */\n      dup4\n        /* \"#utility.yul\":1380:1410   */\n      calldatacopy\n        /* \"#utility.yul\":1444:1445   */\n      0x00\n        /* \"#utility.yul\":1435:1441   */\n      dup4\n        /* \"#utility.yul\":1430:1433   */\n      dup4\n        /* \"#utility.yul\":1426:1442   */\n      add\n        /* \"#utility.yul\":1419:1446   */\n      mstore\n        /* \"#utility.yul\":1305:1453   */\n      pop\n      pop\n      pop\n      jump\t// out\n        /* \"#utility.yul\":1481:1808   */\n    tag_40:\n        /* \"#utility.yul\":1595:1598   */\n      0x00\n        /* \"#utility.yul\":1616:1704   */\n      tag_64\n        /* \"#utility.yul\":1697:1703   */\n      dup4\n        /* \"#utility.yul\":1692:1695   */\n      dup6\n        /* \"#utility.yul\":1616:1704   */\n      tag_38\n      jump\t// in\n    tag_64:\n        /* \"#utility.yul\":1609:1704   */\n      swap4\n      pop\n        /* \"#utility.yul\":1714:1770   */\n      tag_65\n        /* \"#utility.yul\":1763:1769   */\n      dup4\n        /* \"#utility.yul\":1758:1761   */\n      dup6\n        /* \"#utility.yul\":1751:1756   */\n      dup5\n        /* \"#utility.yul\":1714:1770   */\n      tag_39\n      jump\t// in\n    tag_65:\n        /* \"#utility.yul\":1795:1801   */\n      dup3\n        /* \"#utility.yul\":1790:1793   */\n      dup5\n        /* \"#utility.yul\":1786:1802   */\n      add\n        /* \"#utility.yul\":1779:1802   */\n      swap1\n      pop\n        /* \"#utility.yul\":1481:1808   */\n      swap4\n      swap3\n      pop\n      pop\n      pop\n      jump\t// out\n        /* \"#utility.yul\":1814:2105   */\n    tag_13:\n        /* \"#utility.yul\":1954:1957   */\n      0x00\n        /* \"#utility.yul\":1976:2079   */\n      tag_67\n        /* \"#utility.yul\":2075:2078   */\n      dup3\n        /* \"#utility.yul\":2066:2072   */\n      dup5\n        /* \"#utility.yul\":2058:2064   */\n      dup7\n        /* \"#utility.yul\":1976:2079   */\n      tag_40\n      jump\t// in\n    tag_67:\n        /* \"#utility.yul\":1969:2079   */\n      swap2\n      pop\n        /* \"#utility.yul\":2096:2099   */\n      dup2\n        /* \"#utility.yul\":2089:2099   */\n      swap1\n      pop\n        /* \"#utility.yul\":1814:2105   */\n      swap4\n      swap3\n      pop\n      pop\n      pop\n      jump\t// out\n        /* \"#utility.yul\":2192:2309   */\n    tag_42:\n        /* \"#utility.yul\":2301:2302   */\n      0x00\n        /* \"#utility.yul\":2298:2299   */\n      0x00\n        /* \"#utility.yul\":2291:2303   */\n      revert\n        /* \"#utility.yul\":2438:2564   */\n    tag_44:\n        /* \"#utility.yul\":2475:2482   */\n      0x00\n        /* \"#utility.yul\":2515:2557   */\n      0xffffffffffffffffffffffffffffffffffffffff\n        /* \"#utility.yul\":2508:2513   */\n      dup3\n        /* \"#utility.yul\":2504:2558   */\n      and\n        /* \"#utility.yul\":2493:2558   */\n      swap1\n      pop\n        /* \"#utility.yul\":2438:2564   */\n      swap2\n      swap1\n      pop\n      jump\t// out\n        /* \"#utility.yul\":2570:2666   */\n    tag_45:\n        /* \"#utility.yul\":2607:2614   */\n      0x00\n        /* \"#utility.yul\":2636:2660   */\n      tag_73\n        /* \"#utility.yul\":2654:2659   */\n      dup3\n        /* \"#utility.yul\":2636:2660   */\n      tag_44\n      jump\t// in\n    tag_73:\n        /* \"#utility.yul\":2625:2660   */\n      swap1\n      pop\n        /* \"#utility.yul\":2570:2666   */\n      swap2\n      swap1\n      pop\n      jump\t// out\n        /* \"#utility.yul\":2672:2794   */\n    tag_46:\n        /* \"#utility.yul\":2745:2769   */\n      tag_75\n        /* \"#utility.yul\":2763:2768   */\n      dup2\n        /* \"#utility.yul\":2745:2769   */\n      tag_45\n      jump\t// in\n    tag_75:\n        /* \"#utility.yul\":2738:2743   */\n      dup2\n        /* \"#utility.yul\":2735:2770   */\n      eq\n        /* \"#utility.yul\":2725:2788   */\n      tag_76\n      jumpi\n        /* \"#utility.yul\":2784:2785   */\n      0x00\n        /* \"#utility.yul\":2781:2782   */\n      0x00\n        /* \"#utility.yul\":2774:2786   */\n      revert\n        /* \"#utility.yul\":2725:2788   */\n    tag_76:\n        /* \"#utility.yul\":2672:2794   */\n      pop\n      jump\t// out\n        /* \"#utility.yul\":2800:2939   */\n    tag_47:\n        /* \"#utility.yul\":2846:2851   */\n      0x00\n        /* \"#utility.yul\":2884:2890   */\n      dup2\n        /* \"#utility.yul\":2871:2891   */\n      calldataload\n        /* \"#utility.yul\":2862:2891   */\n      swap1\n      pop\n        /* \"#utility.yul\":2900:2933   */\n      tag_78\n        /* \"#utility.yul\":2927:2932   */\n      dup2\n        /* \"#utility.yul\":2900:2933   */\n      tag_46\n      jump\t// in\n    tag_78:\n        /* \"#utility.yul\":2800:2939   */\n      swap3\n      swap2\n      pop\n      pop\n      jump\t// out\n        /* \"#utility.yul\":2945:3274   */\n    tag_20:\n        /* \"#utility.yul\":3004:3010   */\n      0x00\n        /* \"#utility.yul\":3053:3055   */\n      0x20\n        /* \"#utility.yul\":3041:3050   */\n      dup3\n        /* \"#utility.yul\":3032:3039   */\n      dup5\n        /* \"#utility.yul\":3028:3051   */\n      sub\n        /* \"#utility.yul\":3024:3056   */\n      slt\n        /* \"#utility.yul\":3021:3140   */\n      iszero\n      tag_80\n      jumpi\n        /* \"#utility.yul\":3059:3138   */\n      tag_81\n      tag_42\n      jump\t// in\n    tag_81:\n        /* \"#utility.yul\":3021:3140   */\n    tag_80:\n        /* \"#utility.yul\":3179:3180   */\n      0x00\n        /* \"#utility.yul\":3204:3257   */\n      tag_82\n        /* \"#utility.yul\":3249:3256   */\n      dup5\n        /* \"#utility.yul\":3240:3246   */\n      dup3\n        /* \"#utility.yul\":3229:3238   */\n      dup6\n        /* \"#utility.yul\":3225:3247   */\n      add\n        /* \"#utility.yul\":3204:3257   */\n      tag_47\n      jump\t// in\n    tag_82:\n        /* \"#utility.yul\":3194:3257   */\n      swap2\n      pop\n        /* \"#utility.yul\":3150:3267   */\n      pop\n        /* \"#utility.yul\":2945:3274   */\n      swap3\n      swap2\n      pop\n      pop\n      jump\t// out\n        /* \"#utility.yul\":3280:3379   */\n    tag_48:\n        /* \"#utility.yul\":3332:3338   */\n      0x00\n        /* \"#utility.yul\":3366:3371   */\n      dup2\n        /* \"#utility.yul\":3360:3372   */\n      mload\n        /* \"#utility.yul\":3350:3372   */\n      swap1\n      pop\n        /* \"#utility.yul\":3280:3379   */\n      swap2\n      swap1\n      pop\n      jump\t// out\n        /* \"#utility.yul\":3385:3524   */\n    tag_49:\n        /* \"#utility.yul\":3474:3480   */\n      dup3\n        /* \"#utility.yul\":3469:3472   */\n      dup2\n        /* \"#utility.yul\":3464:3467   */\n      dup4\n        /* \"#utility.yul\":3458:3481   */\n      mcopy\n        /* \"#utility.yul\":3515:3516   */\n      0x00\n        /* \"#utility.yul\":3506:3512   */\n      dup4\n        /* \"#utility.yul\":3501:3504   */\n      dup4\n        /* \"#utility.yul\":3497:3513   */\n      add\n        /* \"#utility.yul\":3490:3517   */\n      mstore\n        /* \"#utility.yul\":3385:3524   */\n      pop\n      pop\n      pop\n      jump\t// out\n        /* \"#utility.yul\":3530:3632   */\n    tag_50:\n        /* \"#utility.yul\":3571:3577   */\n      0x00\n        /* \"#utility.yul\":3622:3624   */\n      0x1f\n        /* \"#utility.yul\":3618:3625   */\n      not\n        /* \"#utility.yul\":3613:3615   */\n      0x1f\n        /* \"#utility.yul\":3606:3611   */\n      dup4\n        /* \"#utility.yul\":3602:3616   */\n      add\n        /* \"#utility.yul\":3598:3626   */\n      and\n        /* \"#utility.yul\":3588:3626   */\n      swap1\n      pop\n        /* \"#utility.yul\":3530:3632   */\n      swap2\n      swap1\n      pop\n      jump\t// out\n        /* \"#utility.yul\":3638:4015   */\n    tag_51:\n        /* \"#utility.yul\":3726:3729   */\n      0x00\n        /* \"#utility.yul\":3754:3793   */\n      tag_87\n        /* \"#utility.yul\":3787:3792   */\n      dup3\n        /* \"#utility.yul\":3754:3793   */\n      tag_48\n      jump\t// in\n    tag_87:\n        /* \"#utility.yul\":3809:3880   */\n      tag_88\n        /* \"#utility.yul\":3873:3879   */\n      dup2\n        /* \"#utility.yul\":3868:3871   */\n      dup6\n        /* \"#utility.yul\":3809:3880   */\n      tag_35\n      jump\t// in\n    tag_88:\n        /* \"#utility.yul\":3802:3880   */\n      swap4\n      pop\n        /* \"#utility.yul\":3889:3954   */\n      tag_89\n        /* \"#utility.yul\":3947:3953   */\n      dup2\n        /* \"#utility.yul\":3942:3945   */\n      dup6\n        /* \"#utility.yul\":3935:3939   */\n      0x20\n        /* \"#utility.yul\":3928:3933   */\n      dup7\n        /* \"#utility.yul\":3924:3940   */\n      add\n        /* \"#utility.yul\":3889:3954   */\n      tag_49\n      jump\t// in\n    tag_89:\n        /* \"#utility.yul\":3979:4008   */\n      tag_90\n        /* \"#utility.yul\":4001:4007   */\n      dup2\n        /* \"#utility.yul\":3979:4008   */\n      tag_50\n      jump\t// in\n    tag_90:\n        /* \"#utility.yul\":3974:3977   */\n      dup5\n        /* \"#utility.yul\":3970:4009   */\n      add\n        /* \"#utility.yul\":3963:4009   */\n      swap2\n      pop\n        /* \"#utility.yul\":3730:4015   */\n      pop\n        /* \"#utility.yul\":3638:4015   */\n      swap3\n      swap2\n      pop\n      pop\n      jump\t// out\n        /* \"#utility.yul\":4021:4334   */\n    tag_26:\n        /* \"#utility.yul\":4134:4138   */\n      0x00\n        /* \"#utility.yul\":4172:4174   */\n      0x20\n        /* \"#utility.yul\":4161:4170   */\n      dup3\n        /* \"#utility.yul\":4157:4175   */\n      add\n        /* \"#utility.yul\":4149:4175   */\n      swap1\n      pop\n        /* \"#utility.yul\":4221:4230   */\n      dup2\n        /* \"#utility.yul\":4215:4219   */\n      dup2\n        /* \"#utility.yul\":4211:4231   */\n      sub\n        /* \"#utility.yul\":4207:4208   */\n      0x00\n        /* \"#utility.yul\":4196:4205   */\n      dup4\n        /* \"#utility.yul\":4192:4209   */\n      add\n        /* \"#utility.yul\":4185:4232   */\n      mstore\n        /* \"#utility.yul\":4249:4327   */\n      tag_92\n        /* \"#utility.yul\":4322:4326   */\n      dup2\n        /* \"#utility.yul\":4313:4319   */\n      dup5\n        /* \"#utility.yul\":4249:4327   */\n      tag_51\n      jump\t// in\n    tag_92:\n        /* \"#utility.yul\":4241:4327   */\n      swap1\n      pop\n        /* \"#utility.yul\":4021:4334   */\n      swap3\n      swap2\n      pop\n      pop\n      jump\t// out\n        /* \"#utility.yul\":4340:4520   */\n    tag_52:\n        /* \"#utility.yul\":4388:4465   */\n      0x4e487b7100000000000000000000000000000000000000000000000000000000\n        /* \"#utility.yul\":4385:4386   */\n      0x00\n        /* \"#utility.yul\":4378:4466   */\n      mstore\n        /* \"#utility.yul\":4485:4489   */\n      0x22\n        /* \"#utility.yul\":4482:4483   */\n      0x04\n        /* \"#utility.yul\":4475:4490   */\n      mstore\n        /* \"#utility.yul\":4509:4513   */\n      0x24\n        /* \"#utility.yul\":4506:4507   */\n      0x00\n        /* \"#utility.yul\":4499:4514   */\n      revert\n        /* \"#utility.yul\":4526:4846   */\n    tag_30:\n        /* \"#utility.yul\":4570:4576   */\n      0x00\n        /* \"#utility.yul\":4607:4608   */\n      0x02\n        /* \"#utility.yul\":4601:4605   */\n      dup3\n        /* \"#utility.yul\":4597:4609   */\n      div\n        /* \"#utility.yul\":4587:4609   */\n      swap1\n      pop\n        /* \"#utility.yul\":4654:4655   */\n      0x01\n        /* \"#utility.yul\":4648:4652   */\n      dup3\n        /* \"#utility.yul\":4644:4656   */\n      and\n        /* \"#utility.yul\":4675:4693   */\n      dup1\n        /* \"#utility.yul\":4665:4746   */\n      tag_95\n      jumpi\n        /* \"#utility.yul\":4731:4735   */\n      0x7f\n        /* \"#utility.yul\":4723:4729   */\n      dup3\n        /* \"#utility.yul\":4719:4736   */\n      and\n        /* \"#utility.yul\":4709:4736   */\n      swap2\n      pop\n        /* \"#utility.yul\":4665:4746   */\n    tag_95:\n        /* \"#utility.yul\":4793:4795   */\n      0x20\n        /* \"#utility.yul\":4785:4791   */\n      dup3\n        /* \"#utility.yul\":4782:4796   */\n      lt\n        /* \"#utility.yul\":4762:4780   */\n      dup2\n        /* \"#utility.yul\":4759:4797   */\n      sub\n        /* \"#utility.yul\":4756:4840   */\n      tag_96\n      jumpi\n        /* \"#utility.yul\":4812:4830   */\n      tag_97\n      tag_52\n      jump\t// in\n    tag_97:\n        /* \"#utility.yul\":4756:4840   */\n    tag_96:\n        /* \"#utility.yul\":4577:4846   */\n      pop\n        /* \"#utility.yul\":4526:4846   */\n      swap2\n      swap1\n      pop\n      jump\t// out\n\n    auxdata: 0xa2646970667358221220110babb63baf9fe25bea8b0d984f19355efabbf87b9f65ccb0d4f7ab7a29af8364736f6c634300081e0033\n}\n",
				"bytecode": {
					"linkReferences": {},
					"object": "608060405234801561000f575f5ffd5b5060405161067638038061067683398181016040528101906100319190610114565b3360015f6101000a81548173ffffffffffffffffffffffffffffffffffffffff021916908373ffffffffffffffffffffffffffffffffffffffff160217905550805f5f6101000a81548173ffffffffffffffffffffffffffffffffffffffff021916908373ffffffffffffffffffffffffffffffffffffffff1602179055505061013f565b5f5ffd5b5f73ffffffffffffffffffffffffffffffffffffffff82169050919050565b5f6100e3826100ba565b9050919050565b6100f3816100d9565b81146100fd575f5ffd5b50565b5f8151905061010e816100ea565b92915050565b5f60208284031215610129576101286100b6565b5b5f61013684828501610100565b91505092915050565b61052a8061014c5f395ff3fe60806040526004361061002c575f3560e01c80630900f0101461014a578063f2c31bd91461017257610033565b3661003357005b60015f9054906101000a900473ffffffffffffffffffffffffffffffffffffffff1673ffffffffffffffffffffffffffffffffffffffff163373ffffffffffffffffffffffffffffffffffffffff16036100c2576040517f08c379a00000000000000000000000000000000000000000000000000000000081526004016100b99061031c565b60405180910390fd5b5f5f5f5f9054906101000a900473ffffffffffffffffffffffffffffffffffffffff1673ffffffffffffffffffffffffffffffffffffffff165f3660405161010b929190610376565b5f60405180830381855af49150503d805f8114610143576040519150601f19603f3d011682016040523d82523d5f602084013e610148565b606091505b005b348015610155575f5ffd5b50610170600480360381019061016b91906103ec565b61019c565b005b34801561017d575f5ffd5b50610186610236565b6040516101939190610477565b60405180910390f35b60015f9054906101000a900473ffffffffffffffffffffffffffffffffffffffff1673ffffffffffffffffffffffffffffffffffffffff163373ffffffffffffffffffffffffffffffffffffffff16146101f4575f5ffd5b805f5f6101000a81548173ffffffffffffffffffffffffffffffffffffffff021916908373ffffffffffffffffffffffffffffffffffffffff16021790555050565b60028054610243906104c4565b80601f016020809104026020016040519081016040528092919081815260200182805461026f906104c4565b80156102ba5780601f10610291576101008083540402835291602001916102ba565b820191905f5260205f20905b81548152906001019060200180831161029d57829003601f168201915b505050505081565b5f82825260208201905092915050565b7f61646d696e2063616e6e6f742063616c6c0000000000000000000000000000005f82015250565b5f6103066011836102c2565b9150610311826102d2565b602082019050919050565b5f6020820190508181035f830152610333816102fa565b9050919050565b5f81905092915050565b828183375f83830152505050565b5f61035d838561033a565b935061036a838584610344565b82840190509392505050565b5f610382828486610352565b91508190509392505050565b5f5ffd5b5f73ffffffffffffffffffffffffffffffffffffffff82169050919050565b5f6103bb82610392565b9050919050565b6103cb816103b1565b81146103d5575f5ffd5b50565b5f813590506103e6816103c2565b92915050565b5f602082840312156104015761040061038e565b5b5f61040e848285016103d8565b91505092915050565b5f81519050919050565b8281835e5f83830152505050565b5f601f19601f8301169050919050565b5f61044982610417565b61045381856102c2565b9350610463818560208601610421565b61046c8161042f565b840191505092915050565b5f6020820190508181035f83015261048f818461043f565b905092915050565b7f4e487b71000000000000000000000000000000000000000000000000000000005f52602260045260245ffd5b5f60028204905060018216806104db57607f821691505b6020821081036104ee576104ed610497565b5b5091905056fea2646970667358221220110babb63baf9fe25bea8b0d984f19355efabbf87b9f65ccb0d4f7ab7a29af8364736f6c634300081e0033",
					"opcodes": "PUSH1 0x80 PUSH1 0x40 MSTORE CALLVALUE DUP1 ISZERO PUSH2 0xF JUMPI PUSH0 PUSH0 REVERT JUMPDEST POP PUSH1 0x40 MLOAD PUSH2 0x676 CODESIZE SUB DUP1 PUSH2 0x676 DUP4 CODECOPY DUP2 DUP2 ADD PUSH1 0x40 MSTORE DUP2 ADD SWAP1 PUSH2 0x31 SWAP2 SWAP1 PUSH2 0x114 JUMP JUMPDEST CALLER PUSH1 0x1 PUSH0 PUSH2 0x100 EXP DUP2 SLOAD DUP2 PUSH20 0xFFFFFFFFFFFFFFFFFFFFFFFFFFFFFFFFFFFFFFFF MUL NOT AND SWAP1 DUP4 PUSH20 0xFFFFFFFFFFFFFFFFFFFFFFFFFFFFFFFFFFFFFFFF AND MUL OR SWAP1 SSTORE POP DUP1 PUSH0 PUSH0 PUSH2 0x100 EXP DUP2 SLOAD DUP2 PUSH20 0xFFFFFFFFFFFFFFFFFFFFFFFFFFFFFFFFFFFFFFFF MUL NOT AND SWAP1 DUP4 PUSH20 0xFFFFFFFFFFFFFFFFFFFFFFFFFFFFFFFFFFFFFFFF AND MUL OR SWAP1 SSTORE POP POP PUSH2 0x13F JUMP JUMPDEST PUSH0 PUSH0 REVERT JUMPDEST PUSH0 PUSH20 0xFFFFFFFFFFFFFFFFFFFFFFFFFFFFFFFFFFFFFFFF DUP3 AND SWAP1 POP SWAP2 SWAP1 POP JUMP JUMPDEST PUSH0 PUSH2 0xE3 DUP3 PUSH2 0xBA JUMP JUMPDEST SWAP1 POP SWAP2 SWAP1 POP JUMP JUMPDEST PUSH2 0xF3 DUP2 PUSH2 0xD9 JUMP JUMPDEST DUP2 EQ PUSH2 0xFD JUMPI PUSH0 PUSH0 REVERT JUMPDEST POP JUMP JUMPDEST PUSH0 DUP2 MLOAD SWAP1 POP PUSH2 0x10E DUP2 PUSH2 0xEA JUMP JUMPDEST SWAP3 SWAP2 POP POP JUMP JUMPDEST PUSH0 PUSH1 0x20 DUP3 DUP5 SUB SLT ISZERO PUSH2 0x129 JUMPI PUSH2 0x128 PUSH2 0xB6 JUMP JUMPDEST JUMPDEST PUSH0 PUSH2 0x136 DUP5 DUP3 DUP6 ADD PUSH2 0x100 JUMP JUMPDEST SWAP2 POP POP SWAP3 SWAP2 POP POP JUMP JUMPDEST PUSH2 0x52A DUP1 PUSH2 0x14C PUSH0 CODECOPY PUSH0 RETURN INVALID PUSH1 0x80 PUSH1 0x40 MSTORE PUSH1 0x4 CALLDATASIZE LT PUSH2 0x2C JUMPI PUSH0 CALLDATALOAD PUSH1 0xE0 SHR DUP1 PUSH4 0x900F010 EQ PUSH2 0x14A JUMPI DUP1 PUSH4 0xF2C31BD9 EQ PUSH2 0x172 JUMPI PUSH2 0x33 JUMP JUMPDEST CALLDATASIZE PUSH2 0x33 JUMPI STOP JUMPDEST PUSH1 0x1 PUSH0 SWAP1 SLOAD SWAP1 PUSH2 0x100 EXP SWAP1 DIV PUSH20 0xFFFFFFFFFFFFFFFFFFFFFFFFFFFFFFFFFFFFFFFF AND PUSH20 0xFFFFFFFFFFFFFFFFFFFFFFFFFFFFFFFFFFFFFFFF AND CALLER PUSH20 0xFFFFFFFFFFFFFFFFFFFFFFFFFFFFFFFFFFFFFFFF AND SUB PUSH2 0xC2 JUMPI PUSH1 0x40 MLOAD PUSH32 0x8C379A000000000000000000000000000000000000000000000000000000000 DUP2 MSTORE PUSH1 0x4 ADD PUSH2 0xB9 SWAP1 PUSH2 0x31C JUMP JUMPDEST PUSH1 0x40 MLOAD DUP1 SWAP2 SUB SWAP1 REVERT JUMPDEST PUSH0 PUSH0 PUSH0 PUSH0 SWAP1 SLOAD SWAP1 PUSH2 0x100 EXP SWAP1 DIV PUSH20 0xFFFFFFFFFFFFFFFFFFFFFFFFFFFFFFFFFFFFFFFF AND PUSH20 0xFFFFFFFFFFFFFFFFFFFFFFFFFFFFFFFFFFFFFFFF AND PUSH0 CALLDATASIZE PUSH1 0x40 MLOAD PUSH2 0x10B SWAP3 SWAP2 SWAP1 PUSH2 0x376 JUMP JUMPDEST PUSH0 PUSH1 0x40 MLOAD DUP1 DUP4 SUB DUP2 DUP6 GAS DELEGATECALL SWAP2 POP POP RETURNDATASIZE DUP1 PUSH0 DUP2 EQ PUSH2 0x143 JUMPI PUSH1 0x40 MLOAD SWAP2 POP PUSH1 0x1F NOT PUSH1 0x3F RETURNDATASIZE ADD AND DUP3 ADD PUSH1 0x40 MSTORE RETURNDATASIZE DUP3 MSTORE RETURNDATASIZE PUSH0 PUSH1 0x20 DUP5 ADD RETURNDATACOPY PUSH2 0x148 JUMP JUMPDEST PUSH1 0x60 SWAP2 POP JUMPDEST STOP JUMPDEST CALLVALUE DUP1 ISZERO PUSH2 0x155 JUMPI PUSH0 PUSH0 REVERT JUMPDEST POP PUSH2 0x170 PUSH1 0x4 DUP1 CALLDATASIZE SUB DUP2 ADD SWAP1 PUSH2 0x16B SWAP2 SWAP1 PUSH2 0x3EC JUMP JUMPDEST PUSH2 0x19C JUMP JUMPDEST STOP JUMPDEST CALLVALUE DUP1 ISZERO PUSH2 0x17D JUMPI PUSH0 PUSH0 REVERT JUMPDEST POP PUSH2 0x186 PUSH2 0x236 JUMP JUMPDEST PUSH1 0x40 MLOAD PUSH2 0x193 SWAP2 SWAP1 PUSH2 0x477 JUMP JUMPDEST PUSH1 0x40 MLOAD DUP1 SWAP2 SUB SWAP1 RETURN JUMPDEST PUSH1 0x1 PUSH0 SWAP1 SLOAD SWAP1 PUSH2 0x100 EXP SWAP1 DIV PUSH20 0xFFFFFFFFFFFFFFFFFFFFFFFFFFFFFFFFFFFFFFFF AND PUSH20 0xFFFFFFFFFFFFFFFFFFFFFFFFFFFFFFFFFFFFFFFF AND CALLER PUSH20 0xFFFFFFFFFFFFFFFFFFFFFFFFFFFFFFFFFFFFFFFF AND EQ PUSH2 0x1F4 JUMPI PUSH0 PUSH0 REVERT JUMPDEST DUP1 PUSH0 PUSH0 PUSH2 0x100 EXP DUP2 SLOAD DUP2 PUSH20 0xFFFFFFFFFFFFFFFFFFFFFFFFFFFFFFFFFFFFFFFF MUL NOT AND SWAP1 DUP4 PUSH20 0xFFFFFFFFFFFFFFFFFFFFFFFFFFFFFFFFFFFFFFFF AND MUL OR SWAP1 SSTORE POP POP JUMP JUMPDEST PUSH1 0x2 DUP1 SLOAD PUSH2 0x243 SWAP1 PUSH2 0x4C4 JUMP JUMPDEST DUP1 PUSH1 0x1F ADD PUSH1 0x20 DUP1 SWAP2 DIV MUL PUSH1 0x20 ADD PUSH1 0x40 MLOAD SWAP1 DUP2 ADD PUSH1 0x40 MSTORE DUP1 SWAP3 SWAP2 SWAP1 DUP2 DUP2 MSTORE PUSH1 0x20 ADD DUP3 DUP1 SLOAD PUSH2 0x26F SWAP1 PUSH2 0x4C4 JUMP JUMPDEST DUP1 ISZERO PUSH2 0x2BA JUMPI DUP1 PUSH1 0x1F LT PUSH2 0x291 JUMPI PUSH2 0x100 DUP1 DUP4 SLOAD DIV MUL DUP4 MSTORE SWAP2 PUSH1 0x20 ADD SWAP2 PUSH2 0x2BA JUMP JUMPDEST DUP3 ADD SWAP2 SWAP1 PUSH0 MSTORE PUSH1 0x20 PUSH0 KECCAK256 SWAP1 JUMPDEST DUP2 SLOAD DUP2 MSTORE SWAP1 PUSH1 0x1 ADD SWAP1 PUSH1 0x20 ADD DUP1 DUP4 GT PUSH2 0x29D JUMPI DUP3 SWAP1 SUB PUSH1 0x1F AND DUP3 ADD SWAP2 JUMPDEST POP POP POP POP POP DUP2 JUMP JUMPDEST PUSH0 DUP3 DUP3 MSTORE PUSH1 0x20 DUP3 ADD SWAP1 POP SWAP3 SWAP2 POP POP JUMP JUMPDEST PUSH32 0x61646D696E2063616E6E6F742063616C6C000000000000000000000000000000 PUSH0 DUP3 ADD MSTORE POP JUMP JUMPDEST PUSH0 PUSH2 0x306 PUSH1 0x11 DUP4 PUSH2 0x2C2 JUMP JUMPDEST SWAP2 POP PUSH2 0x311 DUP3 PUSH2 0x2D2 JUMP JUMPDEST PUSH1 0x20 DUP3 ADD SWAP1 POP SWAP2 SWAP1 POP JUMP JUMPDEST PUSH0 PUSH1 0x20 DUP3 ADD SWAP1 POP DUP2 DUP2 SUB PUSH0 DUP4 ADD MSTORE PUSH2 0x333 DUP2 PUSH2 0x2FA JUMP JUMPDEST SWAP1 POP SWAP2 SWAP1 POP JUMP JUMPDEST PUSH0 DUP2 SWAP1 POP SWAP3 SWAP2 POP POP JUMP JUMPDEST DUP3 DUP2 DUP4 CALLDATACOPY PUSH0 DUP4 DUP4 ADD MSTORE POP POP POP JUMP JUMPDEST PUSH0 PUSH2 0x35D DUP4 DUP6 PUSH2 0x33A JUMP JUMPDEST SWAP4 POP PUSH2 0x36A DUP4 DUP6 DUP5 PUSH2 0x344 JUMP JUMPDEST DUP3 DUP5 ADD SWAP1 POP SWAP4 SWAP3 POP POP POP JUMP JUMPDEST PUSH0 PUSH2 0x382 DUP3 DUP5 DUP7 PUSH2 0x352 JUMP JUMPDEST SWAP2 POP DUP2 SWAP1 POP SWAP4 SWAP3 POP POP POP JUMP JUMPDEST PUSH0 PUSH0 REVERT JUMPDEST PUSH0 PUSH20 0xFFFFFFFFFFFFFFFFFFFFFFFFFFFFFFFFFFFFFFFF DUP3 AND SWAP1 POP SWAP2 SWAP1 POP JUMP JUMPDEST PUSH0 PUSH2 0x3BB DUP3 PUSH2 0x392 JUMP JUMPDEST SWAP1 POP SWAP2 SWAP1 POP JUMP JUMPDEST PUSH2 0x3CB DUP2 PUSH2 0x3B1 JUMP JUMPDEST DUP2 EQ PUSH2 0x3D5 JUMPI PUSH0 PUSH0 REVERT JUMPDEST POP JUMP JUMPDEST PUSH0 DUP2 CALLDATALOAD SWAP1 POP PUSH2 0x3E6 DUP2 PUSH2 0x3C2 JUMP JUMPDEST SWAP3 SWAP2 POP POP JUMP JUMPDEST PUSH0 PUSH1 0x20 DUP3 DUP5 SUB SLT ISZERO PUSH2 0x401 JUMPI PUSH2 0x400 PUSH2 0x38E JUMP JUMPDEST JUMPDEST PUSH0 PUSH2 0x40E DUP5 DUP3 DUP6 ADD PUSH2 0x3D8 JUMP JUMPDEST SWAP2 POP POP SWAP3 SWAP2 POP POP JUMP JUMPDEST PUSH0 DUP2 MLOAD SWAP1 POP SWAP2 SWAP1 POP JUMP JUMPDEST DUP3 DUP2 DUP4 MCOPY PUSH0 DUP4 DUP4 ADD MSTORE POP POP POP JUMP JUMPDEST PUSH0 PUSH1 0x1F NOT PUSH1 0x1F DUP4 ADD AND SWAP1 POP SWAP2 SWAP1 POP JUMP JUMPDEST PUSH0 PUSH2 0x449 DUP3 PUSH2 0x417 JUMP JUMPDEST PUSH2 0x453 DUP2 DUP6 PUSH2 0x2C2 JUMP JUMPDEST SWAP4 POP PUSH2 0x463 DUP2 DUP6 PUSH1 0x20 DUP7 ADD PUSH2 0x421 JUMP JUMPDEST PUSH2 0x46C DUP2 PUSH2 0x42F JUMP JUMPDEST DUP5 ADD SWAP2 POP POP SWAP3 SWAP2 POP POP JUMP JUMPDEST PUSH0 PUSH1 0x20 DUP3 ADD SWAP1 POP DUP2 DUP2 SUB PUSH0 DUP4 ADD MSTORE PUSH2 0x48F DUP2 DUP5 PUSH2 0x43F JUMP JUMPDEST SWAP1 POP SWAP3 SWAP2 POP POP JUMP JUMPDEST PUSH32 0x4E487B7100000000000000000000000000000000000000000000000000000000 PUSH0 MSTORE PUSH1 0x22 PUSH1 0x4 MSTORE PUSH1 0x24 PUSH0 REVERT JUMPDEST PUSH0 PUSH1 0x2 DUP3 DIV SWAP1 POP PUSH1 0x1 DUP3 AND DUP1 PUSH2 0x4DB JUMPI PUSH1 0x7F DUP3 AND SWAP2 POP JUMPDEST PUSH1 0x20 DUP3 LT DUP2 SUB PUSH2 0x4EE JUMPI PUSH2 0x4ED PUSH2 0x497 JUMP JUMPDEST JUMPDEST POP SWAP2 SWAP1 POP JUMP INVALID LOG2 PUSH5 0x6970667358 0x22 SLT KECCAK256 GT SIGNEXTEND 0xAB 0xB6 EXTCODESIZE 0xAF SWAP16 0xE2 JUMPDEST 0xEA DUP12 0xD SWAP9 0x4F NOT CALLDATALOAD MCOPY STATICCALL 0xBB EXTCALL PUSH28 0x9F65CCB0D4F7AB7A29AF8364736F6C634300081E0033000000000000 "
				},
				"gasEstimates": {
					"creation": {
						"codeDepositCost": "264400",
						"executionCost": "infinite",
						"totalCost": "infinite"
					},
					"external": {
						"": "infinite",
						"upgrade(address)": "26861",
						"words()": "infinite"
					}
				},
				"methodIdentifiers": {
					"upgrade(address)": "0900f010",
					"words()": "f2c31bd9"
				}
			},
			"storageLayout": {
				"storage": [
					{
						"astId": 20,
						"contract": "contracts/demos/TransparentContracts/TransparentContracts.sol:TransparentProxy",
						"label": "implementation",
						"offset": 0,
						"slot": "0",
						"type": "t_address"
					},
					{
						"astId": 22,
						"contract": "contracts/demos/TransparentContracts/TransparentContracts.sol:TransparentProxy",
						"label": "admin",
						"offset": 0,
						"slot": "1",
						"type": "t_address"
					},
					{
						"astId": 24,
						"contract": "contracts/demos/TransparentContracts/TransparentContracts.sol:TransparentProxy",
						"label": "words",
						"offset": 0,
						"slot": "2",
						"type": "t_string_storage"
					}
				],
				"types": {
					"t_address": {
						"encoding": "inplace",
						"label": "address",
						"numberOfBytes": "20"
					},
					"t_string_storage": {
						"encoding": "bytes",
						"label": "string",
						"numberOfBytes": "32"
					}
				}
			},
			"userdoc": {
				"kind": "user",
				"methods": {},
				"version": 1
			}
		}
	}
}