{
	"contracts/demos/UUPS/UUPS.sol": {
		"UUPS2": {
			"abi": [
				{
					"inputs": [],
					"name": "admin",
					"outputs": [
						{
							"internalType": "address",
							"name": "",
							"type": "address"
						}
					],
					"stateMutability": "view",
					"type": "function"
				},
				{
					"inputs": [],
					"name": "foo",
					"outputs": [],
					"stateMutability": "nonpayable",
					"type": "function"
				},
				{
					"inputs": [],
					"name": "implementation",
					"outputs": [
						{
							"internalType": "address",
							"name": "",
							"type": "address"
						}
					],
					"stateMutability": "view",
					"type": "function"
				},
				{
					"inputs": [
						{
							"internalType": "address",
							"name": "newImplementation",
							"type": "address"
						}
					],
					"name": "upgrade",
					"outputs": [],
					"stateMutability": "nonpayable",
					"type": "function"
				},
				{
					"inputs": [],
					"name": "words",
					"outputs": [
						{
							"internalType": "string",
							"name": "",
							"type": "string"
						}
					],
					"stateMutability": "view",
					"type": "function"
				}
			],
			"devdoc": {
				"kind": "dev",
				"methods": {},
				"version": 1
			},
			"evm": {
				"assembly": "    /* \"contracts/demos/UUPS/UUPS.sol\":1654:2325  contract UUPS2{... */\n  mstore(0x40, 0x80)\n  callvalue\n  dup1\n  iszero\n  tag_1\n  jumpi\n  revert(0x00, 0x00)\ntag_1:\n  pop\n  dataSize(sub_0)\n  dup1\n  dataOffset(sub_0)\n  0x00\n  codecopy\n  0x00\n  return\nstop\n\nsub_0: assembly {\n        /* \"contracts/demos/UUPS/UUPS.sol\":1654:2325  contract UUPS2{... */\n      mstore(0x40, 0x80)\n      callvalue\n      dup1\n      iszero\n      tag_1\n      jumpi\n      revert(0x00, 0x00)\n    tag_1:\n      pop\n      jumpi(tag_2, lt(calldatasize, 0x04))\n      shr(0xe0, calldataload(0x00))\n      dup1\n      0x0900f010\n      eq\n      tag_3\n      jumpi\n      dup1\n      0x5c60da1b\n      eq\n      tag_4\n      jumpi\n      dup1\n      0xc2985578\n      eq\n      tag_5\n      jumpi\n      dup1\n      0xf2c31bd9\n      eq\n      tag_6\n      jumpi\n      dup1\n      0xf851a440\n      eq\n      tag_7\n      jumpi\n    tag_2:\n      revert(0x00, 0x00)\n        /* \"contracts/demos/UUPS/UUPS.sol\":2181:2323  function upgrade(address newImplementation) external {... */\n    tag_3:\n      tag_8\n      0x04\n      dup1\n      calldatasize\n      sub\n      dup2\n      add\n      swap1\n      tag_9\n      swap2\n      swap1\n      tag_10\n      jump\t// in\n    tag_9:\n      tag_11\n      jump\t// in\n    tag_8:\n      stop\n        /* \"contracts/demos/UUPS/UUPS.sol\":1735:1764  address public implementation */\n    tag_4:\n      tag_12\n      tag_13\n      jump\t// in\n    tag_12:\n      mload(0x40)\n      tag_14\n      swap2\n      swap1\n      tag_15\n      jump\t// in\n    tag_14:\n      mload(0x40)\n      dup1\n      swap2\n      sub\n      swap1\n      return\n        /* \"contracts/demos/UUPS/UUPS.sol\":1939:1990  function foo() public{... */\n    tag_5:\n      tag_16\n      tag_17\n      jump\t// in\n    tag_16:\n      stop\n        /* \"contracts/demos/UUPS/UUPS.sol\":1798:1817  string public words */\n    tag_6:\n      tag_18\n      tag_19\n      jump\t// in\n    tag_18:\n      mload(0x40)\n      tag_20\n      swap2\n      swap1\n      tag_21\n      jump\t// in\n    tag_20:\n      mload(0x40)\n      dup1\n      swap2\n      sub\n      swap1\n      return\n        /* \"contracts/demos/UUPS/UUPS.sol\":1771:1791  address public admin */\n    tag_7:\n      tag_22\n      tag_23\n      jump\t// in\n    tag_22:\n      mload(0x40)\n      tag_24\n      swap2\n      swap1\n      tag_15\n      jump\t// in\n    tag_24:\n      mload(0x40)\n      dup1\n      swap2\n      sub\n      swap1\n      return\n        /* \"contracts/demos/UUPS/UUPS.sol\":2181:2323  function upgrade(address newImplementation) external {... */\n    tag_11:\n        /* \"contracts/demos/UUPS/UUPS.sol\":2266:2271  admin */\n      0x01\n      0x00\n      swap1\n      sload\n      swap1\n      0x0100\n      exp\n      swap1\n      div\n      0xffffffffffffffffffffffffffffffffffffffff\n      and\n        /* \"contracts/demos/UUPS/UUPS.sol\":2252:2271  msg.sender == admin */\n      0xffffffffffffffffffffffffffffffffffffffff\n      and\n        /* \"contracts/demos/UUPS/UUPS.sol\":2252:2262  msg.sender */\n      caller\n        /* \"contracts/demos/UUPS/UUPS.sol\":2252:2271  msg.sender == admin */\n      0xffffffffffffffffffffffffffffffffffffffff\n      and\n      eq\n        /* \"contracts/demos/UUPS/UUPS.sol\":2244:2272  require(msg.sender == admin) */\n      tag_26\n      jumpi\n      revert(0x00, 0x00)\n    tag_26:\n        /* \"contracts/demos/UUPS/UUPS.sol\":2299:2316  newImplementation */\n      dup1\n        /* \"contracts/demos/UUPS/UUPS.sol\":2282:2296  implementation */\n      0x00\n      0x00\n        /* \"contracts/demos/UUPS/UUPS.sol\":2282:2316  implementation = newImplementation */\n      0x0100\n      exp\n      dup2\n      sload\n      dup2\n      0xffffffffffffffffffffffffffffffffffffffff\n      mul\n      not\n      and\n      swap1\n      dup4\n      0xffffffffffffffffffffffffffffffffffffffff\n      and\n      mul\n      or\n      swap1\n      sstore\n      pop\n        /* \"contracts/demos/UUPS/UUPS.sol\":2181:2323  function upgrade(address newImplementation) external {... */\n      pop\n      jump\t// out\n        /* \"contracts/demos/UUPS/UUPS.sol\":1735:1764  address public implementation */\n    tag_13:\n      0x00\n      0x00\n      swap1\n      sload\n      swap1\n      0x0100\n      exp\n      swap1\n      div\n      0xffffffffffffffffffffffffffffffffffffffff\n      and\n      dup2\n      jump\t// out\n        /* \"contracts/demos/UUPS/UUPS.sol\":1939:1990  function foo() public{... */\n    tag_17:\n        /* \"contracts/demos/UUPS/UUPS.sol\":1970:1983  words = \"new\" */\n      mload(0x40)\n      dup1\n      0x40\n      add\n      0x40\n      mstore\n      dup1\n      0x03\n      dup2\n      mstore\n      0x20\n      add\n      0x6e65770000000000000000000000000000000000000000000000000000000000\n      dup2\n      mstore\n      pop\n        /* \"contracts/demos/UUPS/UUPS.sol\":1970:1975  words */\n      0x02\n        /* \"contracts/demos/UUPS/UUPS.sol\":1970:1983  words = \"new\" */\n      swap1\n      dup2\n      tag_28\n      swap2\n      swap1\n      tag_29\n      jump\t// in\n    tag_28:\n      pop\n        /* \"contracts/demos/UUPS/UUPS.sol\":1939:1990  function foo() public{... */\n      jump\t// out\n        /* \"contracts/demos/UUPS/UUPS.sol\":1798:1817  string public words */\n    tag_19:\n      0x02\n      dup1\n      sload\n      tag_30\n      swap1\n      tag_31\n      jump\t// in\n    tag_30:\n      dup1\n      0x1f\n      add\n      0x20\n      dup1\n      swap2\n      div\n      mul\n      0x20\n      add\n      mload(0x40)\n      swap1\n      dup2\n      add\n      0x40\n      mstore\n      dup1\n      swap3\n      swap2\n      swap1\n      dup2\n      dup2\n      mstore\n      0x20\n      add\n      dup3\n      dup1\n      sload\n      tag_32\n      swap1\n      tag_31\n      jump\t// in\n    tag_32:\n      dup1\n      iszero\n      tag_33\n      jumpi\n      dup1\n      0x1f\n      lt\n      tag_34\n      jumpi\n      0x0100\n      dup1\n      dup4\n      sload\n      div\n      mul\n      dup4\n      mstore\n      swap2\n      0x20\n      add\n      swap2\n      jump(tag_33)\n    tag_34:\n      dup3\n      add\n      swap2\n      swap1\n      0x00\n      mstore\n      keccak256(0x00, 0x20)\n      swap1\n    tag_35:\n      dup2\n      sload\n      dup2\n      mstore\n      swap1\n      0x01\n      add\n      swap1\n      0x20\n      add\n      dup1\n      dup4\n      gt\n      tag_35\n      jumpi\n      dup3\n      swap1\n      sub\n      0x1f\n      and\n      dup3\n      add\n      swap2\n    tag_33:\n      pop\n      pop\n      pop\n      pop\n      pop\n      dup2\n      jump\t// out\n        /* \"contracts/demos/UUPS/UUPS.sol\":1771:1791  address public admin */\n    tag_23:\n      0x01\n      0x00\n      swap1\n      sload\n      swap1\n      0x0100\n      exp\n      swap1\n      div\n      0xffffffffffffffffffffffffffffffffffffffff\n      and\n      dup2\n      jump\t// out\n        /* \"#utility.yul\":88:205   */\n    tag_37:\n        /* \"#utility.yul\":197:198   */\n      0x00\n        /* \"#utility.yul\":194:195   */\n      0x00\n        /* \"#utility.yul\":187:199   */\n      revert\n        /* \"#utility.yul\":334:460   */\n    tag_39:\n        /* \"#utility.yul\":371:378   */\n      0x00\n        /* \"#utility.yul\":411:453   */\n      0xffffffffffffffffffffffffffffffffffffffff\n        /* \"#utility.yul\":404:409   */\n      dup3\n        /* \"#utility.yul\":400:454   */\n      and\n        /* \"#utility.yul\":389:454   */\n      swap1\n      pop\n        /* \"#utility.yul\":334:460   */\n      swap2\n      swap1\n      pop\n      jump\t// out\n        /* \"#utility.yul\":466:562   */\n    tag_40:\n        /* \"#utility.yul\":503:510   */\n      0x00\n        /* \"#utility.yul\":532:556   */\n      tag_73\n        /* \"#utility.yul\":550:555   */\n      dup3\n        /* \"#utility.yul\":532:556   */\n      tag_39\n      jump\t// in\n    tag_73:\n        /* \"#utility.yul\":521:556   */\n      swap1\n      pop\n        /* \"#utility.yul\":466:562   */\n      swap2\n      swap1\n      pop\n      jump\t// out\n        /* \"#utility.yul\":568:690   */\n    tag_41:\n        /* \"#utility.yul\":641:665   */\n      tag_75\n        /* \"#utility.yul\":659:664   */\n      dup2\n        /* \"#utility.yul\":641:665   */\n      tag_40\n      jump\t// in\n    tag_75:\n        /* \"#utility.yul\":634:639   */\n      dup2\n        /* \"#utility.yul\":631:666   */\n      eq\n        /* \"#utility.yul\":621:684   */\n      tag_76\n      jumpi\n        /* \"#utility.yul\":680:681   */\n      0x00\n        /* \"#utility.yul\":677:678   */\n      0x00\n        /* \"#utility.yul\":670:682   */\n      revert\n        /* \"#utility.yul\":621:684   */\n    tag_76:\n        /* \"#utility.yul\":568:690   */\n      pop\n      jump\t// out\n        /* \"#utility.yul\":696:835   */\n    tag_42:\n        /* \"#utility.yul\":742:747   */\n      0x00\n        /* \"#utility.yul\":780:786   */\n      dup2\n        /* \"#utility.yul\":767:787   */\n      calldataload\n        /* \"#utility.yul\":758:787   */\n      swap1\n      pop\n        /* \"#utility.yul\":796:829   */\n      tag_78\n        /* \"#utility.yul\":823:828   */\n      dup2\n        /* \"#utility.yul\":796:829   */\n      tag_41\n      jump\t// in\n    tag_78:\n        /* \"#utility.yul\":696:835   */\n      swap3\n      swap2\n      pop\n      pop\n      jump\t// out\n        /* \"#utility.yul\":841:1170   */\n    tag_10:\n        /* \"#utility.yul\":900:906   */\n      0x00\n        /* \"#utility.yul\":949:951   */\n      0x20\n        /* \"#utility.yul\":937:946   */\n      dup3\n        /* \"#utility.yul\":928:935   */\n      dup5\n        /* \"#utility.yul\":924:947   */\n      sub\n        /* \"#utility.yul\":920:952   */\n      slt\n        /* \"#utility.yul\":917:1036   */\n      iszero\n      tag_80\n      jumpi\n        /* \"#utility.yul\":955:1034   */\n      tag_81\n      tag_37\n      jump\t// in\n    tag_81:\n        /* \"#utility.yul\":917:1036   */\n    tag_80:\n        /* \"#utility.yul\":1075:1076   */\n      0x00\n        /* \"#utility.yul\":1100:1153   */\n      tag_82\n        /* \"#utility.yul\":1145:1152   */\n      dup5\n        /* \"#utility.yul\":1136:1142   */\n      dup3\n        /* \"#utility.yul\":1125:1134   */\n      dup6\n        /* \"#utility.yul\":1121:1143   */\n      add\n        /* \"#utility.yul\":1100:1153   */\n      tag_42\n      jump\t// in\n    tag_82:\n        /* \"#utility.yul\":1090:1153   */\n      swap2\n      pop\n        /* \"#utility.yul\":1046:1163   */\n      pop\n        /* \"#utility.yul\":841:1170   */\n      swap3\n      swap2\n      pop\n      pop\n      jump\t// out\n        /* \"#utility.yul\":1176:1294   */\n    tag_43:\n        /* \"#utility.yul\":1263:1287   */\n      tag_84\n        /* \"#utility.yul\":1281:1286   */\n      dup2\n        /* \"#utility.yul\":1263:1287   */\n      tag_40\n      jump\t// in\n    tag_84:\n        /* \"#utility.yul\":1258:1261   */\n      dup3\n        /* \"#utility.yul\":1251:1288   */\n      mstore\n        /* \"#utility.yul\":1176:1294   */\n      pop\n      pop\n      jump\t// out\n        /* \"#utility.yul\":1300:1522   */\n    tag_15:\n        /* \"#utility.yul\":1393:1397   */\n      0x00\n        /* \"#utility.yul\":1431:1433   */\n      0x20\n        /* \"#utility.yul\":1420:1429   */\n      dup3\n        /* \"#utility.yul\":1416:1434   */\n      add\n        /* \"#utility.yul\":1408:1434   */\n      swap1\n      pop\n        /* \"#utility.yul\":1444:1515   */\n      tag_86\n        /* \"#utility.yul\":1512:1513   */\n      0x00\n        /* \"#utility.yul\":1501:1510   */\n      dup4\n        /* \"#utility.yul\":1497:1514   */\n      add\n        /* \"#utility.yul\":1488:1494   */\n      dup5\n        /* \"#utility.yul\":1444:1515   */\n      tag_43\n      jump\t// in\n    tag_86:\n        /* \"#utility.yul\":1300:1522   */\n      swap3\n      swap2\n      pop\n      pop\n      jump\t// out\n        /* \"#utility.yul\":1528:1627   */\n    tag_44:\n        /* \"#utility.yul\":1580:1586   */\n      0x00\n        /* \"#utility.yul\":1614:1619   */\n      dup2\n        /* \"#utility.yul\":1608:1620   */\n      mload\n        /* \"#utility.yul\":1598:1620   */\n      swap1\n      pop\n        /* \"#utility.yul\":1528:1627   */\n      swap2\n      swap1\n      pop\n      jump\t// out\n        /* \"#utility.yul\":1633:1802   */\n    tag_45:\n        /* \"#utility.yul\":1717:1728   */\n      0x00\n        /* \"#utility.yul\":1751:1757   */\n      dup3\n        /* \"#utility.yul\":1746:1749   */\n      dup3\n        /* \"#utility.yul\":1739:1758   */\n      mstore\n        /* \"#utility.yul\":1791:1795   */\n      0x20\n        /* \"#utility.yul\":1786:1789   */\n      dup3\n        /* \"#utility.yul\":1782:1796   */\n      add\n        /* \"#utility.yul\":1767:1796   */\n      swap1\n      pop\n        /* \"#utility.yul\":1633:1802   */\n      swap3\n      swap2\n      pop\n      pop\n      jump\t// out\n        /* \"#utility.yul\":1808:1947   */\n    tag_46:\n        /* \"#utility.yul\":1897:1903   */\n      dup3\n        /* \"#utility.yul\":1892:1895   */\n      dup2\n        /* \"#utility.yul\":1887:1890   */\n      dup4\n        /* \"#utility.yul\":1881:1904   */\n      mcopy\n        /* \"#utility.yul\":1938:1939   */\n      0x00\n        /* \"#utility.yul\":1929:1935   */\n      dup4\n        /* \"#utility.yul\":1924:1927   */\n      dup4\n        /* \"#utility.yul\":1920:1936   */\n      add\n        /* \"#utility.yul\":1913:1940   */\n      mstore\n        /* \"#utility.yul\":1808:1947   */\n      pop\n      pop\n      pop\n      jump\t// out\n        /* \"#utility.yul\":1953:2055   */\n    tag_47:\n        /* \"#utility.yul\":1994:2000   */\n      0x00\n        /* \"#utility.yul\":2045:2047   */\n      0x1f\n        /* \"#utility.yul\":2041:2048   */\n      not\n        /* \"#utility.yul\":2036:2038   */\n      0x1f\n        /* \"#utility.yul\":2029:2034   */\n      dup4\n        /* \"#utility.yul\":2025:2039   */\n      add\n        /* \"#utility.yul\":2021:2049   */\n      and\n        /* \"#utility.yul\":2011:2049   */\n      swap1\n      pop\n        /* \"#utility.yul\":1953:2055   */\n      swap2\n      swap1\n      pop\n      jump\t// out\n        /* \"#utility.yul\":2061:2438   */\n    tag_48:\n        /* \"#utility.yul\":2149:2152   */\n      0x00\n        /* \"#utility.yul\":2177:2216   */\n      tag_92\n        /* \"#utility.yul\":2210:2215   */\n      dup3\n        /* \"#utility.yul\":2177:2216   */\n      tag_44\n      jump\t// in\n    tag_92:\n        /* \"#utility.yul\":2232:2303   */\n      tag_93\n        /* \"#utility.yul\":2296:2302   */\n      dup2\n        /* \"#utility.yul\":2291:2294   */\n      dup6\n        /* \"#utility.yul\":2232:2303   */\n      tag_45\n      jump\t// in\n    tag_93:\n        /* \"#utility.yul\":2225:2303   */\n      swap4\n      pop\n        /* \"#utility.yul\":2312:2377   */\n      tag_94\n        /* \"#utility.yul\":2370:2376   */\n      dup2\n        /* \"#utility.yul\":2365:2368   */\n      dup6\n        /* \"#utility.yul\":2358:2362   */\n      0x20\n        /* \"#utility.yul\":2351:2356   */\n      dup7\n        /* \"#utility.yul\":2347:2363   */\n      add\n        /* \"#utility.yul\":2312:2377   */\n      tag_46\n      jump\t// in\n    tag_94:\n        /* \"#utility.yul\":2402:2431   */\n      tag_95\n        /* \"#utility.yul\":2424:2430   */\n      dup2\n        /* \"#utility.yul\":2402:2431   */\n      tag_47\n      jump\t// in\n    tag_95:\n        /* \"#utility.yul\":2397:2400   */\n      dup5\n        /* \"#utility.yul\":2393:2432   */\n      add\n        /* \"#utility.yul\":2386:2432   */\n      swap2\n      pop\n        /* \"#utility.yul\":2153:2438   */\n      pop\n        /* \"#utility.yul\":2061:2438   */\n      swap3\n      swap2\n      pop\n      pop\n      jump\t// out\n        /* \"#utility.yul\":2444:2757   */\n    tag_21:\n        /* \"#utility.yul\":2557:2561   */\n      0x00\n        /* \"#utility.yul\":2595:2597   */\n      0x20\n        /* \"#utility.yul\":2584:2593   */\n      dup3\n        /* \"#utility.yul\":2580:2598   */\n      add\n        /* \"#utility.yul\":2572:2598   */\n      swap1\n      pop\n        /* \"#utility.yul\":2644:2653   */\n      dup2\n        /* \"#utility.yul\":2638:2642   */\n      dup2\n        /* \"#utility.yul\":2634:2654   */\n      sub\n        /* \"#utility.yul\":2630:2631   */\n      0x00\n        /* \"#utility.yul\":2619:2628   */\n      dup4\n        /* \"#utility.yul\":2615:2632   */\n      add\n        /* \"#utility.yul\":2608:2655   */\n      mstore\n        /* \"#utility.yul\":2672:2750   */\n      tag_97\n        /* \"#utility.yul\":2745:2749   */\n      dup2\n        /* \"#utility.yul\":2736:2742   */\n      dup5\n        /* \"#utility.yul\":2672:2750   */\n      tag_48\n      jump\t// in\n    tag_97:\n        /* \"#utility.yul\":2664:2750   */\n      swap1\n      pop\n        /* \"#utility.yul\":2444:2757   */\n      swap3\n      swap2\n      pop\n      pop\n      jump\t// out\n        /* \"#utility.yul\":2763:2943   */\n    tag_49:\n        /* \"#utility.yul\":2811:2888   */\n      0x4e487b7100000000000000000000000000000000000000000000000000000000\n        /* \"#utility.yul\":2808:2809   */\n      0x00\n        /* \"#utility.yul\":2801:2889   */\n      mstore\n        /* \"#utility.yul\":2908:2912   */\n      0x41\n        /* \"#utility.yul\":2905:2906   */\n      0x04\n        /* \"#utility.yul\":2898:2913   */\n      mstore\n        /* \"#utility.yul\":2932:2936   */\n      0x24\n        /* \"#utility.yul\":2929:2930   */\n      0x00\n        /* \"#utility.yul\":2922:2937   */\n      revert\n        /* \"#utility.yul\":2949:3129   */\n    tag_50:\n        /* \"#utility.yul\":2997:3074   */\n      0x4e487b7100000000000000000000000000000000000000000000000000000000\n        /* \"#utility.yul\":2994:2995   */\n      0x00\n        /* \"#utility.yul\":2987:3075   */\n      mstore\n        /* \"#utility.yul\":3094:3098   */\n      0x22\n        /* \"#utility.yul\":3091:3092   */\n      0x04\n        /* \"#utility.yul\":3084:3099   */\n      mstore\n        /* \"#utility.yul\":3118:3122   */\n      0x24\n        /* \"#utility.yul\":3115:3116   */\n      0x00\n        /* \"#utility.yul\":3108:3123   */\n      revert\n        /* \"#utility.yul\":3135:3455   */\n    tag_31:\n        /* \"#utility.yul\":3179:3185   */\n      0x00\n        /* \"#utility.yul\":3216:3217   */\n      0x02\n        /* \"#utility.yul\":3210:3214   */\n      dup3\n        /* \"#utility.yul\":3206:3218   */\n      div\n        /* \"#utility.yul\":3196:3218   */\n      swap1\n      pop\n        /* \"#utility.yul\":3263:3264   */\n      0x01\n        /* \"#utility.yul\":3257:3261   */\n      dup3\n        /* \"#utility.yul\":3253:3265   */\n      and\n        /* \"#utility.yul\":3284:3302   */\n      dup1\n        /* \"#utility.yul\":3274:3355   */\n      tag_101\n      jumpi\n        /* \"#utility.yul\":3340:3344   */\n      0x7f\n        /* \"#utility.yul\":3332:3338   */\n      dup3\n        /* \"#utility.yul\":3328:3345   */\n      and\n        /* \"#utility.yul\":3318:3345   */\n      swap2\n      pop\n        /* \"#utility.yul\":3274:3355   */\n    tag_101:\n        /* \"#utility.yul\":3402:3404   */\n      0x20\n        /* \"#utility.yul\":3394:3400   */\n      dup3\n        /* \"#utility.yul\":3391:3405   */\n      lt\n        /* \"#utility.yul\":3371:3389   */\n      dup2\n        /* \"#utility.yul\":3368:3406   */\n      sub\n        /* \"#utility.yul\":3365:3449   */\n      tag_102\n      jumpi\n        /* \"#utility.yul\":3421:3439   */\n      tag_103\n      tag_50\n      jump\t// in\n    tag_103:\n        /* \"#utility.yul\":3365:3449   */\n    tag_102:\n        /* \"#utility.yul\":3186:3455   */\n      pop\n        /* \"#utility.yul\":3135:3455   */\n      swap2\n      swap1\n      pop\n      jump\t// out\n        /* \"#utility.yul\":3461:3602   */\n    tag_51:\n        /* \"#utility.yul\":3510:3514   */\n      0x00\n        /* \"#utility.yul\":3533:3536   */\n      dup2\n        /* \"#utility.yul\":3525:3536   */\n      swap1\n      pop\n        /* \"#utility.yul\":3556:3559   */\n      dup2\n        /* \"#utility.yul\":3553:3554   */\n      0x00\n        /* \"#utility.yul\":3546:3560   */\n      mstore\n        /* \"#utility.yul\":3590:3594   */\n      0x20\n        /* \"#utility.yul\":3587:3588   */\n      0x00\n        /* \"#utility.yul\":3577:3595   */\n      keccak256\n        /* \"#utility.yul\":3569:3595   */\n      swap1\n      pop\n        /* \"#utility.yul\":3461:3602   */\n      swap2\n      swap1\n      pop\n      jump\t// out\n        /* \"#utility.yul\":3608:3701   */\n    tag_52:\n        /* \"#utility.yul\":3645:3651   */\n      0x00\n        /* \"#utility.yul\":3692:3694   */\n      0x20\n        /* \"#utility.yul\":3687:3689   */\n      0x1f\n        /* \"#utility.yul\":3680:3685   */\n      dup4\n        /* \"#utility.yul\":3676:3690   */\n      add\n        /* \"#utility.yul\":3672:3695   */\n      div\n        /* \"#utility.yul\":3662:3695   */\n      swap1\n      pop\n        /* \"#utility.yul\":3608:3701   */\n      swap2\n      swap1\n      pop\n      jump\t// out\n        /* \"#utility.yul\":3707:3814   */\n    tag_53:\n        /* \"#utility.yul\":3751:3759   */\n      0x00\n        /* \"#utility.yul\":3801:3806   */\n      dup3\n        /* \"#utility.yul\":3795:3799   */\n      dup3\n        /* \"#utility.yul\":3791:3807   */\n      shl\n        /* \"#utility.yul\":3770:3807   */\n      swap1\n      pop\n        /* \"#utility.yul\":3707:3814   */\n      swap3\n      swap2\n      pop\n      pop\n      jump\t// out\n        /* \"#utility.yul\":3820:4213   */\n    tag_54:\n        /* \"#utility.yul\":3889:3895   */\n      0x00\n        /* \"#utility.yul\":3939:3940   */\n      0x08\n        /* \"#utility.yul\":3927:3937   */\n      dup4\n        /* \"#utility.yul\":3923:3941   */\n      mul\n        /* \"#utility.yul\":3962:4059   */\n      tag_108\n        /* \"#utility.yul\":3992:4058   */\n      0xffffffffffffffffffffffffffffffffffffffffffffffffffffffffffffffff\n        /* \"#utility.yul\":3981:3990   */\n      dup3\n        /* \"#utility.yul\":3962:4059   */\n      tag_53\n      jump\t// in\n    tag_108:\n        /* \"#utility.yul\":4080:4119   */\n      tag_109\n        /* \"#utility.yul\":4110:4118   */\n      dup7\n        /* \"#utility.yul\":4099:4108   */\n      dup4\n        /* \"#utility.yul\":4080:4119   */\n      tag_53\n      jump\t// in\n    tag_109:\n        /* \"#utility.yul\":4068:4119   */\n      swap6\n      pop\n        /* \"#utility.yul\":4152:4156   */\n      dup1\n        /* \"#utility.yul\":4148:4157   */\n      not\n        /* \"#utility.yul\":4141:4146   */\n      dup5\n        /* \"#utility.yul\":4137:4158   */\n      and\n        /* \"#utility.yul\":4128:4158   */\n      swap4\n      pop\n        /* \"#utility.yul\":4201:4205   */\n      dup1\n        /* \"#utility.yul\":4191:4199   */\n      dup7\n        /* \"#utility.yul\":4187:4206   */\n      and\n        /* \"#utility.yul\":4180:4185   */\n      dup5\n        /* \"#utility.yul\":4177:4207   */\n      or\n        /* \"#utility.yul\":4167:4207   */\n      swap3\n      pop\n        /* \"#utility.yul\":3896:4213   */\n      pop\n      pop\n        /* \"#utility.yul\":3820:4213   */\n      swap4\n      swap3\n      pop\n      pop\n      pop\n      jump\t// out\n        /* \"#utility.yul\":4219:4296   */\n    tag_55:\n        /* \"#utility.yul\":4256:4263   */\n      0x00\n        /* \"#utility.yul\":4285:4290   */\n      dup2\n        /* \"#utility.yul\":4274:4290   */\n      swap1\n      pop\n        /* \"#utility.yul\":4219:4296   */\n      swap2\n      swap1\n      pop\n      jump\t// out\n        /* \"#utility.yul\":4302:4362   */\n    tag_56:\n        /* \"#utility.yul\":4330:4333   */\n      0x00\n        /* \"#utility.yul\":4351:4356   */\n      dup2\n        /* \"#utility.yul\":4344:4356   */\n      swap1\n      pop\n        /* \"#utility.yul\":4302:4362   */\n      swap2\n      swap1\n      pop\n      jump\t// out\n        /* \"#utility.yul\":4368:4510   */\n    tag_57:\n        /* \"#utility.yul\":4418:4427   */\n      0x00\n        /* \"#utility.yul\":4451:4504   */\n      tag_113\n        /* \"#utility.yul\":4469:4503   */\n      tag_114\n        /* \"#utility.yul\":4478:4502   */\n      tag_115\n        /* \"#utility.yul\":4496:4501   */\n      dup5\n        /* \"#utility.yul\":4478:4502   */\n      tag_55\n      jump\t// in\n    tag_115:\n        /* \"#utility.yul\":4469:4503   */\n      tag_56\n      jump\t// in\n    tag_114:\n        /* \"#utility.yul\":4451:4504   */\n      tag_55\n      jump\t// in\n    tag_113:\n        /* \"#utility.yul\":4438:4504   */\n      swap1\n      pop\n        /* \"#utility.yul\":4368:4510   */\n      swap2\n      swap1\n      pop\n      jump\t// out\n        /* \"#utility.yul\":4516:4591   */\n    tag_58:\n        /* \"#utility.yul\":4559:4562   */\n      0x00\n        /* \"#utility.yul\":4580:4585   */\n      dup2\n        /* \"#utility.yul\":4573:4585   */\n      swap1\n      pop\n        /* \"#utility.yul\":4516:4591   */\n      swap2\n      swap1\n      pop\n      jump\t// out\n        /* \"#utility.yul\":4597:4866   */\n    tag_59:\n        /* \"#utility.yul\":4707:4746   */\n      tag_118\n        /* \"#utility.yul\":4738:4745   */\n      dup4\n        /* \"#utility.yul\":4707:4746   */\n      tag_57\n      jump\t// in\n    tag_118:\n        /* \"#utility.yul\":4768:4859   */\n      tag_119\n        /* \"#utility.yul\":4817:4858   */\n      tag_120\n        /* \"#utility.yul\":4841:4857   */\n      dup3\n        /* \"#utility.yul\":4817:4858   */\n      tag_58\n      jump\t// in\n    tag_120:\n        /* \"#utility.yul\":4809:4815   */\n      dup5\n        /* \"#utility.yul\":4802:4806   */\n      dup5\n        /* \"#utility.yul\":4796:4807   */\n      sload\n        /* \"#utility.yul\":4768:4859   */\n      tag_54\n      jump\t// in\n    tag_119:\n        /* \"#utility.yul\":4762:4766   */\n      dup3\n        /* \"#utility.yul\":4755:4860   */\n      sstore\n        /* \"#utility.yul\":4673:4866   */\n      pop\n        /* \"#utility.yul\":4597:4866   */\n      pop\n      pop\n      pop\n      jump\t// out\n        /* \"#utility.yul\":4872:4945   */\n    tag_60:\n        /* \"#utility.yul\":4917:4920   */\n      0x00\n        /* \"#utility.yul\":4938:4939   */\n      0x00\n        /* \"#utility.yul\":4931:4939   */\n      swap1\n      pop\n        /* \"#utility.yul\":4872:4945   */\n      swap1\n      jump\t// out\n        /* \"#utility.yul\":4951:5140   */\n    tag_61:\n        /* \"#utility.yul\":5028:5060   */\n      tag_123\n      tag_60\n      jump\t// in\n    tag_123:\n        /* \"#utility.yul\":5069:5134   */\n      tag_124\n        /* \"#utility.yul\":5127:5133   */\n      dup2\n        /* \"#utility.yul\":5119:5125   */\n      dup5\n        /* \"#utility.yul\":5113:5117   */\n      dup5\n        /* \"#utility.yul\":5069:5134   */\n      tag_59\n      jump\t// in\n    tag_124:\n        /* \"#utility.yul\":5004:5140   */\n      pop\n        /* \"#utility.yul\":4951:5140   */\n      pop\n      pop\n      jump\t// out\n        /* \"#utility.yul\":5146:5332   */\n    tag_62:\n        /* \"#utility.yul\":5206:5326   */\n    tag_126:\n        /* \"#utility.yul\":5223:5226   */\n      dup2\n        /* \"#utility.yul\":5216:5221   */\n      dup2\n        /* \"#utility.yul\":5213:5227   */\n      lt\n        /* \"#utility.yul\":5206:5326   */\n      iszero\n      tag_128\n      jumpi\n        /* \"#utility.yul\":5277:5316   */\n      tag_129\n        /* \"#utility.yul\":5314:5315   */\n      0x00\n        /* \"#utility.yul\":5307:5312   */\n      dup3\n        /* \"#utility.yul\":5277:5316   */\n      tag_61\n      jump\t// in\n    tag_129:\n        /* \"#utility.yul\":5250:5251   */\n      0x01\n        /* \"#utility.yul\":5243:5248   */\n      dup2\n        /* \"#utility.yul\":5239:5252   */\n      add\n        /* \"#utility.yul\":5230:5252   */\n      swap1\n      pop\n        /* \"#utility.yul\":5206:5326   */\n      jump(tag_126)\n    tag_128:\n        /* \"#utility.yul\":5146:5332   */\n      pop\n      pop\n      jump\t// out\n        /* \"#utility.yul\":5338:5881   */\n    tag_63:\n        /* \"#utility.yul\":5439:5441   */\n      0x1f\n        /* \"#utility.yul\":5434:5437   */\n      dup3\n        /* \"#utility.yul\":5431:5442   */\n      gt\n        /* \"#utility.yul\":5428:5874   */\n      iszero\n      tag_131\n      jumpi\n        /* \"#utility.yul\":5473:5511   */\n      tag_132\n        /* \"#utility.yul\":5505:5510   */\n      dup2\n        /* \"#utility.yul\":5473:5511   */\n      tag_51\n      jump\t// in\n    tag_132:\n        /* \"#utility.yul\":5557:5586   */\n      tag_133\n        /* \"#utility.yul\":5575:5585   */\n      dup5\n        /* \"#utility.yul\":5557:5586   */\n      tag_52\n      jump\t// in\n    tag_133:\n        /* \"#utility.yul\":5547:5555   */\n      dup2\n        /* \"#utility.yul\":5543:5587   */\n      add\n        /* \"#utility.yul\":5740:5742   */\n      0x20\n        /* \"#utility.yul\":5728:5738   */\n      dup6\n        /* \"#utility.yul\":5725:5743   */\n      lt\n        /* \"#utility.yul\":5722:5771   */\n      iszero\n      tag_134\n      jumpi\n        /* \"#utility.yul\":5761:5769   */\n      dup2\n        /* \"#utility.yul\":5746:5769   */\n      swap1\n      pop\n        /* \"#utility.yul\":5722:5771   */\n    tag_134:\n        /* \"#utility.yul\":5784:5864   */\n      tag_135\n        /* \"#utility.yul\":5840:5862   */\n      tag_136\n        /* \"#utility.yul\":5858:5861   */\n      dup6\n        /* \"#utility.yul\":5840:5862   */\n      tag_52\n      jump\t// in\n    tag_136:\n        /* \"#utility.yul\":5830:5838   */\n      dup4\n        /* \"#utility.yul\":5826:5863   */\n      add\n        /* \"#utility.yul\":5813:5824   */\n      dup3\n        /* \"#utility.yul\":5784:5864   */\n      tag_62\n      jump\t// in\n    tag_135:\n        /* \"#utility.yul\":5443:5874   */\n      pop\n      pop\n        /* \"#utility.yul\":5428:5874   */\n    tag_131:\n        /* \"#utility.yul\":5338:5881   */\n      pop\n      pop\n      pop\n      jump\t// out\n        /* \"#utility.yul\":5887:6004   */\n    tag_64:\n        /* \"#utility.yul\":5941:5949   */\n      0x00\n        /* \"#utility.yul\":5991:5996   */\n      dup3\n        /* \"#utility.yul\":5985:5989   */\n      dup3\n        /* \"#utility.yul\":5981:5997   */\n      shr\n        /* \"#utility.yul\":5960:5997   */\n      swap1\n      pop\n        /* \"#utility.yul\":5887:6004   */\n      swap3\n      swap2\n      pop\n      pop\n      jump\t// out\n        /* \"#utility.yul\":6010:6179   */\n    tag_65:\n        /* \"#utility.yul\":6054:6060   */\n      0x00\n        /* \"#utility.yul\":6087:6138   */\n      tag_139\n        /* \"#utility.yul\":6135:6136   */\n      0x00\n        /* \"#utility.yul\":6131:6137   */\n      not\n        /* \"#utility.yul\":6123:6128   */\n      dup5\n        /* \"#utility.yul\":6120:6121   */\n      0x08\n        /* \"#utility.yul\":6116:6129   */\n      mul\n        /* \"#utility.yul\":6087:6138   */\n      tag_64\n      jump\t// in\n    tag_139:\n        /* \"#utility.yul\":6083:6139   */\n      not\n        /* \"#utility.yul\":6168:6172   */\n      dup1\n        /* \"#utility.yul\":6162:6166   */\n      dup4\n        /* \"#utility.yul\":6158:6173   */\n      and\n        /* \"#utility.yul\":6148:6173   */\n      swap2\n      pop\n        /* \"#utility.yul\":6061:6179   */\n      pop\n        /* \"#utility.yul\":6010:6179   */\n      swap3\n      swap2\n      pop\n      pop\n      jump\t// out\n        /* \"#utility.yul\":6184:6479   */\n    tag_66:\n        /* \"#utility.yul\":6260:6264   */\n      0x00\n        /* \"#utility.yul\":6406:6435   */\n      tag_141\n        /* \"#utility.yul\":6431:6434   */\n      dup4\n        /* \"#utility.yul\":6425:6429   */\n      dup4\n        /* \"#utility.yul\":6406:6435   */\n      tag_65\n      jump\t// in\n    tag_141:\n        /* \"#utility.yul\":6398:6435   */\n      swap2\n      pop\n        /* \"#utility.yul\":6468:6471   */\n      dup3\n        /* \"#utility.yul\":6465:6466   */\n      0x02\n        /* \"#utility.yul\":6461:6472   */\n      mul\n        /* \"#utility.yul\":6455:6459   */\n      dup3\n        /* \"#utility.yul\":6452:6473   */\n      or\n        /* \"#utility.yul\":6444:6473   */\n      swap1\n      pop\n        /* \"#utility.yul\":6184:6479   */\n      swap3\n      swap2\n      pop\n      pop\n      jump\t// out\n        /* \"#utility.yul\":6484:7879   */\n    tag_29:\n        /* \"#utility.yul\":6601:6638   */\n      tag_143\n        /* \"#utility.yul\":6634:6637   */\n      dup3\n        /* \"#utility.yul\":6601:6638   */\n      tag_44\n      jump\t// in\n    tag_143:\n        /* \"#utility.yul\":6703:6721   */\n      0xffffffffffffffff\n        /* \"#utility.yul\":6695:6701   */\n      dup2\n        /* \"#utility.yul\":6692:6722   */\n      gt\n        /* \"#utility.yul\":6689:6745   */\n      iszero\n      tag_144\n      jumpi\n        /* \"#utility.yul\":6725:6743   */\n      tag_145\n      tag_49\n      jump\t// in\n    tag_145:\n        /* \"#utility.yul\":6689:6745   */\n    tag_144:\n        /* \"#utility.yul\":6769:6807   */\n      tag_146\n        /* \"#utility.yul\":6801:6805   */\n      dup3\n        /* \"#utility.yul\":6795:6806   */\n      sload\n        /* \"#utility.yul\":6769:6807   */\n      tag_31\n      jump\t// in\n    tag_146:\n        /* \"#utility.yul\":6854:6921   */\n      tag_147\n        /* \"#utility.yul\":6914:6920   */\n      dup3\n        /* \"#utility.yul\":6906:6912   */\n      dup3\n        /* \"#utility.yul\":6900:6904   */\n      dup6\n        /* \"#utility.yul\":6854:6921   */\n      tag_63\n      jump\t// in\n    tag_147:\n        /* \"#utility.yul\":6948:6949   */\n      0x00\n        /* \"#utility.yul\":6972:6976   */\n      0x20\n        /* \"#utility.yul\":6959:6976   */\n      swap1\n      pop\n        /* \"#utility.yul\":7004:7006   */\n      0x1f\n        /* \"#utility.yul\":6996:7002   */\n      dup4\n        /* \"#utility.yul\":6993:7007   */\n      gt\n        /* \"#utility.yul\":7021:7022   */\n      0x01\n        /* \"#utility.yul\":7016:7634   */\n      dup2\n      eq\n      tag_149\n      jumpi\n        /* \"#utility.yul\":7678:7679   */\n      0x00\n        /* \"#utility.yul\":7695:7701   */\n      dup5\n        /* \"#utility.yul\":7692:7769   */\n      iszero\n      tag_150\n      jumpi\n        /* \"#utility.yul\":7744:7753   */\n      dup3\n        /* \"#utility.yul\":7739:7742   */\n      dup8\n        /* \"#utility.yul\":7735:7754   */\n      add\n        /* \"#utility.yul\":7729:7755   */\n      mload\n        /* \"#utility.yul\":7720:7755   */\n      swap1\n      pop\n        /* \"#utility.yul\":7692:7769   */\n    tag_150:\n        /* \"#utility.yul\":7795:7862   */\n      tag_151\n        /* \"#utility.yul\":7855:7861   */\n      dup6\n        /* \"#utility.yul\":7848:7853   */\n      dup3\n        /* \"#utility.yul\":7795:7862   */\n      tag_66\n      jump\t// in\n    tag_151:\n        /* \"#utility.yul\":7789:7793   */\n      dup7\n        /* \"#utility.yul\":7782:7863   */\n      sstore\n        /* \"#utility.yul\":7651:7873   */\n      pop\n        /* \"#utility.yul\":6986:7873   */\n      jump(tag_148)\n        /* \"#utility.yul\":7016:7634   */\n    tag_149:\n        /* \"#utility.yul\":7068:7072   */\n      0x1f\n        /* \"#utility.yul\":7064:7073   */\n      not\n        /* \"#utility.yul\":7056:7062   */\n      dup5\n        /* \"#utility.yul\":7052:7074   */\n      and\n        /* \"#utility.yul\":7102:7139   */\n      tag_152\n        /* \"#utility.yul\":7134:7138   */\n      dup7\n        /* \"#utility.yul\":7102:7139   */\n      tag_51\n      jump\t// in\n    tag_152:\n        /* \"#utility.yul\":7161:7162   */\n      0x00\n        /* \"#utility.yul\":7175:7383   */\n    tag_153:\n        /* \"#utility.yul\":7189:7196   */\n      dup3\n        /* \"#utility.yul\":7186:7187   */\n      dup2\n        /* \"#utility.yul\":7183:7197   */\n      lt\n        /* \"#utility.yul\":7175:7383   */\n      iszero\n      tag_155\n      jumpi\n        /* \"#utility.yul\":7268:7277   */\n      dup5\n        /* \"#utility.yul\":7263:7266   */\n      dup10\n        /* \"#utility.yul\":7259:7278   */\n      add\n        /* \"#utility.yul\":7253:7279   */\n      mload\n        /* \"#utility.yul\":7245:7251   */\n      dup3\n        /* \"#utility.yul\":7238:7280   */\n      sstore\n        /* \"#utility.yul\":7319:7320   */\n      0x01\n        /* \"#utility.yul\":7311:7317   */\n      dup3\n        /* \"#utility.yul\":7307:7321   */\n      add\n        /* \"#utility.yul\":7297:7321   */\n      swap2\n      pop\n        /* \"#utility.yul\":7366:7368   */\n      0x20\n        /* \"#utility.yul\":7355:7364   */\n      dup6\n        /* \"#utility.yul\":7351:7369   */\n      add\n        /* \"#utility.yul\":7338:7369   */\n      swap5\n      pop\n        /* \"#utility.yul\":7212:7216   */\n      0x20\n        /* \"#utility.yul\":7209:7210   */\n      dup2\n        /* \"#utility.yul\":7205:7217   */\n      add\n        /* \"#utility.yul\":7200:7217   */\n      swap1\n      pop\n        /* \"#utility.yul\":7175:7383   */\n      jump(tag_153)\n    tag_155:\n        /* \"#utility.yul\":7411:7417   */\n      dup7\n        /* \"#utility.yul\":7402:7409   */\n      dup4\n        /* \"#utility.yul\":7399:7418   */\n      lt\n        /* \"#utility.yul\":7396:7575   */\n      iszero\n      tag_156\n      jumpi\n        /* \"#utility.yul\":7469:7478   */\n      dup5\n        /* \"#utility.yul\":7464:7467   */\n      dup10\n        /* \"#utility.yul\":7460:7479   */\n      add\n        /* \"#utility.yul\":7454:7480   */\n      mload\n        /* \"#utility.yul\":7512:7560   */\n      tag_157\n        /* \"#utility.yul\":7554:7558   */\n      0x1f\n        /* \"#utility.yul\":7546:7552   */\n      dup10\n        /* \"#utility.yul\":7542:7559   */\n      and\n        /* \"#utility.yul\":7531:7540   */\n      dup3\n        /* \"#utility.yul\":7512:7560   */\n      tag_65\n      jump\t// in\n    tag_157:\n        /* \"#utility.yul\":7504:7510   */\n      dup4\n        /* \"#utility.yul\":7497:7561   */\n      sstore\n        /* \"#utility.yul\":7419:7575   */\n      pop\n        /* \"#utility.yul\":7396:7575   */\n    tag_156:\n        /* \"#utility.yul\":7621:7622   */\n      0x01\n        /* \"#utility.yul\":7617:7618   */\n      0x02\n        /* \"#utility.yul\":7609:7615   */\n      dup9\n        /* \"#utility.yul\":7605:7619   */\n      mul\n        /* \"#utility.yul\":7601:7623   */\n      add\n        /* \"#utility.yul\":7595:7599   */\n      dup9\n        /* \"#utility.yul\":7588:7624   */\n      sstore\n        /* \"#utility.yul\":7023:7634   */\n      pop\n      pop\n      pop\n        /* \"#utility.yul\":6986:7873   */\n    tag_148:\n      pop\n        /* \"#utility.yul\":6576:7879   */\n      pop\n      pop\n      pop\n        /* \"#utility.yul\":6484:7879   */\n      pop\n      pop\n      jump\t// out\n\n    auxdata: 0xa26469706673582212201b207e6e929c3039f4d12303c12713acc683ea59e3721f3e8230b34c49440def64736f6c634300081e0033\n}\n",
				"bytecode": {
					"linkReferences": {},
					"object": "6080604052348015600e575f5ffd5b506107088061001c5f395ff3fe608060405234801561000f575f5ffd5b5060043610610055575f3560e01c80630900f010146100595780635c60da1b14610075578063c298557814610093578063f2c31bd91461009d578063f851a440146100bb575b5f5ffd5b610073600480360381019061006e91906102ed565b6100d9565b005b61007d610173565b60405161008a9190610327565b60405180910390f35b61009b610197565b005b6100a56101de565b6040516100b291906103b0565b60405180910390f35b6100c361026a565b6040516100d09190610327565b60405180910390f35b60015f9054906101000a900473ffffffffffffffffffffffffffffffffffffffff1673ffffffffffffffffffffffffffffffffffffffff163373ffffffffffffffffffffffffffffffffffffffff1614610131575f5ffd5b805f5f6101000a81548173ffffffffffffffffffffffffffffffffffffffff021916908373ffffffffffffffffffffffffffffffffffffffff16021790555050565b5f5f9054906101000a900473ffffffffffffffffffffffffffffffffffffffff1681565b6040518060400160405280600381526020017f6e65770000000000000000000000000000000000000000000000000000000000815250600290816101db9190610603565b50565b600280546101eb9061042a565b80601f01602080910402602001604051908101604052809291908181526020018280546102179061042a565b80156102625780601f1061023957610100808354040283529160200191610262565b820191905f5260205f20905b81548152906001019060200180831161024557829003601f168201915b505050505081565b60015f9054906101000a900473ffffffffffffffffffffffffffffffffffffffff1681565b5f5ffd5b5f73ffffffffffffffffffffffffffffffffffffffff82169050919050565b5f6102bc82610293565b9050919050565b6102cc816102b2565b81146102d6575f5ffd5b50565b5f813590506102e7816102c3565b92915050565b5f602082840312156103025761030161028f565b5b5f61030f848285016102d9565b91505092915050565b610321816102b2565b82525050565b5f60208201905061033a5f830184610318565b92915050565b5f81519050919050565b5f82825260208201905092915050565b8281835e5f83830152505050565b5f601f19601f8301169050919050565b5f61038282610340565b61038c818561034a565b935061039c81856020860161035a565b6103a581610368565b840191505092915050565b5f6020820190508181035f8301526103c88184610378565b905092915050565b7f4e487b71000000000000000000000000000000000000000000000000000000005f52604160045260245ffd5b7f4e487b71000000000000000000000000000000000000000000000000000000005f52602260045260245ffd5b5f600282049050600182168061044157607f821691505b602082108103610454576104536103fd565b5b50919050565b5f819050815f5260205f209050919050565b5f6020601f8301049050919050565b5f82821b905092915050565b5f600883026104b67fffffffffffffffffffffffffffffffffffffffffffffffffffffffffffffffff8261047b565b6104c0868361047b565b95508019841693508086168417925050509392505050565b5f819050919050565b5f819050919050565b5f6105046104ff6104fa846104d8565b6104e1565b6104d8565b9050919050565b5f819050919050565b61051d836104ea565b6105316105298261050b565b848454610487565b825550505050565b5f5f905090565b610548610539565b610553818484610514565b505050565b5b818110156105765761056b5f82610540565b600181019050610559565b5050565b601f8211156105bb5761058c8161045a565b6105958461046c565b810160208510156105a4578190505b6105b86105b08561046c565b830182610558565b50505b505050565b5f82821c905092915050565b5f6105db5f19846008026105c0565b1980831691505092915050565b5f6105f383836105cc565b9150826002028217905092915050565b61060c82610340565b67ffffffffffffffff811115610625576106246103d0565b5b61062f825461042a565b61063a82828561057a565b5f60209050601f83116001811461066b575f8415610659578287015190505b61066385826105e8565b8655506106ca565b601f1984166106798661045a565b5f5b828110156106a05784890151825560018201915060208501945060208101905061067b565b868310156106bd57848901516106b9601f8916826105cc565b8355505b6001600288020188555050505b50505050505056fea26469706673582212201b207e6e929c3039f4d12303c12713acc683ea59e3721f3e8230b34c49440def64736f6c634300081e0033",
					"opcodes": "PUSH1 0x80 PUSH1 0x40 MSTORE CALLVALUE DUP1 ISZERO PUSH1 0xE JUMPI PUSH0 PUSH0 REVERT JUMPDEST POP PUSH2 0x708 DUP1 PUSH2 0x1C PUSH0 CODECOPY PUSH0 RETURN INVALID PUSH1 0x80 PUSH1 0x40 MSTORE CALLVALUE DUP1 ISZERO PUSH2 0xF JUMPI PUSH0 PUSH0 REVERT JUMPDEST POP PUSH1 0x4 CALLDATASIZE LT PUSH2 0x55 JUMPI PUSH0 CALLDATALOAD PUSH1 0xE0 SHR DUP1 PUSH4 0x900F010 EQ PUSH2 0x59 JUMPI DUP1 PUSH4 0x5C60DA1B EQ PUSH2 0x75 JUMPI DUP1 PUSH4 0xC2985578 EQ PUSH2 0x93 JUMPI DUP1 PUSH4 0xF2C31BD9 EQ PUSH2 0x9D JUMPI DUP1 PUSH4 0xF851A440 EQ PUSH2 0xBB JUMPI JUMPDEST PUSH0 PUSH0 REVERT JUMPDEST PUSH2 0x73 PUSH1 0x4 DUP1 CALLDATASIZE SUB DUP2 ADD SWAP1 PUSH2 0x6E SWAP2 SWAP1 PUSH2 0x2ED JUMP JUMPDEST PUSH2 0xD9 JUMP JUMPDEST STOP JUMPDEST PUSH2 0x7D PUSH2 0x173 JUMP JUMPDEST PUSH1 0x40 MLOAD PUSH2 0x8A SWAP2 SWAP1 PUSH2 0x327 JUMP JUMPDEST PUSH1 0x40 MLOAD DUP1 SWAP2 SUB SWAP1 RETURN JUMPDEST PUSH2 0x9B PUSH2 0x197 JUMP JUMPDEST STOP JUMPDEST PUSH2 0xA5 PUSH2 0x1DE JUMP JUMPDEST PUSH1 0x40 MLOAD PUSH2 0xB2 SWAP2 SWAP1 PUSH2 0x3B0 JUMP JUMPDEST PUSH1 0x40 MLOAD DUP1 SWAP2 SUB SWAP1 RETURN JUMPDEST PUSH2 0xC3 PUSH2 0x26A JUMP JUMPDEST PUSH1 0x40 MLOAD PUSH2 0xD0 SWAP2 SWAP1 PUSH2 0x327 JUMP JUMPDEST PUSH1 0x40 MLOAD DUP1 SWAP2 SUB SWAP1 RETURN JUMPDEST PUSH1 0x1 PUSH0 SWAP1 SLOAD SWAP1 PUSH2 0x100 EXP SWAP1 DIV PUSH20 0xFFFFFFFFFFFFFFFFFFFFFFFFFFFFFFFFFFFFFFFF AND PUSH20 0xFFFFFFFFFFFFFFFFFFFFFFFFFFFFFFFFFFFFFFFF AND CALLER PUSH20 0xFFFFFFFFFFFFFFFFFFFFFFFFFFFFFFFFFFFFFFFF AND EQ PUSH2 0x131 JUMPI PUSH0 PUSH0 REVERT JUMPDEST DUP1 PUSH0 PUSH0 PUSH2 0x100 EXP DUP2 SLOAD DUP2 PUSH20 0xFFFFFFFFFFFFFFFFFFFFFFFFFFFFFFFFFFFFFFFF MUL NOT AND SWAP1 DUP4 PUSH20 0xFFFFFFFFFFFFFFFFFFFFFFFFFFFFFFFFFFFFFFFF AND MUL OR SWAP1 SSTORE POP POP JUMP JUMPDEST PUSH0 PUSH0 SWAP1 SLOAD SWAP1 PUSH2 0x100 EXP SWAP1 DIV PUSH20 0xFFFFFFFFFFFFFFFFFFFFFFFFFFFFFFFFFFFFFFFF AND DUP2 JUMP JUMPDEST PUSH1 0x40 MLOAD DUP1 PUSH1 0x40 ADD PUSH1 0x40 MSTORE DUP1 PUSH1 0x3 DUP2 MSTORE PUSH1 0x20 ADD PUSH32 0x6E65770000000000000000000000000000000000000000000000000000000000 DUP2 MSTORE POP PUSH1 0x2 SWAP1 DUP2 PUSH2 0x1DB SWAP2 SWAP1 PUSH2 0x603 JUMP JUMPDEST POP JUMP JUMPDEST PUSH1 0x2 DUP1 SLOAD PUSH2 0x1EB SWAP1 PUSH2 0x42A JUMP JUMPDEST DUP1 PUSH1 0x1F ADD PUSH1 0x20 DUP1 SWAP2 DIV MUL PUSH1 0x20 ADD PUSH1 0x40 MLOAD SWAP1 DUP2 ADD PUSH1 0x40 MSTORE DUP1 SWAP3 SWAP2 SWAP1 DUP2 DUP2 MSTORE PUSH1 0x20 ADD DUP3 DUP1 SLOAD PUSH2 0x217 SWAP1 PUSH2 0x42A JUMP JUMPDEST DUP1 ISZERO PUSH2 0x262 JUMPI DUP1 PUSH1 0x1F LT PUSH2 0x239 JUMPI PUSH2 0x100 DUP1 DUP4 SLOAD DIV MUL DUP4 MSTORE SWAP2 PUSH1 0x20 ADD SWAP2 PUSH2 0x262 JUMP JUMPDEST DUP3 ADD SWAP2 SWAP1 PUSH0 MSTORE PUSH1 0x20 PUSH0 KECCAK256 SWAP1 JUMPDEST DUP2 SLOAD DUP2 MSTORE SWAP1 PUSH1 0x1 ADD SWAP1 PUSH1 0x20 ADD DUP1 DUP4 GT PUSH2 0x245 JUMPI DUP3 SWAP1 SUB PUSH1 0x1F AND DUP3 ADD SWAP2 JUMPDEST POP POP POP POP POP DUP2 JUMP JUMPDEST PUSH1 0x1 PUSH0 SWAP1 SLOAD SWAP1 PUSH2 0x100 EXP SWAP1 DIV PUSH20 0xFFFFFFFFFFFFFFFFFFFFFFFFFFFFFFFFFFFFFFFF AND DUP2 JUMP JUMPDEST PUSH0 PUSH0 REVERT JUMPDEST PUSH0 PUSH20 0xFFFFFFFFFFFFFFFFFFFFFFFFFFFFFFFFFFFFFFFF DUP3 AND SWAP1 POP SWAP2 SWAP1 POP JUMP JUMPDEST PUSH0 PUSH2 0x2BC DUP3 PUSH2 0x293 JUMP JUMPDEST SWAP1 POP SWAP2 SWAP1 POP JUMP JUMPDEST PUSH2 0x2CC DUP2 PUSH2 0x2B2 JUMP JUMPDEST DUP2 EQ PUSH2 0x2D6 JUMPI PUSH0 PUSH0 REVERT JUMPDEST POP JUMP JUMPDEST PUSH0 DUP2 CALLDATALOAD SWAP1 POP PUSH2 0x2E7 DUP2 PUSH2 0x2C3 JUMP JUMPDEST SWAP3 SWAP2 POP POP JUMP JUMPDEST PUSH0 PUSH1 0x20 DUP3 DUP5 SUB SLT ISZERO PUSH2 0x302 JUMPI PUSH2 0x301 PUSH2 0x28F JUMP JUMPDEST JUMPDEST PUSH0 PUSH2 0x30F DUP5 DUP3 DUP6 ADD PUSH2 0x2D9 JUMP JUMPDEST SWAP2 POP POP SWAP3 SWAP2 POP POP JUMP JUMPDEST PUSH2 0x321 DUP2 PUSH2 0x2B2 JUMP JUMPDEST DUP3 MSTORE POP POP JUMP JUMPDEST PUSH0 PUSH1 0x20 DUP3 ADD SWAP1 POP PUSH2 0x33A PUSH0 DUP4 ADD DUP5 PUSH2 0x318 JUMP JUMPDEST SWAP3 SWAP2 POP POP JUMP JUMPDEST PUSH0 DUP2 MLOAD SWAP1 POP SWAP2 SWAP1 POP JUMP JUMPDEST PUSH0 DUP3 DUP3 MSTORE PUSH1 0x20 DUP3 ADD SWAP1 POP SWAP3 SWAP2 POP POP JUMP JUMPDEST DUP3 DUP2 DUP4 MCOPY PUSH0 DUP4 DUP4 ADD MSTORE POP POP POP JUMP JUMPDEST PUSH0 PUSH1 0x1F NOT PUSH1 0x1F DUP4 ADD AND SWAP1 POP SWAP2 SWAP1 POP JUMP JUMPDEST PUSH0 PUSH2 0x382 DUP3 PUSH2 0x340 JUMP JUMPDEST PUSH2 0x38C DUP2 DUP6 PUSH2 0x34A JUMP JUMPDEST SWAP4 POP PUSH2 0x39C DUP2 DUP6 PUSH1 0x20 DUP7 ADD PUSH2 0x35A JUMP JUMPDEST PUSH2 0x3A5 DUP2 PUSH2 0x368 JUMP JUMPDEST DUP5 ADD SWAP2 POP POP SWAP3 SWAP2 POP POP JUMP JUMPDEST PUSH0 PUSH1 0x20 DUP3 ADD SWAP1 POP DUP2 DUP2 SUB PUSH0 DUP4 ADD MSTORE PUSH2 0x3C8 DUP2 DUP5 PUSH2 0x378 JUMP JUMPDEST SWAP1 POP SWAP3 SWAP2 POP POP JUMP JUMPDEST PUSH32 0x4E487B7100000000000000000000000000000000000000000000000000000000 PUSH0 MSTORE PUSH1 0x41 PUSH1 0x4 MSTORE PUSH1 0x24 PUSH0 REVERT JUMPDEST PUSH32 0x4E487B7100000000000000000000000000000000000000000000000000000000 PUSH0 MSTORE PUSH1 0x22 PUSH1 0x4 MSTORE PUSH1 0x24 PUSH0 REVERT JUMPDEST PUSH0 PUSH1 0x2 DUP3 DIV SWAP1 POP PUSH1 0x1 DUP3 AND DUP1 PUSH2 0x441 JUMPI PUSH1 0x7F DUP3 AND SWAP2 POP JUMPDEST PUSH1 0x20 DUP3 LT DUP2 SUB PUSH2 0x454 JUMPI PUSH2 0x453 PUSH2 0x3FD JUMP JUMPDEST JUMPDEST POP SWAP2 SWAP1 POP JUMP JUMPDEST PUSH0 DUP2 SWAP1 POP DUP2 PUSH0 MSTORE PUSH1 0x20 PUSH0 KECCAK256 SWAP1 POP SWAP2 SWAP1 POP JUMP JUMPDEST PUSH0 PUSH1 0x20 PUSH1 0x1F DUP4 ADD DIV SWAP1 POP SWAP2 SWAP1 POP JUMP JUMPDEST PUSH0 DUP3 DUP3 SHL SWAP1 POP SWAP3 SWAP2 POP POP JUMP JUMPDEST PUSH0 PUSH1 0x8 DUP4 MUL PUSH2 0x4B6 PUSH32 0xFFFFFFFFFFFFFFFFFFFFFFFFFFFFFFFFFFFFFFFFFFFFFFFFFFFFFFFFFFFFFFFF DUP3 PUSH2 0x47B JUMP JUMPDEST PUSH2 0x4C0 DUP7 DUP4 PUSH2 0x47B JUMP JUMPDEST SWAP6 POP DUP1 NOT DUP5 AND SWAP4 POP DUP1 DUP7 AND DUP5 OR SWAP3 POP POP POP SWAP4 SWAP3 POP POP POP JUMP JUMPDEST PUSH0 DUP2 SWAP1 POP SWAP2 SWAP1 POP JUMP JUMPDEST PUSH0 DUP2 SWAP1 POP SWAP2 SWAP1 POP JUMP JUMPDEST PUSH0 PUSH2 0x504 PUSH2 0x4FF PUSH2 0x4FA DUP5 PUSH2 0x4D8 JUMP JUMPDEST PUSH2 0x4E1 JUMP JUMPDEST PUSH2 0x4D8 JUMP JUMPDEST SWAP1 POP SWAP2 SWAP1 POP JUMP JUMPDEST PUSH0 DUP2 SWAP1 POP SWAP2 SWAP1 POP JUMP JUMPDEST PUSH2 0x51D DUP4 PUSH2 0x4EA JUMP JUMPDEST PUSH2 0x531 PUSH2 0x529 DUP3 PUSH2 0x50B JUMP JUMPDEST DUP5 DUP5 SLOAD PUSH2 0x487 JUMP JUMPDEST DUP3 SSTORE POP POP POP POP JUMP JUMPDEST PUSH0 PUSH0 SWAP1 POP SWAP1 JUMP JUMPDEST PUSH2 0x548 PUSH2 0x539 JUMP JUMPDEST PUSH2 0x553 DUP2 DUP5 DUP5 PUSH2 0x514 JUMP JUMPDEST POP POP POP JUMP JUMPDEST JUMPDEST DUP2 DUP2 LT ISZERO PUSH2 0x576 JUMPI PUSH2 0x56B PUSH0 DUP3 PUSH2 0x540 JUMP JUMPDEST PUSH1 0x1 DUP2 ADD SWAP1 POP PUSH2 0x559 JUMP JUMPDEST POP POP JUMP JUMPDEST PUSH1 0x1F DUP3 GT ISZERO PUSH2 0x5BB JUMPI PUSH2 0x58C DUP2 PUSH2 0x45A JUMP JUMPDEST PUSH2 0x595 DUP5 PUSH2 0x46C JUMP JUMPDEST DUP2 ADD PUSH1 0x20 DUP6 LT ISZERO PUSH2 0x5A4 JUMPI DUP2 SWAP1 POP JUMPDEST PUSH2 0x5B8 PUSH2 0x5B0 DUP6 PUSH2 0x46C JUMP JUMPDEST DUP4 ADD DUP3 PUSH2 0x558 JUMP JUMPDEST POP POP JUMPDEST POP POP POP JUMP JUMPDEST PUSH0 DUP3 DUP3 SHR SWAP1 POP SWAP3 SWAP2 POP POP JUMP JUMPDEST PUSH0 PUSH2 0x5DB PUSH0 NOT DUP5 PUSH1 0x8 MUL PUSH2 0x5C0 JUMP JUMPDEST NOT DUP1 DUP4 AND SWAP2 POP POP SWAP3 SWAP2 POP POP JUMP JUMPDEST PUSH0 PUSH2 0x5F3 DUP4 DUP4 PUSH2 0x5CC JUMP JUMPDEST SWAP2 POP DUP3 PUSH1 0x2 MUL DUP3 OR SWAP1 POP SWAP3 SWAP2 POP POP JUMP JUMPDEST PUSH2 0x60C DUP3 PUSH2 0x340 JUMP JUMPDEST PUSH8 0xFFFFFFFFFFFFFFFF DUP2 GT ISZERO PUSH2 0x625 JUMPI PUSH2 0x624 PUSH2 0x3D0 JUMP JUMPDEST JUMPDEST PUSH2 0x62F DUP3 SLOAD PUSH2 0x42A JUMP JUMPDEST PUSH2 0x63A DUP3 DUP3 DUP6 PUSH2 0x57A JUMP JUMPDEST PUSH0 PUSH1 0x20 SWAP1 POP PUSH1 0x1F DUP4 GT PUSH1 0x1 DUP2 EQ PUSH2 0x66B JUMPI PUSH0 DUP5 ISZERO PUSH2 0x659 JUMPI DUP3 DUP8 ADD MLOAD SWAP1 POP JUMPDEST PUSH2 0x663 DUP6 DUP3 PUSH2 0x5E8 JUMP JUMPDEST DUP7 SSTORE POP PUSH2 0x6CA JUMP JUMPDEST PUSH1 0x1F NOT DUP5 AND PUSH2 0x679 DUP7 PUSH2 0x45A JUMP JUMPDEST PUSH0 JUMPDEST DUP3 DUP2 LT ISZERO PUSH2 0x6A0 JUMPI DUP5 DUP10 ADD MLOAD DUP3 SSTORE PUSH1 0x1 DUP3 ADD SWAP2 POP PUSH1 0x20 DUP6 ADD SWAP5 POP PUSH1 0x20 DUP2 ADD SWAP1 POP PUSH2 0x67B JUMP JUMPDEST DUP7 DUP4 LT ISZERO PUSH2 0x6BD JUMPI DUP5 DUP10 ADD MLOAD PUSH2 0x6B9 PUSH1 0x1F DUP10 AND DUP3 PUSH2 0x5CC JUMP JUMPDEST DUP4 SSTORE POP JUMPDEST PUSH1 0x1 PUSH1 0x2 DUP9 MUL ADD DUP9 SSTORE POP POP POP JUMPDEST POP POP POP POP POP POP JUMP INVALID LOG2 PUSH5 0x6970667358 0x22 SLT KECCAK256 SHL KECCAK256 PUSH31 0x6E929C3039F4D12303C12713ACC683EA59E3721F3E8230B34C49440DEF6473 PUSH16 0x6C634300081E00330000000000000000 "
				},
				"gasEstimates": {
					"creation": {
						"codeDepositCost": "360000",
						"executionCost": "397",
						"totalCost": "360397"
					},
					"external": {
						"admin()": "2574",
						"foo()": "infinite",
						"implementation()": "2507",
						"upgrade(address)": "26861",
						"words()": "infinite"
					}
				},
				"methodIdentifiers": {
					"admin()": "f851a440",
					"foo()": "c2985578",
					"implementation()": "5c60da1b",
					"upgrade(address)": "0900f010",
					"words()": "f2c31bd9"
				}
			},
			"storageLayout": {
				"storage": [
					{
						"astId": 76,
						"contract": "contracts/demos/UUPS/UUPS.sol:UUPS2",
						"label": "implementation",
						"offset": 0,
						"slot": "0",
						"type": "t_address"
					},
					{
						"astId": 78,
						"contract": "contracts/demos/UUPS/UUPS.sol:UUPS2",
						"label": "admin",
						"offset": 0,
						"slot": "1",
						"type": "t_address"
					},
					{
						"astId": 80,
						"contract": "contracts/demos/UUPS/UUPS.sol:UUPS2",
						"label": "words",
						"offset": 0,
						"slot": "2",
						"type": "t_string_storage"
					}
				],
				"types": {
					"t_address": {
						"encoding": "inplace",
						"label": "address",
						"numberOfBytes": "20"
					},
					"t_string_storage": {
						"encoding": "bytes",
						"label": "string",
						"numberOfBytes": "32"
					}
				}
			},
			"userdoc": {
				"kind": "user",
				"methods": {},
				"version": 1
			}
		}
	}
}