{
	"data": {
		"bytecode": {
			"linkReferences": {},
			"object": "6080604052348015600e575f5ffd5b506107f98061001c5f395ff3fe608060405234801561000f575f5ffd5b5060043610610029575f3560e01c8063fc156fe01461002d575b5f5ffd5b61004760048036038101906100429190610497565b61005d565b60405161005491906104d1565b60405180910390f35b5f5f600a67ffffffffffffffff81111561007a576100796104ea565b5b6040519080825280602002602001820160405280156100a85781602001602082028036833780820191505090505b5090505f5f90505b81518110156100f8576002816100c69190610544565b8282815181106100d9576100d8610585565b5b60200260200101818152505080806100f0906105b2565b9150506100b0565b61011182855f6001865161010c91906105f9565b61011a565b92505050919050565b5f61015b6040518060400160405280601781526020017f7374617274696e646578203d202c656e64496e6465783d00000000000000000081525084846102d7565b8183111561016b575f90506102cf565b5f6002838561017a919061062c565b610184919061068c565b90506101e06040518060400160405280600d81526020017f69203d2c20617272795b695d3d00000000000000000000000000000000000000815250828884815181106101d3576101d2610585565b5b60200260200101516102d7565b8581815181106101f3576101f2610585565b5b60200260200101518503610249576102406040518060400160405280600681526020017f62696e676f3a000000000000000000000000000000000000000000000000000081525082610376565b809150506102cf565b85818151811061025c5761025b610585565b5b602002602001015185111561028b57610283868660018461027d919061062c565b8661011a565b9150506102cf565b85818151811061029e5761029d610585565b5b60200260200101518510156102cd576102c58686866001856102c091906105f9565b61011a565b9150506102cf565b505b949350505050565b6103718383836040516024016102ef9392919061072c565b6040516020818303038152906040527fca47c4eb000000000000000000000000000000000000000000000000000000007bffffffffffffffffffffffffffffffffffffffffffffffffffffffff19166020820180517bffffffffffffffffffffffffffffffffffffffffffffffffffffffff8381831617835250505050610412565b505050565b61040e828260405160240161038c929190610768565b6040516020818303038152906040527fb60e72cc000000000000000000000000000000000000000000000000000000007bffffffffffffffffffffffffffffffffffffffffffffffffffffffff19166020820180517bffffffffffffffffffffffffffffffffffffffffffffffffffffffff8381831617835250505050610412565b5050565b6104298161042161042c61044b565b63ffffffff16565b50565b5f6a636f6e736f6c652e6c6f6790505f5f835160208501845afa505050565b610456819050919050565b61045e610796565b565b5f5ffd5b5f819050919050565b61047681610464565b8114610480575f5ffd5b50565b5f813590506104918161046d565b92915050565b5f602082840312156104ac576104ab610460565b5b5f6104b984828501610483565b91505092915050565b6104cb81610464565b82525050565b5f6020820190506104e45f8301846104c2565b92915050565b7f4e487b71000000000000000000000000000000000000000000000000000000005f52604160045260245ffd5b7f4e487b71000000000000000000000000000000000000000000000000000000005f52601160045260245ffd5b5f61054e82610464565b915061055983610464565b925082820261056781610464565b9150828204841483151761057e5761057d610517565b5b5092915050565b7f4e487b71000000000000000000000000000000000000000000000000000000005f52603260045260245ffd5b5f6105bc82610464565b91507fffffffffffffffffffffffffffffffffffffffffffffffffffffffffffffffff82036105ee576105ed610517565b5b600182019050919050565b5f61060382610464565b915061060e83610464565b925082820390508181111561062657610625610517565b5b92915050565b5f61063682610464565b915061064183610464565b925082820190508082111561065957610658610517565b5b92915050565b7f4e487b71000000000000000000000000000000000000000000000000000000005f52601260045260245ffd5b5f61069682610464565b91506106a183610464565b9250826106b1576106b061065f565b5b828204905092915050565b5f81519050919050565b5f82825260208201905092915050565b8281835e5f83830152505050565b5f601f19601f8301169050919050565b5f6106fe826106bc565b61070881856106c6565b93506107188185602086016106d6565b610721816106e4565b840191505092915050565b5f6060820190508181035f83015261074481866106f4565b905061075360208301856104c2565b61076060408301846104c2565b949350505050565b5f6040820190508181035f83015261078081856106f4565b905061078f60208301846104c2565b9392505050565b7f4e487b71000000000000000000000000000000000000000000000000000000005f52605160045260245ffdfea2646970667358221220ef401d427c2f1c056e172b3a796c52eb846dac10000d1ddcd716502313d8883064736f6c634300081e0033",
			"opcodes": "PUSH1 0x80 PUSH1 0x40 MSTORE CALLVALUE DUP1 ISZERO PUSH1 0xE JUMPI PUSH0 PUSH0 REVERT JUMPDEST POP PUSH2 0x7F9 DUP1 PUSH2 0x1C PUSH0 CODECOPY PUSH0 RETURN INVALID PUSH1 0x80 PUSH1 0x40 MSTORE CALLVALUE DUP1 ISZERO PUSH2 0xF JUMPI PUSH0 PUSH0 REVERT JUMPDEST POP PUSH1 0x4 CALLDATASIZE LT PUSH2 0x29 JUMPI PUSH0 CALLDATALOAD PUSH1 0xE0 SHR DUP1 PUSH4 0xFC156FE0 EQ PUSH2 0x2D JUMPI JUMPDEST PUSH0 PUSH0 REVERT JUMPDEST PUSH2 0x47 PUSH1 0x4 DUP1 CALLDATASIZE SUB DUP2 ADD SWAP1 PUSH2 0x42 SWAP2 SWAP1 PUSH2 0x497 JUMP JUMPDEST PUSH2 0x5D JUMP JUMPDEST PUSH1 0x40 MLOAD PUSH2 0x54 SWAP2 SWAP1 PUSH2 0x4D1 JUMP JUMPDEST PUSH1 0x40 MLOAD DUP1 SWAP2 SUB SWAP1 RETURN JUMPDEST PUSH0 PUSH0 PUSH1 0xA PUSH8 0xFFFFFFFFFFFFFFFF DUP2 GT ISZERO PUSH2 0x7A JUMPI PUSH2 0x79 PUSH2 0x4EA JUMP JUMPDEST JUMPDEST PUSH1 0x40 MLOAD SWAP1 DUP1 DUP3 MSTORE DUP1 PUSH1 0x20 MUL PUSH1 0x20 ADD DUP3 ADD PUSH1 0x40 MSTORE DUP1 ISZERO PUSH2 0xA8 JUMPI DUP2 PUSH1 0x20 ADD PUSH1 0x20 DUP3 MUL DUP1 CALLDATASIZE DUP4 CALLDATACOPY DUP1 DUP3 ADD SWAP2 POP POP SWAP1 POP JUMPDEST POP SWAP1 POP PUSH0 PUSH0 SWAP1 POP JUMPDEST DUP2 MLOAD DUP2 LT ISZERO PUSH2 0xF8 JUMPI PUSH1 0x2 DUP2 PUSH2 0xC6 SWAP2 SWAP1 PUSH2 0x544 JUMP JUMPDEST DUP3 DUP3 DUP2 MLOAD DUP2 LT PUSH2 0xD9 JUMPI PUSH2 0xD8 PUSH2 0x585 JUMP JUMPDEST JUMPDEST PUSH1 0x20 MUL PUSH1 0x20 ADD ADD DUP2 DUP2 MSTORE POP POP DUP1 DUP1 PUSH2 0xF0 SWAP1 PUSH2 0x5B2 JUMP JUMPDEST SWAP2 POP POP PUSH2 0xB0 JUMP JUMPDEST PUSH2 0x111 DUP3 DUP6 PUSH0 PUSH1 0x1 DUP7 MLOAD PUSH2 0x10C SWAP2 SWAP1 PUSH2 0x5F9 JUMP JUMPDEST PUSH2 0x11A JUMP JUMPDEST SWAP3 POP POP POP SWAP2 SWAP1 POP JUMP JUMPDEST PUSH0 PUSH2 0x15B PUSH1 0x40 MLOAD DUP1 PUSH1 0x40 ADD PUSH1 0x40 MSTORE DUP1 PUSH1 0x17 DUP2 MSTORE PUSH1 0x20 ADD PUSH32 0x7374617274696E646578203D202C656E64496E6465783D000000000000000000 DUP2 MSTORE POP DUP5 DUP5 PUSH2 0x2D7 JUMP JUMPDEST DUP2 DUP4 GT ISZERO PUSH2 0x16B JUMPI PUSH0 SWAP1 POP PUSH2 0x2CF JUMP JUMPDEST PUSH0 PUSH1 0x2 DUP4 DUP6 PUSH2 0x17A SWAP2 SWAP1 PUSH2 0x62C JUMP JUMPDEST PUSH2 0x184 SWAP2 SWAP1 PUSH2 0x68C JUMP JUMPDEST SWAP1 POP PUSH2 0x1E0 PUSH1 0x40 MLOAD DUP1 PUSH1 0x40 ADD PUSH1 0x40 MSTORE DUP1 PUSH1 0xD DUP2 MSTORE PUSH1 0x20 ADD PUSH32 0x69203D2C20617272795B695D3D00000000000000000000000000000000000000 DUP2 MSTORE POP DUP3 DUP9 DUP5 DUP2 MLOAD DUP2 LT PUSH2 0x1D3 JUMPI PUSH2 0x1D2 PUSH2 0x585 JUMP JUMPDEST JUMPDEST PUSH1 0x20 MUL PUSH1 0x20 ADD ADD MLOAD PUSH2 0x2D7 JUMP JUMPDEST DUP6 DUP2 DUP2 MLOAD DUP2 LT PUSH2 0x1F3 JUMPI PUSH2 0x1F2 PUSH2 0x585 JUMP JUMPDEST JUMPDEST PUSH1 0x20 MUL PUSH1 0x20 ADD ADD MLOAD DUP6 SUB PUSH2 0x249 JUMPI PUSH2 0x240 PUSH1 0x40 MLOAD DUP1 PUSH1 0x40 ADD PUSH1 0x40 MSTORE DUP1 PUSH1 0x6 DUP2 MSTORE PUSH1 0x20 ADD PUSH32 0x62696E676F3A0000000000000000000000000000000000000000000000000000 DUP2 MSTORE POP DUP3 PUSH2 0x376 JUMP JUMPDEST DUP1 SWAP2 POP POP PUSH2 0x2CF JUMP JUMPDEST DUP6 DUP2 DUP2 MLOAD DUP2 LT PUSH2 0x25C JUMPI PUSH2 0x25B PUSH2 0x585 JUMP JUMPDEST JUMPDEST PUSH1 0x20 MUL PUSH1 0x20 ADD ADD MLOAD DUP6 GT ISZERO PUSH2 0x28B JUMPI PUSH2 0x283 DUP7 DUP7 PUSH1 0x1 DUP5 PUSH2 0x27D SWAP2 SWAP1 PUSH2 0x62C JUMP JUMPDEST DUP7 PUSH2 0x11A JUMP JUMPDEST SWAP2 POP POP PUSH2 0x2CF JUMP JUMPDEST DUP6 DUP2 DUP2 MLOAD DUP2 LT PUSH2 0x29E JUMPI PUSH2 0x29D PUSH2 0x585 JUMP JUMPDEST JUMPDEST PUSH1 0x20 MUL PUSH1 0x20 ADD ADD MLOAD DUP6 LT ISZERO PUSH2 0x2CD JUMPI PUSH2 0x2C5 DUP7 DUP7 DUP7 PUSH1 0x1 DUP6 PUSH2 0x2C0 SWAP2 SWAP1 PUSH2 0x5F9 JUMP JUMPDEST PUSH2 0x11A JUMP JUMPDEST SWAP2 POP POP PUSH2 0x2CF JUMP JUMPDEST POP JUMPDEST SWAP5 SWAP4 POP POP POP POP JUMP JUMPDEST PUSH2 0x371 DUP4 DUP4 DUP4 PUSH1 0x40 MLOAD PUSH1 0x24 ADD PUSH2 0x2EF SWAP4 SWAP3 SWAP2 SWAP1 PUSH2 0x72C JUMP JUMPDEST PUSH1 0x40 MLOAD PUSH1 0x20 DUP2 DUP4 SUB SUB DUP2 MSTORE SWAP1 PUSH1 0x40 MSTORE PUSH32 0xCA47C4EB00000000000000000000000000000000000000000000000000000000 PUSH28 0xFFFFFFFFFFFFFFFFFFFFFFFFFFFFFFFFFFFFFFFFFFFFFFFFFFFFFFFF NOT AND PUSH1 0x20 DUP3 ADD DUP1 MLOAD PUSH28 0xFFFFFFFFFFFFFFFFFFFFFFFFFFFFFFFFFFFFFFFFFFFFFFFFFFFFFFFF DUP4 DUP2 DUP4 AND OR DUP4 MSTORE POP POP POP POP PUSH2 0x412 JUMP JUMPDEST POP POP POP JUMP JUMPDEST PUSH2 0x40E DUP3 DUP3 PUSH1 0x40 MLOAD PUSH1 0x24 ADD PUSH2 0x38C SWAP3 SWAP2 SWAP1 PUSH2 0x768 JUMP JUMPDEST PUSH1 0x40 MLOAD PUSH1 0x20 DUP2 DUP4 SUB SUB DUP2 MSTORE SWAP1 PUSH1 0x40 MSTORE PUSH32 0xB60E72CC00000000000000000000000000000000000000000000000000000000 PUSH28 0xFFFFFFFFFFFFFFFFFFFFFFFFFFFFFFFFFFFFFFFFFFFFFFFFFFFFFFFF NOT AND PUSH1 0x20 DUP3 ADD DUP1 MLOAD PUSH28 0xFFFFFFFFFFFFFFFFFFFFFFFFFFFFFFFFFFFFFFFFFFFFFFFFFFFFFFFF DUP4 DUP2 DUP4 AND OR DUP4 MSTORE POP POP POP POP PUSH2 0x412 JUMP JUMPDEST POP POP JUMP JUMPDEST PUSH2 0x429 DUP2 PUSH2 0x421 PUSH2 0x42C PUSH2 0x44B JUMP JUMPDEST PUSH4 0xFFFFFFFF AND JUMP JUMPDEST POP JUMP JUMPDEST PUSH0 PUSH11 0x636F6E736F6C652E6C6F67 SWAP1 POP PUSH0 PUSH0 DUP4 MLOAD PUSH1 0x20 DUP6 ADD DUP5 GAS STATICCALL POP POP POP JUMP JUMPDEST PUSH2 0x456 DUP2 SWAP1 POP SWAP2 SWAP1 POP JUMP JUMPDEST PUSH2 0x45E PUSH2 0x796 JUMP JUMPDEST JUMP JUMPDEST PUSH0 PUSH0 REVERT JUMPDEST PUSH0 DUP2 SWAP1 POP SWAP2 SWAP1 POP JUMP JUMPDEST PUSH2 0x476 DUP2 PUSH2 0x464 JUMP JUMPDEST DUP2 EQ PUSH2 0x480 JUMPI PUSH0 PUSH0 REVERT JUMPDEST POP JUMP JUMPDEST PUSH0 DUP2 CALLDATALOAD SWAP1 POP PUSH2 0x491 DUP2 PUSH2 0x46D JUMP JUMPDEST SWAP3 SWAP2 POP POP JUMP JUMPDEST PUSH0 PUSH1 0x20 DUP3 DUP5 SUB SLT ISZERO PUSH2 0x4AC JUMPI PUSH2 0x4AB PUSH2 0x460 JUMP JUMPDEST JUMPDEST PUSH0 PUSH2 0x4B9 DUP5 DUP3 DUP6 ADD PUSH2 0x483 JUMP JUMPDEST SWAP2 POP POP SWAP3 SWAP2 POP POP JUMP JUMPDEST PUSH2 0x4CB DUP2 PUSH2 0x464 JUMP JUMPDEST DUP3 MSTORE POP POP JUMP JUMPDEST PUSH0 PUSH1 0x20 DUP3 ADD SWAP1 POP PUSH2 0x4E4 PUSH0 DUP4 ADD DUP5 PUSH2 0x4C2 JUMP JUMPDEST SWAP3 SWAP2 POP POP JUMP JUMPDEST PUSH32 0x4E487B7100000000000000000000000000000000000000000000000000000000 PUSH0 MSTORE PUSH1 0x41 PUSH1 0x4 MSTORE PUSH1 0x24 PUSH0 REVERT JUMPDEST PUSH32 0x4E487B7100000000000000000000000000000000000000000000000000000000 PUSH0 MSTORE PUSH1 0x11 PUSH1 0x4 MSTORE PUSH1 0x24 PUSH0 REVERT JUMPDEST PUSH0 PUSH2 0x54E DUP3 PUSH2 0x464 JUMP JUMPDEST SWAP2 POP PUSH2 0x559 DUP4 PUSH2 0x464 JUMP JUMPDEST SWAP3 POP DUP3 DUP3 MUL PUSH2 0x567 DUP2 PUSH2 0x464 JUMP JUMPDEST SWAP2 POP DUP3 DUP3 DIV DUP5 EQ DUP4 ISZERO OR PUSH2 0x57E JUMPI PUSH2 0x57D PUSH2 0x517 JUMP JUMPDEST JUMPDEST POP SWAP3 SWAP2 POP POP JUMP JUMPDEST PUSH32 0x4E487B7100000000000000000000000000000000000000000000000000000000 PUSH0 MSTORE PUSH1 0x32 PUSH1 0x4 MSTORE PUSH1 0x24 PUSH0 REVERT JUMPDEST PUSH0 PUSH2 0x5BC DUP3 PUSH2 0x464 JUMP JUMPDEST SWAP2 POP PUSH32 0xFFFFFFFFFFFFFFFFFFFFFFFFFFFFFFFFFFFFFFFFFFFFFFFFFFFFFFFFFFFFFFFF DUP3 SUB PUSH2 0x5EE JUMPI PUSH2 0x5ED PUSH2 0x517 JUMP JUMPDEST JUMPDEST PUSH1 0x1 DUP3 ADD SWAP1 POP SWAP2 SWAP1 POP JUMP JUMPDEST PUSH0 PUSH2 0x603 DUP3 PUSH2 0x464 JUMP JUMPDEST SWAP2 POP PUSH2 0x60E DUP4 PUSH2 0x464 JUMP JUMPDEST SWAP3 POP DUP3 DUP3 SUB SWAP1 POP DUP2 DUP2 GT ISZERO PUSH2 0x626 JUMPI PUSH2 0x625 PUSH2 0x517 JUMP JUMPDEST JUMPDEST SWAP3 SWAP2 POP POP JUMP JUMPDEST PUSH0 PUSH2 0x636 DUP3 PUSH2 0x464 JUMP JUMPDEST SWAP2 POP PUSH2 0x641 DUP4 PUSH2 0x464 JUMP JUMPDEST SWAP3 POP DUP3 DUP3 ADD SWAP1 POP DUP1 DUP3 GT ISZERO PUSH2 0x659 JUMPI PUSH2 0x658 PUSH2 0x517 JUMP JUMPDEST JUMPDEST SWAP3 SWAP2 POP POP JUMP JUMPDEST PUSH32 0x4E487B7100000000000000000000000000000000000000000000000000000000 PUSH0 MSTORE PUSH1 0x12 PUSH1 0x4 MSTORE PUSH1 0x24 PUSH0 REVERT JUMPDEST PUSH0 PUSH2 0x696 DUP3 PUSH2 0x464 JUMP JUMPDEST SWAP2 POP PUSH2 0x6A1 DUP4 PUSH2 0x464 JUMP JUMPDEST SWAP3 POP DUP3 PUSH2 0x6B1 JUMPI PUSH2 0x6B0 PUSH2 0x65F JUMP JUMPDEST JUMPDEST DUP3 DUP3 DIV SWAP1 POP SWAP3 SWAP2 POP POP JUMP JUMPDEST PUSH0 DUP2 MLOAD SWAP1 POP SWAP2 SWAP1 POP JUMP JUMPDEST PUSH0 DUP3 DUP3 MSTORE PUSH1 0x20 DUP3 ADD SWAP1 POP SWAP3 SWAP2 POP POP JUMP JUMPDEST DUP3 DUP2 DUP4 MCOPY PUSH0 DUP4 DUP4 ADD MSTORE POP POP POP JUMP JUMPDEST PUSH0 PUSH1 0x1F NOT PUSH1 0x1F DUP4 ADD AND SWAP1 POP SWAP2 SWAP1 POP JUMP JUMPDEST PUSH0 PUSH2 0x6FE DUP3 PUSH2 0x6BC JUMP JUMPDEST PUSH2 0x708 DUP2 DUP6 PUSH2 0x6C6 JUMP JUMPDEST SWAP4 POP PUSH2 0x718 DUP2 DUP6 PUSH1 0x20 DUP7 ADD PUSH2 0x6D6 JUMP JUMPDEST PUSH2 0x721 DUP2 PUSH2 0x6E4 JUMP JUMPDEST DUP5 ADD SWAP2 POP POP SWAP3 SWAP2 POP POP JUMP JUMPDEST PUSH0 PUSH1 0x60 DUP3 ADD SWAP1 POP DUP2 DUP2 SUB PUSH0 DUP4 ADD MSTORE PUSH2 0x744 DUP2 DUP7 PUSH2 0x6F4 JUMP JUMPDEST SWAP1 POP PUSH2 0x753 PUSH1 0x20 DUP4 ADD DUP6 PUSH2 0x4C2 JUMP JUMPDEST PUSH2 0x760 PUSH1 0x40 DUP4 ADD DUP5 PUSH2 0x4C2 JUMP JUMPDEST SWAP5 SWAP4 POP POP POP POP JUMP JUMPDEST PUSH0 PUSH1 0x40 DUP3 ADD SWAP1 POP DUP2 DUP2 SUB PUSH0 DUP4 ADD MSTORE PUSH2 0x780 DUP2 DUP6 PUSH2 0x6F4 JUMP JUMPDEST SWAP1 POP PUSH2 0x78F PUSH1 0x20 DUP4 ADD DUP5 PUSH2 0x4C2 JUMP JUMPDEST SWAP4 SWAP3 POP POP POP JUMP JUMPDEST PUSH32 0x4E487B7100000000000000000000000000000000000000000000000000000000 PUSH0 MSTORE PUSH1 0x51 PUSH1 0x4 MSTORE PUSH1 0x24 PUSH0 REVERT INVALID LOG2 PUSH5 0x6970667358 0x22 SLT KECCAK256 0xEF BLOCKHASH SAR TIMESTAMP PUSH29 0x2F1C056E172B3A796C52EB846DAC10000D1DDCD716502313D888306473 PUSH16 0x6C634300081E00330000000000000000 "
		},
		"gasEstimates": {
			"creation": {
				"codeDepositCost": "408200",
				"executionCost": "441",
				"totalCost": "408641"
			},
			"external": {
				"search(uint256)": "infinite"
			},
			"internal": {
				"doSearch(uint256[] memory,uint256,uint256,uint256)": "infinite"
			}
		},
		"methodIdentifiers": {
			"search(uint256)": "fc156fe0"
		}
	},
	"abi": [
		{
			"inputs": [
				{
					"internalType": "uint256",
					"name": "num",
					"type": "uint256"
				}
			],
			"name": "search",
			"outputs": [
				{
					"internalType": "uint256",
					"name": "",
					"type": "uint256"
				}
			],
			"stateMutability": "pure",
			"type": "function"
		}
	]
}